{
  "contractName": "BikeChain",
  "abi": [
    {
      "constant": false,
      "inputs": [
        {
          "name": "_frameNumber",
          "type": "string"
        }
      ],
      "name": "reportFound",
      "outputs": [],
      "payable": false,
      "stateMutability": "nonpayable",
      "type": "function"
    },
    {
      "constant": true,
      "inputs": [],
      "name": "name",
      "outputs": [
        {
          "name": "",
          "type": "string"
        }
      ],
      "payable": false,
      "stateMutability": "view",
      "type": "function"
    },
    {
      "constant": false,
      "inputs": [
        {
          "name": "_to",
          "type": "address"
        },
        {
          "name": "_frameNumber",
          "type": "string"
        }
      ],
      "name": "transfer",
      "outputs": [],
      "payable": false,
      "stateMutability": "nonpayable",
      "type": "function"
    },
    {
      "constant": true,
      "inputs": [],
      "name": "totalSupply",
      "outputs": [
        {
          "name": "",
          "type": "uint256"
        }
      ],
      "payable": false,
      "stateMutability": "view",
      "type": "function"
    },
    {
      "constant": false,
      "inputs": [
        {
          "name": "_frameNumber",
          "type": "string"
        },
        {
          "name": "_newOwner",
          "type": "address"
        },
        {
          "name": "_cID",
          "type": "uint256"
        }
      ],
      "name": "transferOwner",
      "outputs": [],
      "payable": false,
      "stateMutability": "nonpayable",
      "type": "function"
    },
    {
      "constant": false,
      "inputs": [
        {
          "name": "_to",
          "type": "address"
        },
        {
          "name": "_frameNumber",
          "type": "string"
        }
      ],
      "name": "approve",
      "outputs": [],
      "payable": false,
      "stateMutability": "nonpayable",
      "type": "function"
    },
    {
      "constant": true,
      "inputs": [
        {
          "name": "_owner",
          "type": "address"
        },
        {
          "name": "_index",
          "type": "uint256"
        }
      ],
      "name": "getFrameNumber",
      "outputs": [
        {
          "name": "frameNumber",
          "type": "string"
        }
      ],
      "payable": false,
      "stateMutability": "view",
      "type": "function"
    },
    {
      "constant": true,
      "inputs": [
        {
          "name": "_owner",
          "type": "address"
        },
        {
          "name": "_index",
          "type": "uint256"
        }
      ],
      "name": "tokenOfOwnerByIndex",
      "outputs": [
        {
          "name": "frameNumber",
          "type": "string"
        }
      ],
      "payable": false,
      "stateMutability": "view",
      "type": "function"
    },
    {
      "constant": true,
      "inputs": [],
      "name": "getCompanyLength",
      "outputs": [
        {
          "name": "len",
          "type": "uint256"
        }
      ],
      "payable": false,
      "stateMutability": "view",
      "type": "function"
    },
    {
      "constant": false,
      "inputs": [
        {
          "name": "_cID",
          "type": "uint256"
        }
      ],
      "name": "removeCompany",
      "outputs": [],
      "payable": false,
      "stateMutability": "nonpayable",
      "type": "function"
    },
    {
      "constant": true,
      "inputs": [],
      "name": "getAdminSwitch",
      "outputs": [
        {
          "name": "",
          "type": "bool"
        }
      ],
      "payable": false,
      "stateMutability": "view",
      "type": "function"
    },
    {
      "constant": false,
      "inputs": [
        {
          "name": "_status",
          "type": "bool"
        }
      ],
      "name": "changeAdminSwitch",
      "outputs": [
        {
          "name": "",
          "type": "bool"
        }
      ],
      "payable": false,
      "stateMutability": "nonpayable",
      "type": "function"
    },
    {
      "constant": true,
      "inputs": [
        {
          "name": "_frameNumber",
          "type": "string"
        }
      ],
      "name": "getOwner",
      "outputs": [
        {
          "name": "owner",
          "type": "address"
        }
      ],
      "payable": false,
      "stateMutability": "view",
      "type": "function"
    },
    {
      "constant": false,
      "inputs": [
        {
          "name": "_to",
          "type": "address"
        },
        {
          "name": "_value",
          "type": "uint256"
        }
      ],
      "name": "withdrawEther",
      "outputs": [],
      "payable": false,
      "stateMutability": "nonpayable",
      "type": "function"
    },
    {
      "constant": true,
      "inputs": [
        {
          "name": "_cID",
          "type": "uint256"
        }
      ],
      "name": "getCompany",
      "outputs": [
        {
          "name": "co",
          "type": "address"
        }
      ],
      "payable": false,
      "stateMutability": "view",
      "type": "function"
    },
    {
      "constant": true,
      "inputs": [],
      "name": "getRegistrationPrice",
      "outputs": [
        {
          "name": "",
          "type": "uint256"
        }
      ],
      "payable": false,
      "stateMutability": "view",
      "type": "function"
    },
    {
      "constant": false,
      "inputs": [
        {
          "name": "_newCompany",
          "type": "address"
        }
      ],
      "name": "addCompany",
      "outputs": [
        {
          "name": "newcID",
          "type": "uint256"
        }
      ],
      "payable": false,
      "stateMutability": "nonpayable",
      "type": "function"
    },
    {
      "constant": true,
      "inputs": [
        {
          "name": "_frameNumber",
          "type": "string"
        }
      ],
      "name": "getBike",
      "outputs": [
        {
          "name": "owner",
          "type": "address"
        },
        {
          "name": "make",
          "type": "string"
        },
        {
          "name": "model",
          "type": "string"
        },
        {
          "name": "year",
          "type": "uint16"
        },
        {
          "name": "size",
          "type": "uint8"
        },
        {
          "name": "colour",
          "type": "string"
        },
        {
          "name": "features",
          "type": "string"
        },
        {
          "name": "details",
          "type": "string"
        },
        {
          "name": "stolen",
          "type": "bool"
        },
        {
          "name": "found",
          "type": "bool"
        }
      ],
      "payable": false,
      "stateMutability": "view",
      "type": "function"
    },
    {
      "constant": true,
      "inputs": [
        {
          "name": "_owner",
          "type": "address"
        }
      ],
      "name": "balanceOf",
      "outputs": [
        {
          "name": "",
          "type": "uint256"
        }
      ],
      "payable": false,
      "stateMutability": "view",
      "type": "function"
    },
    {
      "constant": true,
      "inputs": [],
      "name": "getEthBalance",
      "outputs": [
        {
          "name": "",
          "type": "uint256"
        }
      ],
      "payable": false,
      "stateMutability": "view",
      "type": "function"
    },
    {
      "constant": false,
      "inputs": [
        {
          "name": "_frameNumber",
          "type": "string"
        }
      ],
      "name": "reportNotFound",
      "outputs": [],
      "payable": false,
      "stateMutability": "nonpayable",
      "type": "function"
    },
    {
      "constant": true,
      "inputs": [],
      "name": "getCompanyID",
      "outputs": [
        {
          "name": "id",
          "type": "uint256"
        }
      ],
      "payable": false,
      "stateMutability": "view",
      "type": "function"
    },
    {
      "constant": false,
      "inputs": [
        {
          "name": "_frameNumber",
          "type": "string"
        }
      ],
      "name": "reportReturned",
      "outputs": [],
      "payable": false,
      "stateMutability": "nonpayable",
      "type": "function"
    },
    {
      "constant": false,
      "inputs": [
        {
          "name": "_frameNumber",
          "type": "string"
        }
      ],
      "name": "takeOwnership",
      "outputs": [],
      "payable": false,
      "stateMutability": "nonpayable",
      "type": "function"
    },
    {
      "constant": false,
      "inputs": [
        {
          "name": "_name",
          "type": "string"
        },
        {
          "name": "_email",
          "type": "string"
        },
        {
          "name": "_phone",
          "type": "string"
        }
      ],
      "name": "addContactDetails",
      "outputs": [],
      "payable": false,
      "stateMutability": "nonpayable",
      "type": "function"
    },
    {
      "constant": false,
      "inputs": [
        {
          "name": "_frameNumber",
          "type": "string"
        },
        {
          "name": "_details",
          "type": "string"
        }
      ],
      "name": "reportStolen",
      "outputs": [],
      "payable": false,
      "stateMutability": "nonpayable",
      "type": "function"
    },
    {
      "constant": true,
      "inputs": [
        {
          "name": "_frameNumber",
          "type": "string"
        }
      ],
      "name": "ownerOf",
      "outputs": [
        {
          "name": "",
          "type": "address"
        }
      ],
      "payable": false,
      "stateMutability": "view",
      "type": "function"
    },
    {
      "constant": true,
      "inputs": [],
      "name": "symbol",
      "outputs": [
        {
          "name": "",
          "type": "string"
        }
      ],
      "payable": false,
      "stateMutability": "view",
      "type": "function"
    },
    {
      "constant": false,
      "inputs": [
        {
          "name": "_frameNumber",
          "type": "string"
        },
        {
          "name": "_cID",
          "type": "uint256"
        }
      ],
      "name": "removeBike",
      "outputs": [],
      "payable": false,
      "stateMutability": "nonpayable",
      "type": "function"
    },
    {
      "constant": false,
      "inputs": [
        {
          "name": "_frameNumber",
          "type": "string"
        },
        {
          "name": "_make",
          "type": "string"
        },
        {
          "name": "_model",
          "type": "string"
        },
        {
          "name": "_year",
          "type": "uint16"
        },
        {
          "name": "_size",
          "type": "uint8"
        },
        {
          "name": "_colour",
          "type": "string"
        },
        {
          "name": "_features",
          "type": "string"
        },
        {
          "name": "_infoUrl",
          "type": "string"
        },
        {
          "name": "_cID",
          "type": "uint256"
        }
      ],
      "name": "addBike",
      "outputs": [],
      "payable": true,
      "stateMutability": "payable",
      "type": "function"
    },
    {
      "constant": false,
      "inputs": [
        {
          "name": "_newOwner",
          "type": "address"
        }
      ],
      "name": "changeOwner",
      "outputs": [],
      "payable": false,
      "stateMutability": "nonpayable",
      "type": "function"
    },
    {
      "constant": true,
      "inputs": [
        {
          "name": "_owner",
          "type": "address"
        },
        {
          "name": "_frameNumber",
          "type": "string"
        }
      ],
      "name": "getFrameIndex",
      "outputs": [
        {
          "name": "i",
          "type": "uint256"
        }
      ],
      "payable": false,
      "stateMutability": "view",
      "type": "function"
    },
    {
      "constant": true,
      "inputs": [
        {
          "name": "_frameNumber",
          "type": "string"
        }
      ],
      "name": "tokenMetadata",
      "outputs": [
        {
          "name": "",
          "type": "string"
        }
      ],
      "payable": false,
      "stateMutability": "view",
      "type": "function"
    },
    {
      "constant": true,
      "inputs": [
        {
          "name": "_owner",
          "type": "address"
        }
      ],
      "name": "getContactDetails",
      "outputs": [
        {
          "name": "contactName",
          "type": "string"
        },
        {
          "name": "email",
          "type": "string"
        },
        {
          "name": "phone",
          "type": "string"
        }
      ],
      "payable": false,
      "stateMutability": "view",
      "type": "function"
    },
    {
      "constant": false,
      "inputs": [
        {
          "name": "_frameNumber",
          "type": "string"
        },
        {
          "name": "_infoUrl",
          "type": "string"
        }
      ],
      "name": "updateTokenMetadata",
      "outputs": [],
      "payable": false,
      "stateMutability": "nonpayable",
      "type": "function"
    },
    {
      "constant": true,
      "inputs": [
        {
          "name": "",
          "type": "uint256"
        }
      ],
      "name": "company",
      "outputs": [
        {
          "name": "",
          "type": "address"
        }
      ],
      "payable": false,
      "stateMutability": "view",
      "type": "function"
    },
    {
      "inputs": [],
      "payable": false,
      "stateMutability": "nonpayable",
      "type": "constructor"
    },
    {
      "payable": true,
      "stateMutability": "payable",
      "type": "fallback"
    },
    {
      "anonymous": false,
      "inputs": [
        {
          "indexed": false,
          "name": "owner",
          "type": "address"
        },
        {
          "indexed": false,
          "name": "to",
          "type": "address"
        },
        {
          "indexed": false,
          "name": "frameNumber",
          "type": "string"
        }
      ],
      "name": "Approval",
      "type": "event"
    },
    {
      "anonymous": false,
      "inputs": [
        {
          "indexed": false,
          "name": "frameNumber",
          "type": "string"
        }
      ],
      "name": "BikeCreated",
      "type": "event"
    },
    {
      "anonymous": false,
      "inputs": [
        {
          "indexed": false,
          "name": "company",
          "type": "address"
        },
        {
          "indexed": false,
          "name": "owner",
          "type": "address"
        },
        {
          "indexed": false,
          "name": "frameNumber",
          "type": "string"
        }
      ],
      "name": "BikeRemoved",
      "type": "event"
    },
    {
      "anonymous": false,
      "inputs": [
        {
          "indexed": false,
          "name": "from",
          "type": "address"
        },
        {
          "indexed": false,
          "name": "to",
          "type": "address"
        },
        {
          "indexed": false,
          "name": "frameNumber",
          "type": "string"
        }
      ],
      "name": "BikeTransfered",
      "type": "event"
    },
    {
      "anonymous": false,
      "inputs": [
        {
          "indexed": false,
          "name": "frameNumber",
          "type": "string"
        },
        {
          "indexed": false,
          "name": "details",
          "type": "string"
        }
      ],
      "name": "BikeStolen",
      "type": "event"
    },
    {
      "anonymous": false,
      "inputs": [
        {
          "indexed": false,
          "name": "finder",
          "type": "address"
        },
        {
          "indexed": false,
          "name": "frameNumber",
          "type": "string"
        }
      ],
      "name": "BikeFound",
      "type": "event"
    },
    {
      "anonymous": false,
      "inputs": [
        {
          "indexed": false,
          "name": "finder",
          "type": "address"
        },
        {
          "indexed": false,
          "name": "frameNumber",
          "type": "string"
        }
      ],
      "name": "BikeNotFound",
      "type": "event"
    },
    {
      "anonymous": false,
      "inputs": [
        {
          "indexed": false,
          "name": "owner",
          "type": "address"
        },
        {
          "indexed": false,
          "name": "frameNumber",
          "type": "string"
        }
      ],
      "name": "BikeReturned",
      "type": "event"
    },
    {
      "anonymous": false,
      "inputs": [
        {
          "indexed": false,
          "name": "admin",
          "type": "address"
        },
        {
          "indexed": false,
          "name": "company",
          "type": "address"
        },
        {
          "indexed": false,
          "name": "cID",
          "type": "uint256"
        }
      ],
      "name": "CompanyAdded",
      "type": "event"
    },
    {
      "anonymous": false,
      "inputs": [
        {
          "indexed": false,
          "name": "admin",
          "type": "address"
        },
        {
          "indexed": false,
          "name": "company",
          "type": "address"
        },
        {
          "indexed": false,
          "name": "cID",
          "type": "uint256"
        }
      ],
      "name": "CompanyRemoved",
      "type": "event"
    },
    {
      "anonymous": false,
      "inputs": [
        {
          "indexed": false,
          "name": "from",
          "type": "address"
        },
        {
          "indexed": false,
          "name": "to",
          "type": "address"
        }
      ],
      "name": "OwnerChanged",
      "type": "event"
    },
    {
      "anonymous": false,
      "inputs": [
        {
          "indexed": false,
          "name": "from",
          "type": "address"
        },
        {
          "indexed": false,
          "name": "to",
          "type": "address"
        },
        {
          "indexed": false,
          "name": "value",
          "type": "uint256"
        }
      ],
      "name": "EtherWithdrawn",
      "type": "event"
    },
    {
      "anonymous": false,
      "inputs": [
        {
          "indexed": false,
          "name": "status",
          "type": "bool"
        }
      ],
      "name": "AdminSwitchChanged",
      "type": "event"
    },
    {
      "anonymous": false,
      "inputs": [
        {
          "indexed": false,
          "name": "owner",
          "type": "address"
        },
        {
          "indexed": false,
          "name": "name",
          "type": "string"
        },
        {
          "indexed": false,
          "name": "email",
          "type": "string"
        },
        {
          "indexed": false,
          "name": "phone",
          "type": "string"
        }
      ],
      "name": "ContactDetailsAdded",
      "type": "event"
    }
  ],
  "bytecode": "0x606060405234156200001057600080fd5b6006805480919060010162000026919062000155565b5033600660008154811015156200003957fe5b906000526020600020900160006101000a81548173ffffffffffffffffffffffffffffffffffffffff021916908373ffffffffffffffffffffffffffffffffffffffff160217905550662386f26fc100006005819055506000600460006101000a81548160ff0219169083151502179055506040805190810160405280600a81526020017f42696b652d546f6b656e0000000000000000000000000000000000000000000081525060019080519060200190620000f892919062000184565b506040805190810160405280600481526020017ff09f9ab200000000000000000000000000000000000000000000000000000000815250600290805190602001906200014692919062000184565b50600060038190555062000233565b8154818355818115116200017f578183600052602060002091820191016200017e91906200020b565b5b505050565b828054600181600116156101000203166002900490600052602060002090601f016020900481019282601f10620001c757805160ff1916838001178555620001f8565b82800160010185558215620001f8579182015b82811115620001f7578251825591602001919060010190620001da565b5b5090506200020791906200020b565b5090565b6200023091905b808211156200022c57600081600090555060010162000212565b5090565b90565b61585780620002436000396000f3006060604052600436106101c2576000357c0100000000000000000000000000000000000000000000000000000000900463ffffffff168063046e30da146101c457806306fdde031461022157806309886649146102af57806318160ddd1461032b578063197950aa1461035457806329cd00f7146103d95780632a394a97146104555780632f745c591461051057806334aac07d146105cb5780633f21d44c146105f4578063444ff68b1461061757806348471dbb146106445780634aaf4a1214610681578063522f68151461071e57806357d139171461076057806362e59b2b146107c3578063634513ca146107ec57806364c9f3881461083957806370a0823114610b2457806370ed0ada14610b7157806373d27bb514610b9a57806375adf9d414610bf757806382beeb3b14610c205780638945b1fc14610c7d5780638c98234914610cda57806391904ff814610dbd578063920ffa2614610e5d57806395d89b4114610efa5780639f6d569714610f88578063a016045514610fee578063a6f9dae1146111b1578063a70c53bd146111ea578063b1e1ff3a1461127a578063cf3dcea614611350578063e5442026146114da578063eacebba31461157a575b005b34156101cf57600080fd5b61021f600480803590602001908201803590602001908080601f016020809104026020016040519081016040528093929190818152602001838380828437820191505050505050919050506115dd565b005b341561022c57600080fd5b6102346117be565b6040518080602001828103825283818151815260200191508051906020019080838360005b83811015610274578082015181840152602081019050610259565b50505050905090810190601f1680156102a15780820380516001836020036101000a031916815260200191505b509250505060405180910390f35b34156102ba57600080fd5b610329600480803573ffffffffffffffffffffffffffffffffffffffff1690602001909190803590602001908201803590602001908080601f01602080910402602001604051908101604052809392919081815260200183838082843782019150505050505091905050611866565b005b341561033657600080fd5b61033e611c8f565b6040518082815260200191505060405180910390f35b341561035f57600080fd5b6103d7600480803590602001908201803590602001908080601f0160208091040260200160405190810160405280939291908181526020018383808284378201915050505050509190803573ffffffffffffffffffffffffffffffffffffffff16906020019091908035906020019091905050611c99565b005b34156103e457600080fd5b610453600480803573ffffffffffffffffffffffffffffffffffffffff1690602001909190803590602001908201803590602001908080601f0160208091040260200160405190810160405280939291908181526020018383808284378201915050505050509190505061215f565b005b341561046057600080fd5b610495600480803573ffffffffffffffffffffffffffffffffffffffff169060200190919080359060200190919050506123db565b6040518080602001828103825283818151815260200191508051906020019080838360005b838110156104d55780820151818401526020810190506104ba565b50505050905090810190601f1680156105025780820380516001836020036101000a031916815260200191505b509250505060405180910390f35b341561051b57600080fd5b610550600480803573ffffffffffffffffffffffffffffffffffffffff1690602001909190803590602001909190505061252b565b6040518080602001828103825283818151815260200191508051906020019080838360005b83811015610590578082015181840152602081019050610575565b50505050905090810190601f1680156105bd5780820380516001836020036101000a031916815260200191505b509250505060405180910390f35b34156105d657600080fd5b6105de612651565b6040518082815260200191505060405180910390f35b34156105ff57600080fd5b610615600480803590602001909190505061265e565b005b341561062257600080fd5b61062a6128ec565b604051808215151515815260200191505060405180910390f35b341561064f57600080fd5b61066760048080351515906020019091905050612903565b604051808215151515815260200191505060405180910390f35b341561068c57600080fd5b6106dc600480803590602001908201803590602001908080601f016020809104026020016040519081016040528093929190818152602001838380828437820191505050505050919050506129e6565b604051808273ffffffffffffffffffffffffffffffffffffffff1673ffffffffffffffffffffffffffffffffffffffff16815260200191505060405180910390f35b341561072957600080fd5b61075e600480803573ffffffffffffffffffffffffffffffffffffffff16906020019091908035906020019091905050612a7e565b005b341561076b57600080fd5b6107816004808035906020019091905050612bd6565b604051808273ffffffffffffffffffffffffffffffffffffffff1673ffffffffffffffffffffffffffffffffffffffff16815260200191505060405180910390f35b34156107ce57600080fd5b6107d6612c2d565b6040518082815260200191505060405180910390f35b34156107f757600080fd5b610823600480803573ffffffffffffffffffffffffffffffffffffffff16906020019091905050612c37565b6040518082815260200191505060405180910390f35b341561084457600080fd5b610894600480803590602001908201803590602001908080601f01602080910402602001604051908101604052809392919081815260200183838082843782019150505050505091905050612dfc565b604051808b73ffffffffffffffffffffffffffffffffffffffff1673ffffffffffffffffffffffffffffffffffffffff16815260200180602001806020018a61ffff1661ffff1681526020018960ff1660ff168152602001806020018060200180602001881515151581526020018715151515815260200186810386528f818151815260200191508051906020019080838360005b83811015610944578082015181840152602081019050610929565b50505050905090810190601f1680156109715780820380516001836020036101000a031916815260200191505b5086810385528e818151815260200191508051906020019080838360005b838110156109aa57808201518184015260208101905061098f565b50505050905090810190601f1680156109d75780820380516001836020036101000a031916815260200191505b5086810384528b818151815260200191508051906020019080838360005b83811015610a105780820151818401526020810190506109f5565b50505050905090810190601f168015610a3d5780820380516001836020036101000a031916815260200191505b5086810383528a818151815260200191508051906020019080838360005b83811015610a76578082015181840152602081019050610a5b565b50505050905090810190601f168015610aa35780820380516001836020036101000a031916815260200191505b50868103825289818151815260200191508051906020019080838360005b83811015610adc578082015181840152602081019050610ac1565b50505050905090810190601f168015610b095780820380516001836020036101000a031916815260200191505b509f5050505050505050505050505050505060405180910390f35b3415610b2f57600080fd5b610b5b600480803573ffffffffffffffffffffffffffffffffffffffff1690602001909190505061323c565b6040518082815260200191505060405180910390f35b3415610b7c57600080fd5b610b84613288565b6040518082815260200191505060405180910390f35b3415610ba557600080fd5b610bf5600480803590602001908201803590602001908080601f016020809104026020016040519081016040528093929190818152602001838380828437820191505050505050919050506132a7565b005b3415610c0257600080fd5b610c0a6134cb565b6040518082815260200191505060405180910390f35b3415610c2b57600080fd5b610c7b600480803590602001908201803590602001908080601f0160208091040260200160405190810160405280939291908181526020018383808284378201915050505050509190505061356f565b005b3415610c8857600080fd5b610cd8600480803590602001908201803590602001908080601f016020809104026020016040519081016040528093929190818152602001838380828437820191505050505050919050506138c4565b005b3415610ce557600080fd5b610dbb600480803590602001908201803590602001908080601f0160208091040260200160405190810160405280939291908181526020018383808284378201915050505050509190803590602001908201803590602001908080601f0160208091040260200160405190810160405280939291908181526020018383808284378201915050505050509190803590602001908201803590602001908080601f01602080910402602001604051908101604052809392919081815260200183838082843782019150505050505091905050613d56565b005b3415610dc857600080fd5b610e5b600480803590602001908201803590602001908080601f0160208091040260200160405190810160405280939291908181526020018383808284378201915050505050509190803590602001908201803590602001908080601f01602080910402602001604051908101604052809392919081815260200183838082843782019150505050505091905050614007565b005b3415610e6857600080fd5b610eb8600480803590602001908201803590602001908080601f0160208091040260200160405190810160405280939291908181526020018383808284378201915050505050509190505061426b565b604051808273ffffffffffffffffffffffffffffffffffffffff1673ffffffffffffffffffffffffffffffffffffffff16815260200191505060405180910390f35b3415610f0557600080fd5b610f0d6143b6565b6040518080602001828103825283818151815260200191508051906020019080838360005b83811015610f4d578082015181840152602081019050610f32565b50505050905090810190601f168015610f7a5780820380516001836020036101000a031916815260200191505b509250505060405180910390f35b3415610f9357600080fd5b610fec600480803590602001908201803590602001908080601f0160208091040260200160405190810160405280939291908181526020018383808284378201915050505050509190803590602001909190505061445e565b005b6111af600480803590602001908201803590602001908080601f0160208091040260200160405190810160405280939291908181526020018383808284378201915050505050509190803590602001908201803590602001908080601f0160208091040260200160405190810160405280939291908181526020018383808284378201915050505050509190803590602001908201803590602001908080601f0160208091040260200160405190810160405280939291908181526020018383808284378201915050505050509190803561ffff1690602001909190803560ff1690602001909190803590602001908201803590602001908080601f0160208091040260200160405190810160405280939291908181526020018383808284378201915050505050509190803590602001908201803590602001908080601f0160208091040260200160405190810160405280939291908181526020018383808284378201915050505050509190803590602001908201803590602001908080601f016020809104026020016040519081016040528093929190818152602001838380828437820191505050505050919080359060200190919050506149c2565b005b34156111bc57600080fd5b6111e8600480803573ffffffffffffffffffffffffffffffffffffffff16906020019091905050614dec565b005b34156111f557600080fd5b611264600480803573ffffffffffffffffffffffffffffffffffffffff1690602001909190803590602001908201803590602001908080601f01602080910402602001604051908101604052809392919081815260200183838082843782019150505050505091905050614f55565b6040518082815260200191505060405180910390f35b341561128557600080fd5b6112d5600480803590602001908201803590602001908080601f016020809104026020016040519081016040528093929190818152602001838380828437820191505050505050919050506150c6565b6040518080602001828103825283818151815260200191508051906020019080838360005b838110156113155780820151818401526020810190506112fa565b50505050905090810190601f1680156113425780820380516001836020036101000a031916815260200191505b509250505060405180910390f35b341561135b57600080fd5b611387600480803573ffffffffffffffffffffffffffffffffffffffff169060200190919050506151dc565b60405180806020018060200180602001848103845287818151815260200191508051906020019080838360005b838110156113cf5780820151818401526020810190506113b4565b50505050905090810190601f1680156113fc5780820380516001836020036101000a031916815260200191505b50848103835286818151815260200191508051906020019080838360005b8381101561143557808201518184015260208101905061141a565b50505050905090810190601f1680156114625780820380516001836020036101000a031916815260200191505b50848103825285818151815260200191508051906020019080838360005b8381101561149b578082015181840152602081019050611480565b50505050905090810190601f1680156114c85780820380516001836020036101000a031916815260200191505b50965050505050505060405180910390f35b34156114e557600080fd5b611578600480803590602001908201803590602001908080601f0160208091040260200160405190810160405280939291908181526020018383808284378201915050505050509190803590602001908201803590602001908080601f0160208091040260200160405190810160405280939291908181526020018383808284378201915050505050509190505061548f565b005b341561158557600080fd5b61159b60048080359060200190919050506155e0565b604051808273ffffffffffffffffffffffffffffffffffffffff1673ffffffffffffffffffffffffffffffffffffffff16815260200191505060405180910390f35b6007816040518082805190602001908083835b60208310151561161557805182526020820191506020810190506020830392506115f0565b6001836020036101000a038019825116818451168082178552505050505050905001915050908152602001604051809103902060070160009054906101000a900460ff16151561166457600080fd5b60016007826040518082805190602001908083835b60208310151561169e5780518252602082019150602081019050602083039250611679565b6001836020036101000a038019825116818451168082178552505050505050905001915050908152602001604051809103902060070160016101000a81548160ff0219169083151502179055507fa3d914572a080b0a1e7fd9adea5dd68a4094164d8005d2e23402395627e7563e3382604051808373ffffffffffffffffffffffffffffffffffffffff1673ffffffffffffffffffffffffffffffffffffffff16815260200180602001828103825283818151815260200191508051906020019080838360005b83811015611780578082015181840152602081019050611765565b50505050905090810190601f1680156117ad5780820380516001836020036101000a031916815260200191505b50935050505060405180910390a150565b6117c661561f565b60018054600181600116156101000203166002900480601f01602080910402602001604051908101604052809291908181526020018280546001816001161561010002031660029004801561185c5780601f106118315761010080835404028352916020019161185c565b820191906000526020600020905b81548152906001019060200180831161183f57829003601f168201915b5050505050905090565b6000806000833373ffffffffffffffffffffffffffffffffffffffff166007826040518082805190602001908083835b6020831015156118bb5780518252602082019150602081019050602083039250611896565b6001836020036101000a038019825116818451168082178552505050505050905001915050908152602001604051809103902060000160009054906101000a900473ffffffffffffffffffffffffffffffffffffffff1673ffffffffffffffffffffffffffffffffffffffff1614151561193457600080fd5b60008673ffffffffffffffffffffffffffffffffffffffff161415151561195a57600080fd5b600860008773ffffffffffffffffffffffffffffffffffffffff1673ffffffffffffffffffffffffffffffffffffffff16815260200190815260200160002080548060010182816119ab9190615633565b9160005260206000209001600087909190915090805190602001906119d192919061565f565b5050856007866040518082805190602001908083835b602083101515611a0c57805182526020820191506020810190506020830392506119e7565b6001836020036101000a038019825116818451168082178552505050505050905001915050908152602001604051809103902060000160006101000a81548173ffffffffffffffffffffffffffffffffffffffff021916908373ffffffffffffffffffffffffffffffffffffffff160217905550600860003373ffffffffffffffffffffffffffffffffffffffff1673ffffffffffffffffffffffffffffffffffffffff1681526020019081526020016000209350611acb3386614f55565b92508291505b6001848054905003821015611b42578360018301815481101515611af157fe5b90600052602060002090018483815481101515611b0a57fe5b90600052602060002090019080546001816001161561010002031660029004611b349291906156df565b508180600101925050611ad1565b836001858054905003815481101515611b5757fe5b90600052602060002090016000611b6e9190615766565b83805480919060019003611b829190615633565b507f716758ace00c258050b51a9a3cf0b6c3141dd6b0808840b4a82a9f1aea7d2179338787604051808473ffffffffffffffffffffffffffffffffffffffff1673ffffffffffffffffffffffffffffffffffffffff1681526020018373ffffffffffffffffffffffffffffffffffffffff1673ffffffffffffffffffffffffffffffffffffffff16815260200180602001828103825283818151815260200191508051906020019080838360005b83811015611c4b578082015181840152602081019050611c30565b50505050905090810190601f168015611c785780820380516001836020036101000a031916815260200191505b5094505050505060405180910390a1505050505050565b6000600354905090565b600080600083866000809050600460009054906101000a900460ff1615611d2e57600683815481101515611cc957fe5b906000526020600020900160009054906101000a900473ffffffffffffffffffffffffffffffffffffffff1673ffffffffffffffffffffffffffffffffffffffff163373ffffffffffffffffffffffffffffffffffffffff161415611d2d57600190505b5b3373ffffffffffffffffffffffffffffffffffffffff166007836040518082805190602001908083835b602083101515611d7d5780518252602082019150602081019050602083039250611d58565b6001836020036101000a038019825116818451168082178552505050505050905001915050908152602001604051809103902060000160009054906101000a900473ffffffffffffffffffffffffffffffffffffffff1673ffffffffffffffffffffffffffffffffffffffff161415611df557600190505b801515611e0157600080fd5b60008873ffffffffffffffffffffffffffffffffffffffff1614151515611e2757600080fd5b600860008973ffffffffffffffffffffffffffffffffffffffff1673ffffffffffffffffffffffffffffffffffffffff1681526020019081526020016000208054806001018281611e789190615633565b916000526020600020900160008b90919091509080519060200190611e9e92919061565f565b50508760078a6040518082805190602001908083835b602083101515611ed95780518252602082019150602081019050602083039250611eb4565b6001836020036101000a038019825116818451168082178552505050505050905001915050908152602001604051809103902060000160006101000a81548173ffffffffffffffffffffffffffffffffffffffff021916908373ffffffffffffffffffffffffffffffffffffffff160217905550600860003373ffffffffffffffffffffffffffffffffffffffff1673ffffffffffffffffffffffffffffffffffffffff1681526020019081526020016000209550611f98338a614f55565b94508493505b600186805490500384101561200f578560018501815481101515611fbe57fe5b90600052602060002090018685815481101515611fd757fe5b906000526020600020900190805460018160011615610100020316600290046120019291906156df565b508380600101945050611f9e565b85600187805490500381548110151561202457fe5b9060005260206000209001600061203b9190615766565b8580548091906001900361204f9190615633565b507f716758ace00c258050b51a9a3cf0b6c3141dd6b0808840b4a82a9f1aea7d217933898b604051808473ffffffffffffffffffffffffffffffffffffffff1673ffffffffffffffffffffffffffffffffffffffff1681526020018373ffffffffffffffffffffffffffffffffffffffff1673ffffffffffffffffffffffffffffffffffffffff16815260200180602001828103825283818151815260200191508051906020019080838360005b838110156121185780820151818401526020810190506120fd565b50505050905090810190601f1680156121455780820380516001836020036101000a031916815260200191505b5094505050505060405180910390a1505050505050505050565b803373ffffffffffffffffffffffffffffffffffffffff166007826040518082805190602001908083835b6020831015156121af578051825260208201915060208101905060208303925061218a565b6001836020036101000a038019825116818451168082178552505050505050905001915050908152602001604051809103902060000160009054906101000a900473ffffffffffffffffffffffffffffffffffffffff1673ffffffffffffffffffffffffffffffffffffffff1614151561222857600080fd5b826009836040518082805190602001908083835b602083101515612261578051825260208201915060208101905060208303925061223c565b6001836020036101000a038019825116818451168082178552505050505050905001915050908152602001604051809103902060006101000a81548173ffffffffffffffffffffffffffffffffffffffff021916908373ffffffffffffffffffffffffffffffffffffffff1602179055507f1f84ad2a44b444ff59c84b14c29a0515df82fffbd26a5a923e601d8302872c91338484604051808473ffffffffffffffffffffffffffffffffffffffff1673ffffffffffffffffffffffffffffffffffffffff1681526020018373ffffffffffffffffffffffffffffffffffffffff1673ffffffffffffffffffffffffffffffffffffffff16815260200180602001828103825283818151815260200191508051906020019080838360005b8381101561239a57808201518184015260208101905061237f565b50505050905090810190601f1680156123c75780820380516001836020036101000a031916815260200191505b5094505050505060405180910390a1505050565b6123e361561f565b600860008473ffffffffffffffffffffffffffffffffffffffff1673ffffffffffffffffffffffffffffffffffffffff168152602001908152602001600020805490508210151561243357600080fd5b600860008473ffffffffffffffffffffffffffffffffffffffff1673ffffffffffffffffffffffffffffffffffffffff1681526020019081526020016000208281548110151561247f57fe5b90600052602060002090018054600181600116156101000203166002900480601f01602080910402602001604051908101604052809291908181526020018280546001816001161561010002031660029004801561251e5780601f106124f35761010080835404028352916020019161251e565b820191906000526020600020905b81548152906001019060200180831161250157829003601f168201915b5050505050905092915050565b61253361561f565b61253c8361323c565b8210151561254957600080fd5b6000821015151561255957600080fd5b600860008473ffffffffffffffffffffffffffffffffffffffff1673ffffffffffffffffffffffffffffffffffffffff168152602001908152602001600020828154811015156125a557fe5b90600052602060002090018054600181600116156101000203166002900480601f0160208091040260200160405190810160405280929190818152602001828054600181600116156101000203166002900480156126445780601f1061261957610100808354040283529160200191612644565b820191906000526020600020905b81548152906001019060200180831161262757829003601f168201915b5050505050905092915050565b6000600680549050905090565b6000806006600081548110151561267157fe5b906000526020600020900160009054906101000a900473ffffffffffffffffffffffffffffffffffffffff1673ffffffffffffffffffffffffffffffffffffffff163373ffffffffffffffffffffffffffffffffffffffff161415156126d657600080fd5b600083141515156126e657600080fd5b600680549050831015156126f957600080fd5b60068381548110151561270857fe5b906000526020600020900160009054906101000a900473ffffffffffffffffffffffffffffffffffffffff1691508290505b6001600680549050038110156127ed5760066001820181548110151561275c57fe5b906000526020600020900160009054906101000a900473ffffffffffffffffffffffffffffffffffffffff1660068281548110151561279757fe5b906000526020600020900160006101000a81548173ffffffffffffffffffffffffffffffffffffffff021916908373ffffffffffffffffffffffffffffffffffffffff160217905550808060010191505061273a565b600660016006805490500381548110151561280457fe5b906000526020600020900160006101000a81549073ffffffffffffffffffffffffffffffffffffffff0219169055600680548091906001900361284791906157ae565b507f1a29bff2c9a646862adbe72e92424ef5fa20a24f885a26faa7f7d2a9b71fa85e338385604051808473ffffffffffffffffffffffffffffffffffffffff1673ffffffffffffffffffffffffffffffffffffffff1681526020018373ffffffffffffffffffffffffffffffffffffffff1673ffffffffffffffffffffffffffffffffffffffff168152602001828152602001935050505060405180910390a1505050565b6000600460009054906101000a900460ff16905090565b60006006600081548110151561291557fe5b906000526020600020900160009054906101000a900473ffffffffffffffffffffffffffffffffffffffff1673ffffffffffffffffffffffffffffffffffffffff163373ffffffffffffffffffffffffffffffffffffffff1614151561297a57600080fd5b81600460006101000a81548160ff0219169083151502179055507fb15835f532553a7dcdf4cbc59c564c64117be3bc8d5326de801b7ae7b32596fe82604051808215151515815260200191505060405180910390a1600460009054906101000a900460ff169050919050565b60006007826040518082805190602001908083835b602083101515612a2057805182526020820191506020810190506020830392506129fb565b6001836020036101000a038019825116818451168082178552505050505050905001915050908152602001604051809103902060000160009054906101000a900473ffffffffffffffffffffffffffffffffffffffff169050919050565b60066000815481101515612a8e57fe5b906000526020600020900160009054906101000a900473ffffffffffffffffffffffffffffffffffffffff1673ffffffffffffffffffffffffffffffffffffffff163373ffffffffffffffffffffffffffffffffffffffff16141515612af357600080fd5b8173ffffffffffffffffffffffffffffffffffffffff166108fc829081150290604051600060405180830381858888f193505050501515612b3357600080fd5b7fb6f5e376ce04408a9cc850b6a02cd39fecd40e07a27f2d0fef9bfee119dd5ee6338383604051808473ffffffffffffffffffffffffffffffffffffffff1673ffffffffffffffffffffffffffffffffffffffff1681526020018373ffffffffffffffffffffffffffffffffffffffff1673ffffffffffffffffffffffffffffffffffffffff168152602001828152602001935050505060405180910390a15050565b600060068054905082101515612beb57600080fd5b600682815481101515612bfa57fe5b906000526020600020900160009054906101000a900473ffffffffffffffffffffffffffffffffffffffff169050919050565b6000600554905090565b600060066000815481101515612c4957fe5b906000526020600020900160009054906101000a900473ffffffffffffffffffffffffffffffffffffffff1673ffffffffffffffffffffffffffffffffffffffff163373ffffffffffffffffffffffffffffffffffffffff16141515612cae57600080fd5b60068054809190600101612cc291906157ae565b905081600682815481101515612cd457fe5b906000526020600020900160006101000a81548173ffffffffffffffffffffffffffffffffffffffff021916908373ffffffffffffffffffffffffffffffffffffffff1602179055507f413ee8b65d6bd98b0447a27e052163c1fb407a22fca5d3a14eb6009f4b033c4760066000815481101515612d4e57fe5b906000526020600020900160009054906101000a900473ffffffffffffffffffffffffffffffffffffffff168383604051808473ffffffffffffffffffffffffffffffffffffffff1673ffffffffffffffffffffffffffffffffffffffff1681526020018373ffffffffffffffffffffffffffffffffffffffff1673ffffffffffffffffffffffffffffffffffffffff168152602001828152602001935050505060405180910390a1919050565b6000612e0661561f565b612e0e61561f565b600080612e1961561f565b612e2161561f565b612e2961561f565b600080600060078c6040518082805190602001908083835b602083101515612e665780518252602082019150602081019050602083039250612e41565b6001836020036101000a038019825116818451168082178552505050505050905001915050908152602001604051809103902090508060000160009054906101000a900473ffffffffffffffffffffffffffffffffffffffff169a50806001018054600181600116156101000203166002900480601f016020809104026020016040519081016040528092919081815260200182805460018160011615610100020316600290048015612f5a5780601f10612f2f57610100808354040283529160200191612f5a565b820191906000526020600020905b815481529060010190602001808311612f3d57829003601f168201915b50505050509950806002018054600181600116156101000203166002900480601f016020809104026020016040519081016040528092919081815260200182805460018160011615610100020316600290048015612ff95780601f10612fce57610100808354040283529160200191612ff9565b820191906000526020600020905b815481529060010190602001808311612fdc57829003601f168201915b505050505098508060030160009054906101000a900461ffff1697508060030160029054906101000a900460ff169650806004018054600181600116156101000203166002900480601f0160208091040260200160405190810160405280929190818152602001828054600181600116156101000203166002900480156130c15780601f10613096576101008083540402835291602001916130c1565b820191906000526020600020905b8154815290600101906020018083116130a457829003601f168201915b50505050509550806005018054600181600116156101000203166002900480601f0160208091040260200160405190810160405280929190818152602001828054600181600116156101000203166002900480156131605780601f1061313557610100808354040283529160200191613160565b820191906000526020600020905b81548152906001019060200180831161314357829003601f168201915b50505050509450806006018054600181600116156101000203166002900480601f0160208091040260200160405190810160405280929190818152602001828054600181600116156101000203166002900480156131ff5780601f106131d4576101008083540402835291602001916131ff565b820191906000526020600020905b8154815290600101906020018083116131e257829003601f168201915b505050505093508060070160009054906101000a900460ff1692508060070160019054906101000a900460ff169150509193959799509193959799565b6000600860008373ffffffffffffffffffffffffffffffffffffffff1673ffffffffffffffffffffffffffffffffffffffff168152602001908152602001600020805490509050919050565b60003073ffffffffffffffffffffffffffffffffffffffff1631905090565b803373ffffffffffffffffffffffffffffffffffffffff166007826040518082805190602001908083835b6020831015156132f757805182526020820191506020810190506020830392506132d2565b6001836020036101000a038019825116818451168082178552505050505050905001915050908152602001604051809103902060000160009054906101000a900473ffffffffffffffffffffffffffffffffffffffff1673ffffffffffffffffffffffffffffffffffffffff1614151561337057600080fd5b60006007836040518082805190602001908083835b6020831015156133aa5780518252602082019150602081019050602083039250613385565b6001836020036101000a038019825116818451168082178552505050505050905001915050908152602001604051809103902060070160016101000a81548160ff0219169083151502179055507f4202624b0812e0998324706fa3926f9812c748aa0b2fb382d02b14a899e1b4633383604051808373ffffffffffffffffffffffffffffffffffffffff1673ffffffffffffffffffffffffffffffffffffffff16815260200180602001828103825283818151815260200191508051906020019080838360005b8381101561348c578082015181840152602081019050613471565b50505050905090810190601f1680156134b95780820380516001836020036101000a031916815260200191505b50935050505060405180910390a15050565b60008090505b60068054905081101561355e573373ffffffffffffffffffffffffffffffffffffffff1660068281548110151561350457fe5b906000526020600020900160009054906101000a900473ffffffffffffffffffffffffffffffffffffffff1673ffffffffffffffffffffffffffffffffffffffff1614156135515761356c565b80806001019150506134d1565b6000151561356b57600080fd5b5b90565b6000813373ffffffffffffffffffffffffffffffffffffffff166007826040518082805190602001908083835b6020831015156135c1578051825260208201915060208101905060208303925061359c565b6001836020036101000a038019825116818451168082178552505050505050905001915050908152602001604051809103902060000160009054906101000a900473ffffffffffffffffffffffffffffffffffffffff1673ffffffffffffffffffffffffffffffffffffffff1614151561363a57600080fd5b6007836040518082805190602001908083835b602083101515613672578051825260208201915060208101905060208303925061364d565b6001836020036101000a038019825116818451168082178552505050505050905001915050908152602001604051809103902060070160009054906101000a900460ff1615156136c157600080fd5b6007836040518082805190602001908083835b6020831015156136f957805182526020820191506020810190506020830392506136d4565b6001836020036101000a038019825116818451168082178552505050505050905001915050908152602001604051809103902060070160019054906101000a900460ff16151561374857600080fd5b6007836040518082805190602001908083835b602083101515613780578051825260208201915060208101905060208303925061375b565b6001836020036101000a0380198251168184511680821785525050505050509050019150509081526020016040518091039020915060008260070160006101000a81548160ff02191690831515021790555060008260070160016101000a81548160ff0219169083151502179055507f051b1d043fe0d8b7227ff37b4e92416cd52eba3b0b32b10168795ce1d77d74253384604051808373ffffffffffffffffffffffffffffffffffffffff1673ffffffffffffffffffffffffffffffffffffffff16815260200180602001828103825283818151815260200191508051906020019080838360005b83811015613884578082015181840152602081019050613869565b50505050905090810190601f1680156138b15780820380516001836020036101000a031916815260200191505b50935050505060405180910390a1505050565b600080600080843373ffffffffffffffffffffffffffffffffffffffff166009826040518082805190602001908083835b60208310151561391a57805182526020820191506020810190506020830392506138f5565b6001836020036101000a038019825116818451168082178552505050505050905001915050908152602001604051809103902060009054906101000a900473ffffffffffffffffffffffffffffffffffffffff1673ffffffffffffffffffffffffffffffffffffffff1614151561399057600080fd5b6007866040518082805190602001908083835b6020831015156139c857805182526020820191506020810190506020830392506139a3565b6001836020036101000a038019825116818451168082178552505050505050905001915050908152602001604051809103902060000160009054906101000a900473ffffffffffffffffffffffffffffffffffffffff169450600860003373ffffffffffffffffffffffffffffffffffffffff1673ffffffffffffffffffffffffffffffffffffffff1681526020019081526020016000208054806001018281613a729190615633565b916000526020600020900160008890919091509080519060200190613a9892919061565f565b5050336007876040518082805190602001908083835b602083101515613ad35780518252602082019150602081019050602083039250613aae565b6001836020036101000a038019825116818451168082178552505050505050905001915050908152602001604051809103902060000160006101000a81548173ffffffffffffffffffffffffffffffffffffffff021916908373ffffffffffffffffffffffffffffffffffffffff160217905550600860008673ffffffffffffffffffffffffffffffffffffffff1673ffffffffffffffffffffffffffffffffffffffff1681526020019081526020016000209350613b928587614f55565b92508291505b6001848054905003821015613c09578360018301815481101515613bb857fe5b90600052602060002090018483815481101515613bd157fe5b90600052602060002090019080546001816001161561010002031660029004613bfb9291906156df565b508180600101925050613b98565b836001858054905003815481101515613c1e57fe5b90600052602060002090016000613c359190615766565b83805480919060019003613c499190615633565b507f716758ace00c258050b51a9a3cf0b6c3141dd6b0808840b4a82a9f1aea7d2179853388604051808473ffffffffffffffffffffffffffffffffffffffff1673ffffffffffffffffffffffffffffffffffffffff1681526020018373ffffffffffffffffffffffffffffffffffffffff1673ffffffffffffffffffffffffffffffffffffffff16815260200180602001828103825283818151815260200191508051906020019080838360005b83811015613d12578082015181840152602081019050613cf7565b50505050905090810190601f168015613d3f5780820380516001836020036101000a031916815260200191505b5094505050505060405180910390a1505050505050565b826000803373ffffffffffffffffffffffffffffffffffffffff1673ffffffffffffffffffffffffffffffffffffffff1681526020019081526020016000206000019080519060200190613dab92919061565f565b50816000803373ffffffffffffffffffffffffffffffffffffffff1673ffffffffffffffffffffffffffffffffffffffff1681526020019081526020016000206001019080519060200190613e0192919061565f565b50806000803373ffffffffffffffffffffffffffffffffffffffff1673ffffffffffffffffffffffffffffffffffffffff1681526020019081526020016000206002019080519060200190613e5792919061565f565b507faa12444512445290b181c1cce08d320b5c4e97519242b6775fbe677ca0bd22c933848484604051808573ffffffffffffffffffffffffffffffffffffffff1673ffffffffffffffffffffffffffffffffffffffff168152602001806020018060200180602001848103845287818151815260200191508051906020019080838360005b83811015613ef7578082015181840152602081019050613edc565b50505050905090810190601f168015613f245780820380516001836020036101000a031916815260200191505b50848103835286818151815260200191508051906020019080838360005b83811015613f5d578082015181840152602081019050613f42565b50505050905090810190601f168015613f8a5780820380516001836020036101000a031916815260200191505b50848103825285818151815260200191508051906020019080838360005b83811015613fc3578082015181840152602081019050613fa8565b50505050905090810190601f168015613ff05780820380516001836020036101000a031916815260200191505b5097505050505050505060405180910390a1505050565b6000823373ffffffffffffffffffffffffffffffffffffffff166007826040518082805190602001908083835b6020831015156140595780518252602082019150602081019050602083039250614034565b6001836020036101000a038019825116818451168082178552505050505050905001915050908152602001604051809103902060000160009054906101000a900473ffffffffffffffffffffffffffffffffffffffff1673ffffffffffffffffffffffffffffffffffffffff161415156140d257600080fd5b6007846040518082805190602001908083835b60208310151561410a57805182526020820191506020810190506020830392506140e5565b6001836020036101000a0380198251168184511680821785525050505050509050019150509081526020016040518091039020915060018260070160006101000a81548160ff0219169083151502179055507fcf8c2bdfdea21b19585214891a7e55ae5272881ddfaa3a4fa6f8f3a71027de768484604051808060200180602001838103835285818151815260200191508051906020019080838360005b838110156141c35780820151818401526020810190506141a8565b50505050905090810190601f1680156141f05780820380516001836020036101000a031916815260200191505b50838103825284818151815260200191508051906020019080838360005b8381101561422957808201518184015260208101905061420e565b50505050905090810190601f1680156142565780820380516001836020036101000a031916815260200191505b5094505050505060405180910390a150505050565b6000806007836040518082805190602001908083835b6020831015156142a65780518252602082019150602081019050602083039250614281565b6001836020036101000a038019825116818451168082178552505050505050905001915050908152602001604051809103902060000160009054906101000a900473ffffffffffffffffffffffffffffffffffffffff1673ffffffffffffffffffffffffffffffffffffffff161415151561432057600080fd5b6007826040518082805190602001908083835b6020831015156143585780518252602082019150602081019050602083039250614333565b6001836020036101000a038019825116818451168082178552505050505050905001915050908152602001604051809103902060000160009054906101000a900473ffffffffffffffffffffffffffffffffffffffff169050919050565b6143be61561f565b60028054600181600116156101000203166002900480601f0160208091040260200160405190810160405280929190818152602001828054600181600116156101000203166002900480156144545780601f1061442957610100808354040283529160200191614454565b820191906000526020600020905b81548152906001019060200180831161443757829003601f168201915b5050505050905090565b60008060008084866000809050600460009054906101000a900460ff16156144f45760068381548110151561448f57fe5b906000526020600020900160009054906101000a900473ffffffffffffffffffffffffffffffffffffffff1673ffffffffffffffffffffffffffffffffffffffff163373ffffffffffffffffffffffffffffffffffffffff1614156144f357600190505b5b3373ffffffffffffffffffffffffffffffffffffffff166007836040518082805190602001908083835b602083101515614543578051825260208201915060208101905060208303925061451e565b6001836020036101000a038019825116818451168082178552505050505050905001915050908152602001604051809103902060000160009054906101000a900473ffffffffffffffffffffffffffffffffffffffff1673ffffffffffffffffffffffffffffffffffffffff1614156145bb57600190505b8015156145c757600080fd5b6007896040518082805190602001908083835b6020831015156145ff57805182526020820191506020810190506020830392506145da565b6001836020036101000a038019825116818451168082178552505050505050905001915050908152602001604051809103902060000160009054906101000a900473ffffffffffffffffffffffffffffffffffffffff1696506007896040518082805190602001908083835b602083101515614690578051825260208201915060208101905060208303925061466b565b6001836020036101000a0380198251168184511680821785525050505050509050019150509081526020016040518091039020600080820160006101000a81549073ffffffffffffffffffffffffffffffffffffffff02191690556001820160006146fb9190615766565b60028201600061470b9190615766565b6003820160006101000a81549061ffff02191690556003820160026101000a81549060ff02191690556004820160006147449190615766565b6005820160006147549190615766565b6006820160006147649190615766565b6007820160006101000a81549060ff02191690556007820160016101000a81549060ff021916905560088201600061479c9190615766565b5050600860008873ffffffffffffffffffffffffffffffffffffffff1673ffffffffffffffffffffffffffffffffffffffff16815260200190815260200160002095506147e9878a614f55565b94508493505b600186805490500384101561486057856001850181548110151561480f57fe5b9060005260206000209001868581548110151561482857fe5b906000526020600020900190805460018160011615610100020316600290046148529291906156df565b5083806001019450506147ef565b85600187805490500381548110151561487557fe5b9060005260206000209001600061488c9190615766565b858054809190600190036148a09190615633565b50600360008154809291906001900391905055507eeb05fa16ba446d38b8c543c982b1ba244b8ffac0f16d90b6802d0b3a0485d033888b604051808473ffffffffffffffffffffffffffffffffffffffff1673ffffffffffffffffffffffffffffffffffffffff1681526020018373ffffffffffffffffffffffffffffffffffffffff1673ffffffffffffffffffffffffffffffffffffffff16815260200180602001828103825283818151815260200191508051906020019080838360005b8381101561497b578082015181840152602081019050614960565b50505050905090810190601f1680156149a85780820380516001836020036101000a031916815260200191505b5094505050505060405180910390a1505050505050505050565b600081600460009054906101000a900460ff1615614a4f576006818154811015156149e957fe5b906000526020600020900160009054906101000a900473ffffffffffffffffffffffffffffffffffffffff1673ffffffffffffffffffffffffffffffffffffffff163373ffffffffffffffffffffffffffffffffffffffff16141515614a4e57600080fd5b5b600554803410151515614a6157600080fd5b600060078d6040518082805190602001908083835b602083101515614a9b5780518252602082019150602081019050602083039250614a76565b6001836020036101000a038019825116818451168082178552505050505050905001915050908152602001604051809103902060000160009054906101000a900473ffffffffffffffffffffffffffffffffffffffff1673ffffffffffffffffffffffffffffffffffffffff16141515614b1457600080fd5b60078c6040518082805190602001908083835b602083101515614b4c5780518252602082019150602081019050602083039250614b27565b6001836020036101000a03801982511681845116808217855250505050505090500191505090815260200160405180910390209250338360000160006101000a81548173ffffffffffffffffffffffffffffffffffffffff021916908373ffffffffffffffffffffffffffffffffffffffff1602179055508a836001019080519060200190614bdc92919061565f565b5089836002019080519060200190614bf592919061565f565b50888360030160006101000a81548161ffff021916908361ffff160217905550878360030160026101000a81548160ff021916908360ff16021790555086836004019080519060200190614c4a92919061565f565b5085836005019080519060200190614c6392919061565f565b5060008360070160006101000a81548160ff02191690831515021790555060008360070160016101000a81548160ff02191690831515021790555084836008019080519060200190614cb692919061565f565b506003600081548092919060010191905055507f5056c1ff30bed0cd453800b553b7ae9a4fbc6096c8799c04173598c3a79160318c6040518080602001828103825283818151815260200191508051906020019080838360005b83811015614d2b578082015181840152602081019050614d10565b50505050905090810190601f168015614d585780820380516001836020036101000a031916815260200191505b509250505060405180910390a1600860003373ffffffffffffffffffffffffffffffffffffffff1673ffffffffffffffffffffffffffffffffffffffff1681526020019081526020016000208054806001018281614db69190615633565b916000526020600020900160008e90919091509080519060200190614ddc92919061565f565b5050505050505050505050505050565b60066000815481101515614dfc57fe5b906000526020600020900160009054906101000a900473ffffffffffffffffffffffffffffffffffffffff1673ffffffffffffffffffffffffffffffffffffffff163373ffffffffffffffffffffffffffffffffffffffff16141515614e6157600080fd5b8060066000815481101515614e7257fe5b906000526020600020900160006101000a81548173ffffffffffffffffffffffffffffffffffffffff021916908373ffffffffffffffffffffffffffffffffffffffff1602179055507fb532073b38c83145e3e5135377a08bf9aab55bc0fd7c1179cd4fb995d2a5159c3382604051808373ffffffffffffffffffffffffffffffffffffffff1673ffffffffffffffffffffffffffffffffffffffff1681526020018273ffffffffffffffffffffffffffffffffffffffff1673ffffffffffffffffffffffffffffffffffffffff1681526020019250505060405180910390a150565b600080600860008573ffffffffffffffffffffffffffffffffffffffff1673ffffffffffffffffffffffffffffffffffffffff1681526020019081526020016000209050600091505b80805490508210156150b157826040518082805190602001908083835b602083101515614fe05780518252602082019150602081019050602083039250614fbb565b6001836020036101000a038019825116818451168082178552505050505050905001915050604051809103902060001916818381548110151561501f57fe5b906000526020600020900160405180828054600181600116156101000203166002900480156150855780601f10615063576101008083540402835291820191615085565b820191906000526020600020905b815481529060010190602001808311615071575b505091505060405180910390206000191614156150a4578191506150bf565b8180600101925050614f9e565b600015156150be57600080fd5b5b5092915050565b6150ce61561f565b6007826040518082805190602001908083835b60208310151561510657805182526020820191506020810190506020830392506150e1565b6001836020036101000a03801982511681845116808217855250505050505090500191505090815260200160405180910390206008018054600181600116156101000203166002900480601f0160208091040260200160405190810160405280929190818152602001828054600181600116156101000203166002900480156151d05780601f106151a5576101008083540402835291602001916151d0565b820191906000526020600020905b8154815290600101906020018083116151b357829003601f168201915b50505050509050919050565b6151e461561f565b6151ec61561f565b6151f461561f565b6000808573ffffffffffffffffffffffffffffffffffffffff1673ffffffffffffffffffffffffffffffffffffffff1681526020019081526020016000206000018054600181600116156101000203166002900480601f0160208091040260200160405190810160405280929190818152602001828054600181600116156101000203166002900480156152c95780601f1061529e576101008083540402835291602001916152c9565b820191906000526020600020905b8154815290600101906020018083116152ac57829003601f168201915b505050505092506000808573ffffffffffffffffffffffffffffffffffffffff1673ffffffffffffffffffffffffffffffffffffffff1681526020019081526020016000206001018054600181600116156101000203166002900480601f0160208091040260200160405190810160405280929190818152602001828054600181600116156101000203166002900480156153a55780601f1061537a576101008083540402835291602001916153a5565b820191906000526020600020905b81548152906001019060200180831161538857829003601f168201915b505050505091506000808573ffffffffffffffffffffffffffffffffffffffff1673ffffffffffffffffffffffffffffffffffffffff1681526020019081526020016000206002018054600181600116156101000203166002900480601f0160208091040260200160405190810160405280929190818152602001828054600181600116156101000203166002900480156154815780601f1061545657610100808354040283529160200191615481565b820191906000526020600020905b81548152906001019060200180831161546457829003601f168201915b505050505090509193909250565b813373ffffffffffffffffffffffffffffffffffffffff166007826040518082805190602001908083835b6020831015156154df57805182526020820191506020810190506020830392506154ba565b6001836020036101000a038019825116818451168082178552505050505050905001915050908152602001604051809103902060000160009054906101000a900473ffffffffffffffffffffffffffffffffffffffff1673ffffffffffffffffffffffffffffffffffffffff1614151561555857600080fd5b816007846040518082805190602001908083835b602083101515615591578051825260208201915060208101905060208303925061556c565b6001836020036101000a038019825116818451168082178552505050505050905001915050908152602001604051809103902060080190805190602001906155da92919061565f565b50505050565b6006818154811015156155ef57fe5b90600052602060002090016000915054906101000a900473ffffffffffffffffffffffffffffffffffffffff1681565b602060405190810160405280600081525090565b81548183558181151161565a5781836000526020600020918201910161565991906157da565b5b505050565b828054600181600116156101000203166002900490600052602060002090601f016020900481019282601f106156a057805160ff19168380011785556156ce565b828001600101855582156156ce579182015b828111156156cd5782518255916020019190600101906156b2565b5b5090506156db9190615806565b5090565b828054600181600116156101000203166002900490600052602060002090601f016020900481019282601f106157185780548555615755565b8280016001018555821561575557600052602060002091601f016020900482015b82811115615754578254825591600101919060010190615739565b5b5090506157629190615806565b5090565b50805460018160011615610100020316600290046000825580601f1061578c57506157ab565b601f0160209004906000526020600020908101906157aa9190615806565b5b50565b8154818355818115116157d5578183600052602060002091820191016157d49190615806565b5b505050565b61580391905b808211156157ff57600081816157f69190615766565b506001016157e0565b5090565b90565b61582891905b8082111561582457600081600090555060010161580c565b5090565b905600a165627a7a723058209ff7dc1303f8171a0d140882351b096011ffd4b3a94a81eeef5c19bb69f146220029",
  "source": "pragma solidity ^0.4.18;\n\ncontract Contacts{\n\n    struct ContactDetails{\n        string name;\n        string email;\n        string phone;\n    }\n\n    mapping(address => ContactDetails) contactList; // Owner details\n\n    event ContactDetailsAdded(address owner, string name, string email, string phone);\n\n    function addContactDetails(string _name, string _email, string _phone) public{\n        contactList[msg.sender].name = _name;\n        contactList[msg.sender].email = _email;\n        contactList[msg.sender].phone = _phone;\n        ContactDetailsAdded(msg.sender, _name, _email, _phone);\n    }\n}\n\ncontract BikeChain is Contacts{\n\n    string contractName;\n    string contractSymbol;\n    uint256 supplyNum;\n\n    struct Bike{\n        address owner;\n        string make;\n        string model;\n        uint16 year;\n        uint8 size;\n        string colour;\n        string features;\n        string details;\n        bool stolen;\n        bool found;\n        string infoUrl;\n    }\n\n    // Switch to turn company admin off or on\n    bool adminSwitch;\n\n    // Price to register Bike in Wei\n    uint registrationPrice;\n\n    address[] public company;\n    mapping(string => Bike) register; // Maps frame number to bike\n    mapping(address => string[]) ownerList; // Maps address to frame numbers\n    // mapping(address => uint256) balance; Maps address to number of bikes owned\n    mapping(string => address) approvedAddress; // Maps frame number to address which is approved to take ownership\n\n    modifier onlyAdmin(uint _cID){\n        if(adminSwitch) require(msg.sender == company[_cID]);\n        _;\n    }\n\n    modifier onlyAdminOrOwner(uint _cID, string _frameNumber){\n        bool test = false;\n        if(adminSwitch){\n            if(msg.sender == company[_cID]){\n                test = true;\n            }\n        }\n        if(register[_frameNumber].owner == msg.sender){\n            test = true;\n        }\n        require(test);\n        _;\n    }\n\n    modifier onlyCompany(uint _cID){\n        require(msg.sender == company[_cID]);\n        _;\n    }\n\n    modifier onlyCompanyOrOwner(uint _cID, string _frameNumber){\n        bool test = false;\n        if(msg.sender == company[_cID]){\n            test = true;\n        }\n        if(register[_frameNumber].owner == msg.sender){\n            test = true;\n        }\n        require(test);\n        _;\n    }\n\n    modifier onlyContractCreator(){\n        require(msg.sender == company[0]);\n        _;\n    }\n\n    modifier bikeOwner(string _frameNumber){\n        require(register[_frameNumber].owner == msg.sender);\n        _;\n    }\n\n    modifier hasApproval(string _frameNumber){\n        require(approvedAddress[_frameNumber] == msg.sender);\n        _;\n    }\n\n    modifier costs(uint _price) {\n        require(msg.value >= _price);\n            _;\n    }\n\n    event Approval(address owner, address to, string frameNumber);\n    event BikeCreated(string frameNumber);\n    event BikeRemoved(address company, address owner, string frameNumber);\n    event BikeTransfered(address from, address to, string frameNumber);\n    event BikeStolen(string frameNumber, string details);\n    event BikeFound(address finder, string frameNumber);\n    event BikeNotFound(address finder, string frameNumber);\n    event BikeReturned(address owner, string frameNumber);\n    event CompanyAdded(address admin, address company, uint cID);\n    event CompanyRemoved(address admin, address company, uint cID);\n    event OwnerChanged(address from, address to);\n    event EtherWithdrawn(address from, address to, uint value);\n    event AdminSwitchChanged(bool status);\n\n    function BikeChain() public{\n        company.length++;\n        company[0] = msg.sender;\n        registrationPrice = 10000000000000000;\n        adminSwitch = false;\n        contractName = \"Bike-Token\";\n        contractSymbol = \"\";\n        supplyNum = 0;\n    }\n\n    // Begin ERC-721 Standard Functions\n\n    function name() constant public returns (string){\n      return contractName;\n    }\n\n    function symbol() constant public returns (string){\n      return contractSymbol;\n    }\n\n    function totalSupply() constant public returns (uint256){\n      return supplyNum;\n    }\n\n    function balanceOf(address _owner) constant public returns (uint256){\n      return ownerList[_owner].length;\n    }\n\n    function ownerOf(string _frameNumber) constant public returns (address){\n      require(register[_frameNumber].owner != 0);\n      return register[_frameNumber].owner;\n    }\n\n    function approve(address _to, string _frameNumber) bikeOwner(_frameNumber) public{\n      approvedAddress[_frameNumber] = _to;\n      Approval(msg.sender, _to, _frameNumber);\n    }\n\n    function takeOwnership(string _frameNumber) hasApproval(_frameNumber) public{\n      address oldOwner = register[_frameNumber].owner;\n      ownerList[msg.sender].push(_frameNumber);\n      register[_frameNumber].owner = msg.sender;\n      string[] storage fn = ownerList[oldOwner];\n      uint index = getFrameIndex(oldOwner, _frameNumber);\n      for (uint i = index; i < fn.length-1; i++){\n        fn[i] = fn[i+1];\n      }\n      delete fn[fn.length-1];\n      fn.length--;\n\n      BikeTransfered(oldOwner, msg.sender, _frameNumber);\n    }\n\n    function transfer(address _to, string _frameNumber) bikeOwner(_frameNumber) public{\n      require(_to != 0);\n      ownerList[_to].push(_frameNumber);\n      register[_frameNumber].owner = _to;\n      string[] storage fn = ownerList[msg.sender];\n      uint index = getFrameIndex(msg.sender, _frameNumber);\n      for (uint i = index; i < fn.length-1; i++){\n        fn[i] = fn[i+1];\n      }\n      delete fn[fn.length-1];\n      fn.length--;\n\n      BikeTransfered(msg.sender, _to, _frameNumber);\n    }\n\n    function tokenOfOwnerByIndex(address _owner, uint256 _index) constant public returns (string frameNumber){\n      require(_index < balanceOf(_owner));\n      require(_index >= 0);\n      frameNumber = ownerList[_owner][_index];\n    }\n\n    function tokenMetadata(string _frameNumber) constant public returns (string){\n      return register[_frameNumber].infoUrl;\n    }\n\n    function updateTokenMetadata(string _frameNumber, string _infoUrl) bikeOwner(_frameNumber) public{\n      register[_frameNumber].infoUrl = _infoUrl;\n    }\n\n    // End ERC-721 Standard Functions\n\n    function () payable public{}\n\n    function withdrawEther(address _to, uint _value) onlyContractCreator() public{\n        //require(this.balance > _value);\n        _to.transfer(_value);\n        EtherWithdrawn(msg.sender, _to, _value);\n    }\n\n    function addBike(string _frameNumber, string _make, string _model, uint16 _year, uint8 _size, string _colour, string _features, string _infoUrl, uint _cID)\n    payable onlyAdmin(_cID) costs(registrationPrice) public{\n        require(register[_frameNumber].owner == 0); // Check bike isn't owned\n\n        Bike storage b = register[_frameNumber];\n        b.owner = msg.sender;\n        b.make = _make;\n        b.model = _model;\n        b.year = _year;\n        b.size = _size;\n        b.colour = _colour;\n        b.features = _features;\n        b.stolen = false;\n        b.found = false;\n        b.infoUrl = _infoUrl;\n        supplyNum++;\n        BikeCreated(_frameNumber);\n\n        ownerList[msg.sender].push(_frameNumber);\n    }\n\n    function addCompany(address _newCompany) onlyContractCreator() public returns(uint newcID){\n        newcID = company.length++;\n        company[newcID] = _newCompany;\n        CompanyAdded(company[0], _newCompany, newcID);\n    }\n\n    function reportStolen(string _frameNumber, string _details) bikeOwner(_frameNumber) public{\n        Bike storage b = register[_frameNumber];\n        b.stolen = true;\n        BikeStolen(_frameNumber, _details);\n    }\n\n    function reportFound(string _frameNumber) public{\n        require(register[_frameNumber].stolen);\n        register[_frameNumber].found = true;\n        BikeFound(msg.sender, _frameNumber);\n    }\n\n    function reportNotFound(string _frameNumber) bikeOwner(_frameNumber) public{\n        register[_frameNumber].found = false;\n        BikeNotFound(msg.sender, _frameNumber);\n    }\n\n    function reportReturned(string _frameNumber) bikeOwner(_frameNumber) public{\n        require(register[_frameNumber].stolen);\n        require(register[_frameNumber].found);\n        Bike storage b = register[_frameNumber];\n        b.stolen = false;\n        b.found = false;\n        BikeReturned(msg.sender, _frameNumber);\n    }\n\n    function transferOwner(string _frameNumber, address _newOwner, uint _cID) onlyAdminOrOwner(_cID, _frameNumber) public{\n        require(_newOwner != 0);\n        ownerList[_newOwner].push(_frameNumber);\n        register[_frameNumber].owner = _newOwner;\n        string[] storage fn = ownerList[msg.sender];\n        uint index = getFrameIndex(msg.sender, _frameNumber);\n        for (uint i = index; i < fn.length-1; i++){\n          fn[i] = fn[i+1];\n        }\n        delete fn[fn.length-1];\n        fn.length--;\n\n        BikeTransfered(msg.sender, _newOwner, _frameNumber);\n    }\n\n    function removeBike(string _frameNumber, uint _cID) onlyAdminOrOwner(_cID, _frameNumber) public{\n        address owner = register[_frameNumber].owner;\n        delete register[_frameNumber];\n        string[] storage fn = ownerList[owner];\n        uint index = getFrameIndex(owner, _frameNumber);\n        for (uint i = index; i < fn.length-1; i++){\n          fn[i] = fn[i+1];\n        }\n        delete fn[fn.length-1];\n        fn.length--;\n        supplyNum--;\n\n        BikeRemoved(msg.sender, owner, _frameNumber);\n    }\n\n    // Only contract creator can remove companies\n    function removeCompany(uint _cID) onlyContractCreator() public{\n        require(_cID != 0); // Cant remove contract creator\n        require(_cID < company.length);\n        address companyAddress = company[_cID];\n        for (uint i = _cID; i < company.length-1; i++){\n          company[i] = company[i+1];\n        }\n        delete company[company.length-1];\n        company.length--;\n\n        CompanyRemoved(msg.sender, companyAddress, _cID);\n    }\n\n    function changeOwner(address _newOwner) onlyContractCreator() public{\n        company[0] = _newOwner;\n        OwnerChanged(msg.sender, _newOwner);\n    }\n\n    function changeAdminSwitch(bool _status) public returns(bool){\n        require(msg.sender == company[0]);\n        adminSwitch = _status;\n        AdminSwitchChanged(_status);\n        return adminSwitch;\n    }\n\n    // Get functions\n    function getBike(string _frameNumber) constant public\n    returns(address owner, string make, string model, uint16 year, uint8 size, string colour, string features, string details, bool stolen, bool found){\n\n    Bike storage b = register[_frameNumber];\n    owner = b.owner;\n    make = b.make;\n    model = b.model;\n    year = b.year;\n    size = b.size;\n    colour = b.colour;\n    features = b.features;\n    details = b.details;\n    stolen = b.stolen;\n    found = b.found;\n    }\n\n    function getFrameIndex(address _owner, string _frameNumber) constant public returns(uint i){\n        string[] storage fn = ownerList[_owner];\n        for(i = 0; i < fn.length; i++){\n            if(keccak256(fn[i]) == keccak256(_frameNumber)) return i;\n        }\n        require(false); // Fail if not found\n    }\n\n    function getFrameNumber(address _owner, uint _index) constant public returns(string frameNumber){\n        require(_index < ownerList[_owner].length);\n        frameNumber = ownerList[_owner][_index];\n    }\n\n    function getCompany(uint _cID) constant public returns(address co){\n        require(_cID < company.length);\n        co = company[_cID];\n    }\n\n    function getCompanyID() constant public returns(uint id){\n        for(id = 0; id < company.length; id++){\n            if(company[id] == msg.sender) return;\n        }\n        require(false); // Fail if not found\n    }\n\n    function getCompanyLength() constant public returns(uint len){\n        len = company.length;\n    }\n\n    function getContactDetails(address _owner) constant public\n    returns(string contactName, string email, string phone){\n        contactName = contactList[_owner].name;\n        email = contactList[_owner].email;\n        phone = contactList[_owner].phone;\n    }\n\n    function getOwner(string _frameNumber) constant public returns(address owner){\n        owner = register[_frameNumber].owner;\n    }\n\n    function getEthBalance() constant public returns (uint) { return this.balance; }\n\n    function getAdminSwitch() constant public returns(bool) { return adminSwitch; }\n\n    function getRegistrationPrice() constant public returns(uint)\n    { return registrationPrice; }\n}\n",
  "sourcePath": "/home/safid1/Ethereum/bikechain/contracts/BikeChain.sol",
  "compiler": {
    "name": "solc",
    "version": "0.4.18+commit.9cf6e910.Emscripten.clang"
  },
  "schemaVersion": "1.0.1",
  "updatedAt": "2018-01-04T15:45:29.255Z"
}