{
  "contractName": "BikeChain",
  "abi": [
    {
      "constant": false,
      "inputs": [
        {
          "name": "_frameNumber",
          "type": "string"
        }
      ],
      "name": "reportFound",
      "outputs": [],
      "payable": false,
      "stateMutability": "nonpayable",
      "type": "function"
    },
    {
      "constant": true,
      "inputs": [],
      "name": "name",
      "outputs": [
        {
          "name": "",
          "type": "string"
        }
      ],
      "payable": false,
      "stateMutability": "view",
      "type": "function"
    },
    {
      "constant": false,
      "inputs": [
        {
          "name": "_to",
          "type": "address"
        },
        {
          "name": "_frameNumber",
          "type": "string"
        }
      ],
      "name": "transfer",
      "outputs": [],
      "payable": false,
      "stateMutability": "nonpayable",
      "type": "function"
    },
    {
      "constant": true,
      "inputs": [],
      "name": "getEthDonated",
      "outputs": [
        {
          "name": "",
          "type": "uint256"
        }
      ],
      "payable": false,
      "stateMutability": "view",
      "type": "function"
    },
    {
      "constant": true,
      "inputs": [],
      "name": "totalSupply",
      "outputs": [
        {
          "name": "",
          "type": "uint256"
        }
      ],
      "payable": false,
      "stateMutability": "view",
      "type": "function"
    },
    {
      "constant": false,
      "inputs": [
        {
          "name": "_frameNumber",
          "type": "string"
        },
        {
          "name": "_newOwner",
          "type": "address"
        },
        {
          "name": "_cID",
          "type": "uint256"
        }
      ],
      "name": "transferOwner",
      "outputs": [],
      "payable": false,
      "stateMutability": "nonpayable",
      "type": "function"
    },
    {
      "constant": false,
      "inputs": [
        {
          "name": "_to",
          "type": "address"
        },
        {
          "name": "_frameNumber",
          "type": "string"
        }
      ],
      "name": "approve",
      "outputs": [],
      "payable": false,
      "stateMutability": "nonpayable",
      "type": "function"
    },
    {
      "constant": true,
      "inputs": [
        {
          "name": "_owner",
          "type": "address"
        },
        {
          "name": "_index",
          "type": "uint256"
        }
      ],
      "name": "getFrameNumber",
      "outputs": [
        {
          "name": "frameNumber",
          "type": "string"
        }
      ],
      "payable": false,
      "stateMutability": "view",
      "type": "function"
    },
    {
      "constant": true,
      "inputs": [
        {
          "name": "_owner",
          "type": "address"
        },
        {
          "name": "_index",
          "type": "uint256"
        }
      ],
      "name": "tokenOfOwnerByIndex",
      "outputs": [
        {
          "name": "frameNumber",
          "type": "string"
        }
      ],
      "payable": false,
      "stateMutability": "view",
      "type": "function"
    },
    {
      "constant": true,
      "inputs": [],
      "name": "getCompanyLength",
      "outputs": [
        {
          "name": "len",
          "type": "uint256"
        }
      ],
      "payable": false,
      "stateMutability": "view",
      "type": "function"
    },
    {
      "constant": false,
      "inputs": [
        {
          "name": "_cID",
          "type": "uint256"
        }
      ],
      "name": "removeCompany",
      "outputs": [],
      "payable": false,
      "stateMutability": "nonpayable",
      "type": "function"
    },
    {
      "constant": true,
      "inputs": [],
      "name": "getAdminSwitch",
      "outputs": [
        {
          "name": "",
          "type": "bool"
        }
      ],
      "payable": false,
      "stateMutability": "view",
      "type": "function"
    },
    {
      "constant": false,
      "inputs": [
        {
          "name": "_status",
          "type": "bool"
        }
      ],
      "name": "changeAdminSwitch",
      "outputs": [
        {
          "name": "",
          "type": "bool"
        }
      ],
      "payable": false,
      "stateMutability": "nonpayable",
      "type": "function"
    },
    {
      "constant": true,
      "inputs": [
        {
          "name": "_frameNumber",
          "type": "string"
        }
      ],
      "name": "getOwner",
      "outputs": [
        {
          "name": "owner",
          "type": "address"
        }
      ],
      "payable": false,
      "stateMutability": "view",
      "type": "function"
    },
    {
      "constant": false,
      "inputs": [
        {
          "name": "_to",
          "type": "address"
        },
        {
          "name": "_value",
          "type": "uint256"
        }
      ],
      "name": "withdrawEther",
      "outputs": [],
      "payable": false,
      "stateMutability": "nonpayable",
      "type": "function"
    },
    {
      "constant": true,
      "inputs": [
        {
          "name": "_cID",
          "type": "uint256"
        }
      ],
      "name": "getCompany",
      "outputs": [
        {
          "name": "co",
          "type": "address"
        }
      ],
      "payable": false,
      "stateMutability": "view",
      "type": "function"
    },
    {
      "constant": true,
      "inputs": [],
      "name": "getSender",
      "outputs": [
        {
          "name": "",
          "type": "address"
        }
      ],
      "payable": false,
      "stateMutability": "view",
      "type": "function"
    },
    {
      "constant": true,
      "inputs": [],
      "name": "getRegistrationPrice",
      "outputs": [
        {
          "name": "",
          "type": "uint256"
        }
      ],
      "payable": false,
      "stateMutability": "view",
      "type": "function"
    },
    {
      "constant": false,
      "inputs": [
        {
          "name": "_newCompany",
          "type": "address"
        }
      ],
      "name": "addCompany",
      "outputs": [
        {
          "name": "newcID",
          "type": "uint256"
        }
      ],
      "payable": false,
      "stateMutability": "nonpayable",
      "type": "function"
    },
    {
      "constant": true,
      "inputs": [
        {
          "name": "_frameNumber",
          "type": "string"
        }
      ],
      "name": "getBike",
      "outputs": [
        {
          "name": "owner",
          "type": "address"
        },
        {
          "name": "make",
          "type": "string"
        },
        {
          "name": "model",
          "type": "string"
        },
        {
          "name": "year",
          "type": "uint16"
        },
        {
          "name": "size",
          "type": "uint8"
        },
        {
          "name": "colour",
          "type": "string"
        },
        {
          "name": "features",
          "type": "string"
        },
        {
          "name": "details",
          "type": "string"
        },
        {
          "name": "stolen",
          "type": "bool"
        },
        {
          "name": "found",
          "type": "bool"
        }
      ],
      "payable": false,
      "stateMutability": "view",
      "type": "function"
    },
    {
      "constant": true,
      "inputs": [
        {
          "name": "_owner",
          "type": "address"
        }
      ],
      "name": "balanceOf",
      "outputs": [
        {
          "name": "",
          "type": "uint256"
        }
      ],
      "payable": false,
      "stateMutability": "view",
      "type": "function"
    },
    {
      "constant": true,
      "inputs": [],
      "name": "getEthBalance",
      "outputs": [
        {
          "name": "",
          "type": "uint256"
        }
      ],
      "payable": false,
      "stateMutability": "view",
      "type": "function"
    },
    {
      "constant": false,
      "inputs": [
        {
          "name": "_frameNumber",
          "type": "string"
        }
      ],
      "name": "reportNotFound",
      "outputs": [],
      "payable": false,
      "stateMutability": "nonpayable",
      "type": "function"
    },
    {
      "constant": true,
      "inputs": [],
      "name": "getCompanyID",
      "outputs": [
        {
          "name": "id",
          "type": "uint256"
        }
      ],
      "payable": false,
      "stateMutability": "view",
      "type": "function"
    },
    {
      "constant": false,
      "inputs": [
        {
          "name": "_frameNumber",
          "type": "string"
        }
      ],
      "name": "reportReturned",
      "outputs": [],
      "payable": false,
      "stateMutability": "nonpayable",
      "type": "function"
    },
    {
      "constant": false,
      "inputs": [
        {
          "name": "_frameNumber",
          "type": "string"
        }
      ],
      "name": "takeOwnership",
      "outputs": [],
      "payable": false,
      "stateMutability": "nonpayable",
      "type": "function"
    },
    {
      "constant": false,
      "inputs": [
        {
          "name": "_name",
          "type": "string"
        },
        {
          "name": "_email",
          "type": "string"
        },
        {
          "name": "_phone",
          "type": "string"
        }
      ],
      "name": "addContactDetails",
      "outputs": [],
      "payable": false,
      "stateMutability": "nonpayable",
      "type": "function"
    },
    {
      "constant": false,
      "inputs": [
        {
          "name": "_frameNumber",
          "type": "string"
        },
        {
          "name": "_details",
          "type": "string"
        }
      ],
      "name": "reportStolen",
      "outputs": [],
      "payable": false,
      "stateMutability": "nonpayable",
      "type": "function"
    },
    {
      "constant": true,
      "inputs": [
        {
          "name": "_frameNumber",
          "type": "string"
        }
      ],
      "name": "ownerOf",
      "outputs": [
        {
          "name": "",
          "type": "address"
        }
      ],
      "payable": false,
      "stateMutability": "view",
      "type": "function"
    },
    {
      "constant": true,
      "inputs": [],
      "name": "symbol",
      "outputs": [
        {
          "name": "",
          "type": "string"
        }
      ],
      "payable": false,
      "stateMutability": "view",
      "type": "function"
    },
    {
      "constant": false,
      "inputs": [
        {
          "name": "_frameNumber",
          "type": "string"
        },
        {
          "name": "_cID",
          "type": "uint256"
        }
      ],
      "name": "removeBike",
      "outputs": [],
      "payable": false,
      "stateMutability": "nonpayable",
      "type": "function"
    },
    {
      "constant": false,
      "inputs": [
        {
          "name": "_frameNumber",
          "type": "string"
        },
        {
          "name": "_make",
          "type": "string"
        },
        {
          "name": "_model",
          "type": "string"
        },
        {
          "name": "_year",
          "type": "uint16"
        },
        {
          "name": "_size",
          "type": "uint8"
        },
        {
          "name": "_colour",
          "type": "string"
        },
        {
          "name": "_features",
          "type": "string"
        },
        {
          "name": "_infoUrl",
          "type": "string"
        },
        {
          "name": "_cID",
          "type": "uint256"
        }
      ],
      "name": "addBike",
      "outputs": [],
      "payable": true,
      "stateMutability": "payable",
      "type": "function"
    },
    {
      "constant": false,
      "inputs": [
        {
          "name": "_newOwner",
          "type": "address"
        }
      ],
      "name": "changeOwner",
      "outputs": [],
      "payable": false,
      "stateMutability": "nonpayable",
      "type": "function"
    },
    {
      "constant": true,
      "inputs": [
        {
          "name": "_owner",
          "type": "address"
        },
        {
          "name": "_frameNumber",
          "type": "string"
        }
      ],
      "name": "getFrameIndex",
      "outputs": [
        {
          "name": "i",
          "type": "uint256"
        }
      ],
      "payable": false,
      "stateMutability": "view",
      "type": "function"
    },
    {
      "constant": true,
      "inputs": [
        {
          "name": "_frameNumber",
          "type": "string"
        }
      ],
      "name": "tokenMetadata",
      "outputs": [
        {
          "name": "",
          "type": "string"
        }
      ],
      "payable": false,
      "stateMutability": "view",
      "type": "function"
    },
    {
      "constant": true,
      "inputs": [
        {
          "name": "_owner",
          "type": "address"
        }
      ],
      "name": "getContactDetails",
      "outputs": [
        {
          "name": "contactName",
          "type": "string"
        },
        {
          "name": "email",
          "type": "string"
        },
        {
          "name": "phone",
          "type": "string"
        }
      ],
      "payable": false,
      "stateMutability": "view",
      "type": "function"
    },
    {
      "constant": false,
      "inputs": [
        {
          "name": "_frameNumber",
          "type": "string"
        },
        {
          "name": "_infoUrl",
          "type": "string"
        }
      ],
      "name": "updateTokenMetadata",
      "outputs": [],
      "payable": false,
      "stateMutability": "nonpayable",
      "type": "function"
    },
    {
      "constant": true,
      "inputs": [
        {
          "name": "",
          "type": "uint256"
        }
      ],
      "name": "company",
      "outputs": [
        {
          "name": "",
          "type": "address"
        }
      ],
      "payable": false,
      "stateMutability": "view",
      "type": "function"
    },
    {
      "inputs": [],
      "payable": false,
      "stateMutability": "nonpayable",
      "type": "constructor"
    },
    {
      "payable": true,
      "stateMutability": "payable",
      "type": "fallback"
    },
    {
      "anonymous": false,
      "inputs": [
        {
          "indexed": false,
          "name": "owner",
          "type": "address"
        },
        {
          "indexed": false,
          "name": "to",
          "type": "address"
        },
        {
          "indexed": false,
          "name": "frameNumber",
          "type": "string"
        }
      ],
      "name": "Approval",
      "type": "event"
    },
    {
      "anonymous": false,
      "inputs": [
        {
          "indexed": false,
          "name": "frameNumber",
          "type": "string"
        }
      ],
      "name": "BikeCreated",
      "type": "event"
    },
    {
      "anonymous": false,
      "inputs": [
        {
          "indexed": false,
          "name": "company",
          "type": "address"
        },
        {
          "indexed": false,
          "name": "owner",
          "type": "address"
        },
        {
          "indexed": false,
          "name": "frameNumber",
          "type": "string"
        }
      ],
      "name": "BikeRemoved",
      "type": "event"
    },
    {
      "anonymous": false,
      "inputs": [
        {
          "indexed": false,
          "name": "from",
          "type": "address"
        },
        {
          "indexed": false,
          "name": "to",
          "type": "address"
        },
        {
          "indexed": false,
          "name": "frameNumber",
          "type": "string"
        }
      ],
      "name": "BikeTransfered",
      "type": "event"
    },
    {
      "anonymous": false,
      "inputs": [
        {
          "indexed": false,
          "name": "frameNumber",
          "type": "string"
        },
        {
          "indexed": false,
          "name": "details",
          "type": "string"
        }
      ],
      "name": "BikeStolen",
      "type": "event"
    },
    {
      "anonymous": false,
      "inputs": [
        {
          "indexed": false,
          "name": "finder",
          "type": "address"
        },
        {
          "indexed": false,
          "name": "frameNumber",
          "type": "string"
        }
      ],
      "name": "BikeFound",
      "type": "event"
    },
    {
      "anonymous": false,
      "inputs": [
        {
          "indexed": false,
          "name": "finder",
          "type": "address"
        },
        {
          "indexed": false,
          "name": "frameNumber",
          "type": "string"
        }
      ],
      "name": "BikeNotFound",
      "type": "event"
    },
    {
      "anonymous": false,
      "inputs": [
        {
          "indexed": false,
          "name": "owner",
          "type": "address"
        },
        {
          "indexed": false,
          "name": "frameNumber",
          "type": "string"
        }
      ],
      "name": "BikeReturned",
      "type": "event"
    },
    {
      "anonymous": false,
      "inputs": [
        {
          "indexed": false,
          "name": "admin",
          "type": "address"
        },
        {
          "indexed": false,
          "name": "company",
          "type": "address"
        },
        {
          "indexed": false,
          "name": "cID",
          "type": "uint256"
        }
      ],
      "name": "CompanyAdded",
      "type": "event"
    },
    {
      "anonymous": false,
      "inputs": [
        {
          "indexed": false,
          "name": "admin",
          "type": "address"
        },
        {
          "indexed": false,
          "name": "company",
          "type": "address"
        },
        {
          "indexed": false,
          "name": "cID",
          "type": "uint256"
        }
      ],
      "name": "CompanyRemoved",
      "type": "event"
    },
    {
      "anonymous": false,
      "inputs": [
        {
          "indexed": false,
          "name": "from",
          "type": "address"
        },
        {
          "indexed": false,
          "name": "to",
          "type": "address"
        }
      ],
      "name": "OwnerChanged",
      "type": "event"
    },
    {
      "anonymous": false,
      "inputs": [
        {
          "indexed": false,
          "name": "from",
          "type": "address"
        },
        {
          "indexed": false,
          "name": "to",
          "type": "address"
        },
        {
          "indexed": false,
          "name": "value",
          "type": "uint256"
        }
      ],
      "name": "EtherWithdrawn",
      "type": "event"
    },
    {
      "anonymous": false,
      "inputs": [
        {
          "indexed": false,
          "name": "status",
          "type": "bool"
        }
      ],
      "name": "AdminSwitchChanged",
      "type": "event"
    },
    {
      "anonymous": false,
      "inputs": [
        {
          "indexed": false,
          "name": "owner",
          "type": "address"
        },
        {
          "indexed": false,
          "name": "name",
          "type": "string"
        },
        {
          "indexed": false,
          "name": "email",
          "type": "string"
        },
        {
          "indexed": false,
          "name": "phone",
          "type": "string"
        }
      ],
      "name": "ContactDetailsAdded",
      "type": "event"
    }
  ],
  "bytecode": "0x606060405234156200001057600080fd5b6007805480919060010162000026919062000155565b5033600760008154811015156200003957fe5b906000526020600020900160006101000a81548173ffffffffffffffffffffffffffffffffffffffff021916908373ffffffffffffffffffffffffffffffffffffffff160217905550662386f26fc100006006819055506000600560006101000a81548160ff0219169083151502179055506040805190810160405280600a81526020017f42696b652d546f6b656e0000000000000000000000000000000000000000000081525060019080519060200190620000f892919062000184565b506040805190810160405280600481526020017ff09f9ab200000000000000000000000000000000000000000000000000000000815250600290805190602001906200014692919062000184565b50600060038190555062000233565b8154818355818115116200017f578183600052602060002091820191016200017e91906200020b565b5b505050565b828054600181600116156101000203166002900490600052602060002090601f016020900481019282601f10620001c757805160ff1916838001178555620001f8565b82800160010185558215620001f8579182015b82811115620001f7578251825591602001919060010190620001da565b5b5090506200020791906200020b565b5090565b6200023091905b808211156200022c57600081600090555060010162000212565b5090565b90565b61591380620002436000396000f3006060604052600436106101d8576000357c0100000000000000000000000000000000000000000000000000000000900463ffffffff168063046e30da146101e557806306fdde031461024257806309886649146102d05780630e02b72a1461034c57806318160ddd14610375578063197950aa1461039e57806329cd00f7146104235780632a394a971461049f5780632f745c591461055a57806334aac07d146106155780633f21d44c1461063e578063444ff68b1461066157806348471dbb1461068e5780634aaf4a12146106cb578063522f68151461076857806357d13917146107aa5780635e01eb5a1461080d57806362e59b2b14610862578063634513ca1461088b57806364c9f388146108d857806370a0823114610bc357806370ed0ada14610c1057806373d27bb514610c3957806375adf9d414610c9657806382beeb3b14610cbf5780638945b1fc14610d1c5780638c98234914610d7957806391904ff814610e5c578063920ffa2614610efc57806395d89b4114610f995780639f6d569714611027578063a01604551461108d578063a6f9dae114611250578063a70c53bd14611289578063b1e1ff3a14611319578063cf3dcea6146113ef578063e544202614611579578063eacebba314611619575b3460045401600481905550005b34156101f057600080fd5b610240600480803590602001908201803590602001908080601f0160208091040260200160405190810160405280939291908181526020018383808284378201915050505050509190505061167c565b005b341561024d57600080fd5b61025561185d565b6040518080602001828103825283818151815260200191508051906020019080838360005b8381101561029557808201518184015260208101905061027a565b50505050905090810190601f1680156102c25780820380516001836020036101000a031916815260200191505b509250505060405180910390f35b34156102db57600080fd5b61034a600480803573ffffffffffffffffffffffffffffffffffffffff1690602001909190803590602001908201803590602001908080601f01602080910402602001604051908101604052809392919081815260200183838082843782019150505050505091905050611905565b005b341561035757600080fd5b61035f611d2e565b6040518082815260200191505060405180910390f35b341561038057600080fd5b610388611d38565b6040518082815260200191505060405180910390f35b34156103a957600080fd5b610421600480803590602001908201803590602001908080601f0160208091040260200160405190810160405280939291908181526020018383808284378201915050505050509190803573ffffffffffffffffffffffffffffffffffffffff16906020019091908035906020019091905050611d42565b005b341561042e57600080fd5b61049d600480803573ffffffffffffffffffffffffffffffffffffffff1690602001909190803590602001908201803590602001908080601f01602080910402602001604051908101604052809392919081815260200183838082843782019150505050505091905050612208565b005b34156104aa57600080fd5b6104df600480803573ffffffffffffffffffffffffffffffffffffffff16906020019091908035906020019091905050612484565b6040518080602001828103825283818151815260200191508051906020019080838360005b8381101561051f578082015181840152602081019050610504565b50505050905090810190601f16801561054c5780820380516001836020036101000a031916815260200191505b509250505060405180910390f35b341561056557600080fd5b61059a600480803573ffffffffffffffffffffffffffffffffffffffff169060200190919080359060200190919050506125d4565b6040518080602001828103825283818151815260200191508051906020019080838360005b838110156105da5780820151818401526020810190506105bf565b50505050905090810190601f1680156106075780820380516001836020036101000a031916815260200191505b509250505060405180910390f35b341561062057600080fd5b6106286126fa565b6040518082815260200191505060405180910390f35b341561064957600080fd5b61065f6004808035906020019091905050612707565b005b341561066c57600080fd5b610674612995565b604051808215151515815260200191505060405180910390f35b341561069957600080fd5b6106b1600480803515159060200190919050506129ac565b604051808215151515815260200191505060405180910390f35b34156106d657600080fd5b610726600480803590602001908201803590602001908080601f01602080910402602001604051908101604052809392919081815260200183838082843782019150505050505091905050612a8f565b604051808273ffffffffffffffffffffffffffffffffffffffff1673ffffffffffffffffffffffffffffffffffffffff16815260200191505060405180910390f35b341561077357600080fd5b6107a8600480803573ffffffffffffffffffffffffffffffffffffffff16906020019091908035906020019091905050612b27565b005b34156107b557600080fd5b6107cb6004808035906020019091905050612c7f565b604051808273ffffffffffffffffffffffffffffffffffffffff1673ffffffffffffffffffffffffffffffffffffffff16815260200191505060405180910390f35b341561081857600080fd5b610820612cd6565b604051808273ffffffffffffffffffffffffffffffffffffffff1673ffffffffffffffffffffffffffffffffffffffff16815260200191505060405180910390f35b341561086d57600080fd5b610875612cde565b6040518082815260200191505060405180910390f35b341561089657600080fd5b6108c2600480803573ffffffffffffffffffffffffffffffffffffffff16906020019091905050612ce8565b6040518082815260200191505060405180910390f35b34156108e357600080fd5b610933600480803590602001908201803590602001908080601f01602080910402602001604051908101604052809392919081815260200183838082843782019150505050505091905050612ead565b604051808b73ffffffffffffffffffffffffffffffffffffffff1673ffffffffffffffffffffffffffffffffffffffff16815260200180602001806020018a61ffff1661ffff1681526020018960ff1660ff168152602001806020018060200180602001881515151581526020018715151515815260200186810386528f818151815260200191508051906020019080838360005b838110156109e35780820151818401526020810190506109c8565b50505050905090810190601f168015610a105780820380516001836020036101000a031916815260200191505b5086810385528e818151815260200191508051906020019080838360005b83811015610a49578082015181840152602081019050610a2e565b50505050905090810190601f168015610a765780820380516001836020036101000a031916815260200191505b5086810384528b818151815260200191508051906020019080838360005b83811015610aaf578082015181840152602081019050610a94565b50505050905090810190601f168015610adc5780820380516001836020036101000a031916815260200191505b5086810383528a818151815260200191508051906020019080838360005b83811015610b15578082015181840152602081019050610afa565b50505050905090810190601f168015610b425780820380516001836020036101000a031916815260200191505b50868103825289818151815260200191508051906020019080838360005b83811015610b7b578082015181840152602081019050610b60565b50505050905090810190601f168015610ba85780820380516001836020036101000a031916815260200191505b509f5050505050505050505050505050505060405180910390f35b3415610bce57600080fd5b610bfa600480803573ffffffffffffffffffffffffffffffffffffffff169060200190919050506132ed565b6040518082815260200191505060405180910390f35b3415610c1b57600080fd5b610c23613339565b6040518082815260200191505060405180910390f35b3415610c4457600080fd5b610c94600480803590602001908201803590602001908080601f01602080910402602001604051908101604052809392919081815260200183838082843782019150505050505091905050613358565b005b3415610ca157600080fd5b610ca961357c565b6040518082815260200191505060405180910390f35b3415610cca57600080fd5b610d1a600480803590602001908201803590602001908080601f01602080910402602001604051908101604052809392919081815260200183838082843782019150505050505091905050613620565b005b3415610d2757600080fd5b610d77600480803590602001908201803590602001908080601f01602080910402602001604051908101604052809392919081815260200183838082843782019150505050505091905050613975565b005b3415610d8457600080fd5b610e5a600480803590602001908201803590602001908080601f0160208091040260200160405190810160405280939291908181526020018383808284378201915050505050509190803590602001908201803590602001908080601f0160208091040260200160405190810160405280939291908181526020018383808284378201915050505050509190803590602001908201803590602001908080601f01602080910402602001604051908101604052809392919081815260200183838082843782019150505050505091905050613e07565b005b3415610e6757600080fd5b610efa600480803590602001908201803590602001908080601f0160208091040260200160405190810160405280939291908181526020018383808284378201915050505050509190803590602001908201803590602001908080601f016020809104026020016040519081016040528093929190818152602001838380828437820191505050505050919050506140b8565b005b3415610f0757600080fd5b610f57600480803590602001908201803590602001908080601f0160208091040260200160405190810160405280939291908181526020018383808284378201915050505050509190505061431c565b604051808273ffffffffffffffffffffffffffffffffffffffff1673ffffffffffffffffffffffffffffffffffffffff16815260200191505060405180910390f35b3415610fa457600080fd5b610fac614467565b6040518080602001828103825283818151815260200191508051906020019080838360005b83811015610fec578082015181840152602081019050610fd1565b50505050905090810190601f1680156110195780820380516001836020036101000a031916815260200191505b509250505060405180910390f35b341561103257600080fd5b61108b600480803590602001908201803590602001908080601f0160208091040260200160405190810160405280939291908181526020018383808284378201915050505050509190803590602001909190505061450f565b005b61124e600480803590602001908201803590602001908080601f0160208091040260200160405190810160405280939291908181526020018383808284378201915050505050509190803590602001908201803590602001908080601f0160208091040260200160405190810160405280939291908181526020018383808284378201915050505050509190803590602001908201803590602001908080601f0160208091040260200160405190810160405280939291908181526020018383808284378201915050505050509190803561ffff1690602001909190803560ff1690602001909190803590602001908201803590602001908080601f0160208091040260200160405190810160405280939291908181526020018383808284378201915050505050509190803590602001908201803590602001908080601f0160208091040260200160405190810160405280939291908181526020018383808284378201915050505050509190803590602001908201803590602001908080601f01602080910402602001604051908101604052809392919081815260200183838082843782019150505050505091908035906020019091905050614a73565b005b341561125b57600080fd5b611287600480803573ffffffffffffffffffffffffffffffffffffffff16906020019091905050614ea8565b005b341561129457600080fd5b611303600480803573ffffffffffffffffffffffffffffffffffffffff1690602001909190803590602001908201803590602001908080601f01602080910402602001604051908101604052809392919081815260200183838082843782019150505050505091905050615011565b6040518082815260200191505060405180910390f35b341561132457600080fd5b611374600480803590602001908201803590602001908080601f01602080910402602001604051908101604052809392919081815260200183838082843782019150505050505091905050615182565b6040518080602001828103825283818151815260200191508051906020019080838360005b838110156113b4578082015181840152602081019050611399565b50505050905090810190601f1680156113e15780820380516001836020036101000a031916815260200191505b509250505060405180910390f35b34156113fa57600080fd5b611426600480803573ffffffffffffffffffffffffffffffffffffffff16906020019091905050615298565b60405180806020018060200180602001848103845287818151815260200191508051906020019080838360005b8381101561146e578082015181840152602081019050611453565b50505050905090810190601f16801561149b5780820380516001836020036101000a031916815260200191505b50848103835286818151815260200191508051906020019080838360005b838110156114d45780820151818401526020810190506114b9565b50505050905090810190601f1680156115015780820380516001836020036101000a031916815260200191505b50848103825285818151815260200191508051906020019080838360005b8381101561153a57808201518184015260208101905061151f565b50505050905090810190601f1680156115675780820380516001836020036101000a031916815260200191505b50965050505050505060405180910390f35b341561158457600080fd5b611617600480803590602001908201803590602001908080601f0160208091040260200160405190810160405280939291908181526020018383808284378201915050505050509190803590602001908201803590602001908080601f0160208091040260200160405190810160405280939291908181526020018383808284378201915050505050509190505061554b565b005b341561162457600080fd5b61163a600480803590602001909190505061569c565b604051808273ffffffffffffffffffffffffffffffffffffffff1673ffffffffffffffffffffffffffffffffffffffff16815260200191505060405180910390f35b6008816040518082805190602001908083835b6020831015156116b4578051825260208201915060208101905060208303925061168f565b6001836020036101000a038019825116818451168082178552505050505050905001915050908152602001604051809103902060070160009054906101000a900460ff16151561170357600080fd5b60016008826040518082805190602001908083835b60208310151561173d5780518252602082019150602081019050602083039250611718565b6001836020036101000a038019825116818451168082178552505050505050905001915050908152602001604051809103902060070160016101000a81548160ff0219169083151502179055507fa3d914572a080b0a1e7fd9adea5dd68a4094164d8005d2e23402395627e7563e3382604051808373ffffffffffffffffffffffffffffffffffffffff1673ffffffffffffffffffffffffffffffffffffffff16815260200180602001828103825283818151815260200191508051906020019080838360005b8381101561181f578082015181840152602081019050611804565b50505050905090810190601f16801561184c5780820380516001836020036101000a031916815260200191505b50935050505060405180910390a150565b6118656156db565b60018054600181600116156101000203166002900480601f0160208091040260200160405190810160405280929190818152602001828054600181600116156101000203166002900480156118fb5780601f106118d0576101008083540402835291602001916118fb565b820191906000526020600020905b8154815290600101906020018083116118de57829003601f168201915b5050505050905090565b6000806000833373ffffffffffffffffffffffffffffffffffffffff166008826040518082805190602001908083835b60208310151561195a5780518252602082019150602081019050602083039250611935565b6001836020036101000a038019825116818451168082178552505050505050905001915050908152602001604051809103902060000160009054906101000a900473ffffffffffffffffffffffffffffffffffffffff1673ffffffffffffffffffffffffffffffffffffffff161415156119d357600080fd5b60008673ffffffffffffffffffffffffffffffffffffffff16141515156119f957600080fd5b600960008773ffffffffffffffffffffffffffffffffffffffff1673ffffffffffffffffffffffffffffffffffffffff1681526020019081526020016000208054806001018281611a4a91906156ef565b916000526020600020900160008790919091509080519060200190611a7092919061571b565b5050856008866040518082805190602001908083835b602083101515611aab5780518252602082019150602081019050602083039250611a86565b6001836020036101000a038019825116818451168082178552505050505050905001915050908152602001604051809103902060000160006101000a81548173ffffffffffffffffffffffffffffffffffffffff021916908373ffffffffffffffffffffffffffffffffffffffff160217905550600960003373ffffffffffffffffffffffffffffffffffffffff1673ffffffffffffffffffffffffffffffffffffffff1681526020019081526020016000209350611b6a3386615011565b92508291505b6001848054905003821015611be1578360018301815481101515611b9057fe5b90600052602060002090018483815481101515611ba957fe5b90600052602060002090019080546001816001161561010002031660029004611bd392919061579b565b508180600101925050611b70565b836001858054905003815481101515611bf657fe5b90600052602060002090016000611c0d9190615822565b83805480919060019003611c2191906156ef565b507f716758ace00c258050b51a9a3cf0b6c3141dd6b0808840b4a82a9f1aea7d2179338787604051808473ffffffffffffffffffffffffffffffffffffffff1673ffffffffffffffffffffffffffffffffffffffff1681526020018373ffffffffffffffffffffffffffffffffffffffff1673ffffffffffffffffffffffffffffffffffffffff16815260200180602001828103825283818151815260200191508051906020019080838360005b83811015611cea578082015181840152602081019050611ccf565b50505050905090810190601f168015611d175780820380516001836020036101000a031916815260200191505b5094505050505060405180910390a1505050505050565b6000600454905090565b6000600354905090565b600080600083866000809050600560009054906101000a900460ff1615611dd757600783815481101515611d7257fe5b906000526020600020900160009054906101000a900473ffffffffffffffffffffffffffffffffffffffff1673ffffffffffffffffffffffffffffffffffffffff163373ffffffffffffffffffffffffffffffffffffffff161415611dd657600190505b5b3373ffffffffffffffffffffffffffffffffffffffff166008836040518082805190602001908083835b602083101515611e265780518252602082019150602081019050602083039250611e01565b6001836020036101000a038019825116818451168082178552505050505050905001915050908152602001604051809103902060000160009054906101000a900473ffffffffffffffffffffffffffffffffffffffff1673ffffffffffffffffffffffffffffffffffffffff161415611e9e57600190505b801515611eaa57600080fd5b60008873ffffffffffffffffffffffffffffffffffffffff1614151515611ed057600080fd5b600960008973ffffffffffffffffffffffffffffffffffffffff1673ffffffffffffffffffffffffffffffffffffffff1681526020019081526020016000208054806001018281611f2191906156ef565b916000526020600020900160008b90919091509080519060200190611f4792919061571b565b50508760088a6040518082805190602001908083835b602083101515611f825780518252602082019150602081019050602083039250611f5d565b6001836020036101000a038019825116818451168082178552505050505050905001915050908152602001604051809103902060000160006101000a81548173ffffffffffffffffffffffffffffffffffffffff021916908373ffffffffffffffffffffffffffffffffffffffff160217905550600960003373ffffffffffffffffffffffffffffffffffffffff1673ffffffffffffffffffffffffffffffffffffffff1681526020019081526020016000209550612041338a615011565b94508493505b60018680549050038410156120b857856001850181548110151561206757fe5b9060005260206000209001868581548110151561208057fe5b906000526020600020900190805460018160011615610100020316600290046120aa92919061579b565b508380600101945050612047565b8560018780549050038154811015156120cd57fe5b906000526020600020900160006120e49190615822565b858054809190600190036120f891906156ef565b507f716758ace00c258050b51a9a3cf0b6c3141dd6b0808840b4a82a9f1aea7d217933898b604051808473ffffffffffffffffffffffffffffffffffffffff1673ffffffffffffffffffffffffffffffffffffffff1681526020018373ffffffffffffffffffffffffffffffffffffffff1673ffffffffffffffffffffffffffffffffffffffff16815260200180602001828103825283818151815260200191508051906020019080838360005b838110156121c15780820151818401526020810190506121a6565b50505050905090810190601f1680156121ee5780820380516001836020036101000a031916815260200191505b5094505050505060405180910390a1505050505050505050565b803373ffffffffffffffffffffffffffffffffffffffff166008826040518082805190602001908083835b6020831015156122585780518252602082019150602081019050602083039250612233565b6001836020036101000a038019825116818451168082178552505050505050905001915050908152602001604051809103902060000160009054906101000a900473ffffffffffffffffffffffffffffffffffffffff1673ffffffffffffffffffffffffffffffffffffffff161415156122d157600080fd5b82600a836040518082805190602001908083835b60208310151561230a57805182526020820191506020810190506020830392506122e5565b6001836020036101000a038019825116818451168082178552505050505050905001915050908152602001604051809103902060006101000a81548173ffffffffffffffffffffffffffffffffffffffff021916908373ffffffffffffffffffffffffffffffffffffffff1602179055507f1f84ad2a44b444ff59c84b14c29a0515df82fffbd26a5a923e601d8302872c91338484604051808473ffffffffffffffffffffffffffffffffffffffff1673ffffffffffffffffffffffffffffffffffffffff1681526020018373ffffffffffffffffffffffffffffffffffffffff1673ffffffffffffffffffffffffffffffffffffffff16815260200180602001828103825283818151815260200191508051906020019080838360005b83811015612443578082015181840152602081019050612428565b50505050905090810190601f1680156124705780820380516001836020036101000a031916815260200191505b5094505050505060405180910390a1505050565b61248c6156db565b600960008473ffffffffffffffffffffffffffffffffffffffff1673ffffffffffffffffffffffffffffffffffffffff16815260200190815260200160002080549050821015156124dc57600080fd5b600960008473ffffffffffffffffffffffffffffffffffffffff1673ffffffffffffffffffffffffffffffffffffffff1681526020019081526020016000208281548110151561252857fe5b90600052602060002090018054600181600116156101000203166002900480601f0160208091040260200160405190810160405280929190818152602001828054600181600116156101000203166002900480156125c75780601f1061259c576101008083540402835291602001916125c7565b820191906000526020600020905b8154815290600101906020018083116125aa57829003601f168201915b5050505050905092915050565b6125dc6156db565b6125e5836132ed565b821015156125f257600080fd5b6000821015151561260257600080fd5b600960008473ffffffffffffffffffffffffffffffffffffffff1673ffffffffffffffffffffffffffffffffffffffff1681526020019081526020016000208281548110151561264e57fe5b90600052602060002090018054600181600116156101000203166002900480601f0160208091040260200160405190810160405280929190818152602001828054600181600116156101000203166002900480156126ed5780601f106126c2576101008083540402835291602001916126ed565b820191906000526020600020905b8154815290600101906020018083116126d057829003601f168201915b5050505050905092915050565b6000600780549050905090565b6000806007600081548110151561271a57fe5b906000526020600020900160009054906101000a900473ffffffffffffffffffffffffffffffffffffffff1673ffffffffffffffffffffffffffffffffffffffff163373ffffffffffffffffffffffffffffffffffffffff1614151561277f57600080fd5b6000831415151561278f57600080fd5b600780549050831015156127a257600080fd5b6007838154811015156127b157fe5b906000526020600020900160009054906101000a900473ffffffffffffffffffffffffffffffffffffffff1691508290505b6001600780549050038110156128965760076001820181548110151561280557fe5b906000526020600020900160009054906101000a900473ffffffffffffffffffffffffffffffffffffffff1660078281548110151561284057fe5b906000526020600020900160006101000a81548173ffffffffffffffffffffffffffffffffffffffff021916908373ffffffffffffffffffffffffffffffffffffffff16021790555080806001019150506127e3565b60076001600780549050038154811015156128ad57fe5b906000526020600020900160006101000a81549073ffffffffffffffffffffffffffffffffffffffff021916905560078054809190600190036128f0919061586a565b507f1a29bff2c9a646862adbe72e92424ef5fa20a24f885a26faa7f7d2a9b71fa85e338385604051808473ffffffffffffffffffffffffffffffffffffffff1673ffffffffffffffffffffffffffffffffffffffff1681526020018373ffffffffffffffffffffffffffffffffffffffff1673ffffffffffffffffffffffffffffffffffffffff168152602001828152602001935050505060405180910390a1505050565b6000600560009054906101000a900460ff16905090565b6000600760008154811015156129be57fe5b906000526020600020900160009054906101000a900473ffffffffffffffffffffffffffffffffffffffff1673ffffffffffffffffffffffffffffffffffffffff163373ffffffffffffffffffffffffffffffffffffffff16141515612a2357600080fd5b81600560006101000a81548160ff0219169083151502179055507fb15835f532553a7dcdf4cbc59c564c64117be3bc8d5326de801b7ae7b32596fe82604051808215151515815260200191505060405180910390a1600560009054906101000a900460ff169050919050565b60006008826040518082805190602001908083835b602083101515612ac95780518252602082019150602081019050602083039250612aa4565b6001836020036101000a038019825116818451168082178552505050505050905001915050908152602001604051809103902060000160009054906101000a900473ffffffffffffffffffffffffffffffffffffffff169050919050565b60076000815481101515612b3757fe5b906000526020600020900160009054906101000a900473ffffffffffffffffffffffffffffffffffffffff1673ffffffffffffffffffffffffffffffffffffffff163373ffffffffffffffffffffffffffffffffffffffff16141515612b9c57600080fd5b8173ffffffffffffffffffffffffffffffffffffffff166108fc829081150290604051600060405180830381858888f193505050501515612bdc57600080fd5b7fb6f5e376ce04408a9cc850b6a02cd39fecd40e07a27f2d0fef9bfee119dd5ee6338383604051808473ffffffffffffffffffffffffffffffffffffffff1673ffffffffffffffffffffffffffffffffffffffff1681526020018373ffffffffffffffffffffffffffffffffffffffff1673ffffffffffffffffffffffffffffffffffffffff168152602001828152602001935050505060405180910390a15050565b600060078054905082101515612c9457600080fd5b600782815481101515612ca357fe5b906000526020600020900160009054906101000a900473ffffffffffffffffffffffffffffffffffffffff169050919050565b600033905090565b6000600654905090565b600060076000815481101515612cfa57fe5b906000526020600020900160009054906101000a900473ffffffffffffffffffffffffffffffffffffffff1673ffffffffffffffffffffffffffffffffffffffff163373ffffffffffffffffffffffffffffffffffffffff16141515612d5f57600080fd5b60078054809190600101612d73919061586a565b905081600782815481101515612d8557fe5b906000526020600020900160006101000a81548173ffffffffffffffffffffffffffffffffffffffff021916908373ffffffffffffffffffffffffffffffffffffffff1602179055507f413ee8b65d6bd98b0447a27e052163c1fb407a22fca5d3a14eb6009f4b033c4760076000815481101515612dff57fe5b906000526020600020900160009054906101000a900473ffffffffffffffffffffffffffffffffffffffff168383604051808473ffffffffffffffffffffffffffffffffffffffff1673ffffffffffffffffffffffffffffffffffffffff1681526020018373ffffffffffffffffffffffffffffffffffffffff1673ffffffffffffffffffffffffffffffffffffffff168152602001828152602001935050505060405180910390a1919050565b6000612eb76156db565b612ebf6156db565b600080612eca6156db565b612ed26156db565b612eda6156db565b600080600060088c6040518082805190602001908083835b602083101515612f175780518252602082019150602081019050602083039250612ef2565b6001836020036101000a038019825116818451168082178552505050505050905001915050908152602001604051809103902090508060000160009054906101000a900473ffffffffffffffffffffffffffffffffffffffff169a50806001018054600181600116156101000203166002900480601f01602080910402602001604051908101604052809291908181526020018280546001816001161561010002031660029004801561300b5780601f10612fe05761010080835404028352916020019161300b565b820191906000526020600020905b815481529060010190602001808311612fee57829003601f168201915b50505050509950806002018054600181600116156101000203166002900480601f0160208091040260200160405190810160405280929190818152602001828054600181600116156101000203166002900480156130aa5780601f1061307f576101008083540402835291602001916130aa565b820191906000526020600020905b81548152906001019060200180831161308d57829003601f168201915b505050505098508060030160009054906101000a900461ffff1697508060030160029054906101000a900460ff169650806004018054600181600116156101000203166002900480601f0160208091040260200160405190810160405280929190818152602001828054600181600116156101000203166002900480156131725780601f1061314757610100808354040283529160200191613172565b820191906000526020600020905b81548152906001019060200180831161315557829003601f168201915b50505050509550806005018054600181600116156101000203166002900480601f0160208091040260200160405190810160405280929190818152602001828054600181600116156101000203166002900480156132115780601f106131e657610100808354040283529160200191613211565b820191906000526020600020905b8154815290600101906020018083116131f457829003601f168201915b50505050509450806006018054600181600116156101000203166002900480601f0160208091040260200160405190810160405280929190818152602001828054600181600116156101000203166002900480156132b05780601f10613285576101008083540402835291602001916132b0565b820191906000526020600020905b81548152906001019060200180831161329357829003601f168201915b505050505093508060070160009054906101000a900460ff1692508060070160019054906101000a900460ff169150509193959799509193959799565b6000600960008373ffffffffffffffffffffffffffffffffffffffff1673ffffffffffffffffffffffffffffffffffffffff168152602001908152602001600020805490509050919050565b60003073ffffffffffffffffffffffffffffffffffffffff1631905090565b803373ffffffffffffffffffffffffffffffffffffffff166008826040518082805190602001908083835b6020831015156133a85780518252602082019150602081019050602083039250613383565b6001836020036101000a038019825116818451168082178552505050505050905001915050908152602001604051809103902060000160009054906101000a900473ffffffffffffffffffffffffffffffffffffffff1673ffffffffffffffffffffffffffffffffffffffff1614151561342157600080fd5b60006008836040518082805190602001908083835b60208310151561345b5780518252602082019150602081019050602083039250613436565b6001836020036101000a038019825116818451168082178552505050505050905001915050908152602001604051809103902060070160016101000a81548160ff0219169083151502179055507f4202624b0812e0998324706fa3926f9812c748aa0b2fb382d02b14a899e1b4633383604051808373ffffffffffffffffffffffffffffffffffffffff1673ffffffffffffffffffffffffffffffffffffffff16815260200180602001828103825283818151815260200191508051906020019080838360005b8381101561353d578082015181840152602081019050613522565b50505050905090810190601f16801561356a5780820380516001836020036101000a031916815260200191505b50935050505060405180910390a15050565b60008090505b60078054905081101561360f573373ffffffffffffffffffffffffffffffffffffffff166007828154811015156135b557fe5b906000526020600020900160009054906101000a900473ffffffffffffffffffffffffffffffffffffffff1673ffffffffffffffffffffffffffffffffffffffff1614156136025761361d565b8080600101915050613582565b6000151561361c57600080fd5b5b90565b6000813373ffffffffffffffffffffffffffffffffffffffff166008826040518082805190602001908083835b602083101515613672578051825260208201915060208101905060208303925061364d565b6001836020036101000a038019825116818451168082178552505050505050905001915050908152602001604051809103902060000160009054906101000a900473ffffffffffffffffffffffffffffffffffffffff1673ffffffffffffffffffffffffffffffffffffffff161415156136eb57600080fd5b6008836040518082805190602001908083835b60208310151561372357805182526020820191506020810190506020830392506136fe565b6001836020036101000a038019825116818451168082178552505050505050905001915050908152602001604051809103902060070160009054906101000a900460ff16151561377257600080fd5b6008836040518082805190602001908083835b6020831015156137aa5780518252602082019150602081019050602083039250613785565b6001836020036101000a038019825116818451168082178552505050505050905001915050908152602001604051809103902060070160019054906101000a900460ff1615156137f957600080fd5b6008836040518082805190602001908083835b602083101515613831578051825260208201915060208101905060208303925061380c565b6001836020036101000a0380198251168184511680821785525050505050509050019150509081526020016040518091039020915060008260070160006101000a81548160ff02191690831515021790555060008260070160016101000a81548160ff0219169083151502179055507f051b1d043fe0d8b7227ff37b4e92416cd52eba3b0b32b10168795ce1d77d74253384604051808373ffffffffffffffffffffffffffffffffffffffff1673ffffffffffffffffffffffffffffffffffffffff16815260200180602001828103825283818151815260200191508051906020019080838360005b8381101561393557808201518184015260208101905061391a565b50505050905090810190601f1680156139625780820380516001836020036101000a031916815260200191505b50935050505060405180910390a1505050565b600080600080843373ffffffffffffffffffffffffffffffffffffffff16600a826040518082805190602001908083835b6020831015156139cb57805182526020820191506020810190506020830392506139a6565b6001836020036101000a038019825116818451168082178552505050505050905001915050908152602001604051809103902060009054906101000a900473ffffffffffffffffffffffffffffffffffffffff1673ffffffffffffffffffffffffffffffffffffffff16141515613a4157600080fd5b6008866040518082805190602001908083835b602083101515613a795780518252602082019150602081019050602083039250613a54565b6001836020036101000a038019825116818451168082178552505050505050905001915050908152602001604051809103902060000160009054906101000a900473ffffffffffffffffffffffffffffffffffffffff169450600960003373ffffffffffffffffffffffffffffffffffffffff1673ffffffffffffffffffffffffffffffffffffffff1681526020019081526020016000208054806001018281613b2391906156ef565b916000526020600020900160008890919091509080519060200190613b4992919061571b565b5050336008876040518082805190602001908083835b602083101515613b845780518252602082019150602081019050602083039250613b5f565b6001836020036101000a038019825116818451168082178552505050505050905001915050908152602001604051809103902060000160006101000a81548173ffffffffffffffffffffffffffffffffffffffff021916908373ffffffffffffffffffffffffffffffffffffffff160217905550600960008673ffffffffffffffffffffffffffffffffffffffff1673ffffffffffffffffffffffffffffffffffffffff1681526020019081526020016000209350613c438587615011565b92508291505b6001848054905003821015613cba578360018301815481101515613c6957fe5b90600052602060002090018483815481101515613c8257fe5b90600052602060002090019080546001816001161561010002031660029004613cac92919061579b565b508180600101925050613c49565b836001858054905003815481101515613ccf57fe5b90600052602060002090016000613ce69190615822565b83805480919060019003613cfa91906156ef565b507f716758ace00c258050b51a9a3cf0b6c3141dd6b0808840b4a82a9f1aea7d2179853388604051808473ffffffffffffffffffffffffffffffffffffffff1673ffffffffffffffffffffffffffffffffffffffff1681526020018373ffffffffffffffffffffffffffffffffffffffff1673ffffffffffffffffffffffffffffffffffffffff16815260200180602001828103825283818151815260200191508051906020019080838360005b83811015613dc3578082015181840152602081019050613da8565b50505050905090810190601f168015613df05780820380516001836020036101000a031916815260200191505b5094505050505060405180910390a1505050505050565b826000803373ffffffffffffffffffffffffffffffffffffffff1673ffffffffffffffffffffffffffffffffffffffff1681526020019081526020016000206000019080519060200190613e5c92919061571b565b50816000803373ffffffffffffffffffffffffffffffffffffffff1673ffffffffffffffffffffffffffffffffffffffff1681526020019081526020016000206001019080519060200190613eb292919061571b565b50806000803373ffffffffffffffffffffffffffffffffffffffff1673ffffffffffffffffffffffffffffffffffffffff1681526020019081526020016000206002019080519060200190613f0892919061571b565b507faa12444512445290b181c1cce08d320b5c4e97519242b6775fbe677ca0bd22c933848484604051808573ffffffffffffffffffffffffffffffffffffffff1673ffffffffffffffffffffffffffffffffffffffff168152602001806020018060200180602001848103845287818151815260200191508051906020019080838360005b83811015613fa8578082015181840152602081019050613f8d565b50505050905090810190601f168015613fd55780820380516001836020036101000a031916815260200191505b50848103835286818151815260200191508051906020019080838360005b8381101561400e578082015181840152602081019050613ff3565b50505050905090810190601f16801561403b5780820380516001836020036101000a031916815260200191505b50848103825285818151815260200191508051906020019080838360005b83811015614074578082015181840152602081019050614059565b50505050905090810190601f1680156140a15780820380516001836020036101000a031916815260200191505b5097505050505050505060405180910390a1505050565b6000823373ffffffffffffffffffffffffffffffffffffffff166008826040518082805190602001908083835b60208310151561410a57805182526020820191506020810190506020830392506140e5565b6001836020036101000a038019825116818451168082178552505050505050905001915050908152602001604051809103902060000160009054906101000a900473ffffffffffffffffffffffffffffffffffffffff1673ffffffffffffffffffffffffffffffffffffffff1614151561418357600080fd5b6008846040518082805190602001908083835b6020831015156141bb5780518252602082019150602081019050602083039250614196565b6001836020036101000a0380198251168184511680821785525050505050509050019150509081526020016040518091039020915060018260070160006101000a81548160ff0219169083151502179055507fcf8c2bdfdea21b19585214891a7e55ae5272881ddfaa3a4fa6f8f3a71027de768484604051808060200180602001838103835285818151815260200191508051906020019080838360005b83811015614274578082015181840152602081019050614259565b50505050905090810190601f1680156142a15780820380516001836020036101000a031916815260200191505b50838103825284818151815260200191508051906020019080838360005b838110156142da5780820151818401526020810190506142bf565b50505050905090810190601f1680156143075780820380516001836020036101000a031916815260200191505b5094505050505060405180910390a150505050565b6000806008836040518082805190602001908083835b6020831015156143575780518252602082019150602081019050602083039250614332565b6001836020036101000a038019825116818451168082178552505050505050905001915050908152602001604051809103902060000160009054906101000a900473ffffffffffffffffffffffffffffffffffffffff1673ffffffffffffffffffffffffffffffffffffffff16141515156143d157600080fd5b6008826040518082805190602001908083835b60208310151561440957805182526020820191506020810190506020830392506143e4565b6001836020036101000a038019825116818451168082178552505050505050905001915050908152602001604051809103902060000160009054906101000a900473ffffffffffffffffffffffffffffffffffffffff169050919050565b61446f6156db565b60028054600181600116156101000203166002900480601f0160208091040260200160405190810160405280929190818152602001828054600181600116156101000203166002900480156145055780601f106144da57610100808354040283529160200191614505565b820191906000526020600020905b8154815290600101906020018083116144e857829003601f168201915b5050505050905090565b60008060008084866000809050600560009054906101000a900460ff16156145a55760078381548110151561454057fe5b906000526020600020900160009054906101000a900473ffffffffffffffffffffffffffffffffffffffff1673ffffffffffffffffffffffffffffffffffffffff163373ffffffffffffffffffffffffffffffffffffffff1614156145a457600190505b5b3373ffffffffffffffffffffffffffffffffffffffff166008836040518082805190602001908083835b6020831015156145f457805182526020820191506020810190506020830392506145cf565b6001836020036101000a038019825116818451168082178552505050505050905001915050908152602001604051809103902060000160009054906101000a900473ffffffffffffffffffffffffffffffffffffffff1673ffffffffffffffffffffffffffffffffffffffff16141561466c57600190505b80151561467857600080fd5b6008896040518082805190602001908083835b6020831015156146b0578051825260208201915060208101905060208303925061468b565b6001836020036101000a038019825116818451168082178552505050505050905001915050908152602001604051809103902060000160009054906101000a900473ffffffffffffffffffffffffffffffffffffffff1696506008896040518082805190602001908083835b602083101515614741578051825260208201915060208101905060208303925061471c565b6001836020036101000a0380198251168184511680821785525050505050509050019150509081526020016040518091039020600080820160006101000a81549073ffffffffffffffffffffffffffffffffffffffff02191690556001820160006147ac9190615822565b6002820160006147bc9190615822565b6003820160006101000a81549061ffff02191690556003820160026101000a81549060ff02191690556004820160006147f59190615822565b6005820160006148059190615822565b6006820160006148159190615822565b6007820160006101000a81549060ff02191690556007820160016101000a81549060ff021916905560088201600061484d9190615822565b5050600960008873ffffffffffffffffffffffffffffffffffffffff1673ffffffffffffffffffffffffffffffffffffffff168152602001908152602001600020955061489a878a615011565b94508493505b60018680549050038410156149115785600185018154811015156148c057fe5b906000526020600020900186858154811015156148d957fe5b9060005260206000209001908054600181600116156101000203166002900461490392919061579b565b5083806001019450506148a0565b85600187805490500381548110151561492657fe5b9060005260206000209001600061493d9190615822565b8580548091906001900361495191906156ef565b50600360008154809291906001900391905055507eeb05fa16ba446d38b8c543c982b1ba244b8ffac0f16d90b6802d0b3a0485d033888b604051808473ffffffffffffffffffffffffffffffffffffffff1673ffffffffffffffffffffffffffffffffffffffff1681526020018373ffffffffffffffffffffffffffffffffffffffff1673ffffffffffffffffffffffffffffffffffffffff16815260200180602001828103825283818151815260200191508051906020019080838360005b83811015614a2c578082015181840152602081019050614a11565b50505050905090810190601f168015614a595780820380516001836020036101000a031916815260200191505b5094505050505060405180910390a1505050505050505050565b600081600560009054906101000a900460ff1615614b0057600781815481101515614a9a57fe5b906000526020600020900160009054906101000a900473ffffffffffffffffffffffffffffffffffffffff1673ffffffffffffffffffffffffffffffffffffffff163373ffffffffffffffffffffffffffffffffffffffff16141515614aff57600080fd5b5b600654803410151515614b1257600080fd5b600060088d6040518082805190602001908083835b602083101515614b4c5780518252602082019150602081019050602083039250614b27565b6001836020036101000a038019825116818451168082178552505050505050905001915050908152602001604051809103902060000160009054906101000a900473ffffffffffffffffffffffffffffffffffffffff1673ffffffffffffffffffffffffffffffffffffffff16141515614bc557600080fd5b60088c6040518082805190602001908083835b602083101515614bfd5780518252602082019150602081019050602083039250614bd8565b6001836020036101000a03801982511681845116808217855250505050505090500191505090815260200160405180910390209250338360000160006101000a81548173ffffffffffffffffffffffffffffffffffffffff021916908373ffffffffffffffffffffffffffffffffffffffff1602179055508a836001019080519060200190614c8d92919061571b565b5089836002019080519060200190614ca692919061571b565b50888360030160006101000a81548161ffff021916908361ffff160217905550878360030160026101000a81548160ff021916908360ff16021790555086836004019080519060200190614cfb92919061571b565b5085836005019080519060200190614d1492919061571b565b5060008360070160006101000a81548160ff02191690831515021790555060008360070160016101000a81548160ff02191690831515021790555084836008019080519060200190614d6792919061571b565b5060036000815480929190600101919050555034600454016004819055507f5056c1ff30bed0cd453800b553b7ae9a4fbc6096c8799c04173598c3a79160318c6040518080602001828103825283818151815260200191508051906020019080838360005b83811015614de7578082015181840152602081019050614dcc565b50505050905090810190601f168015614e145780820380516001836020036101000a031916815260200191505b509250505060405180910390a1600960003373ffffffffffffffffffffffffffffffffffffffff1673ffffffffffffffffffffffffffffffffffffffff1681526020019081526020016000208054806001018281614e7291906156ef565b916000526020600020900160008e90919091509080519060200190614e9892919061571b565b5050505050505050505050505050565b60076000815481101515614eb857fe5b906000526020600020900160009054906101000a900473ffffffffffffffffffffffffffffffffffffffff1673ffffffffffffffffffffffffffffffffffffffff163373ffffffffffffffffffffffffffffffffffffffff16141515614f1d57600080fd5b8060076000815481101515614f2e57fe5b906000526020600020900160006101000a81548173ffffffffffffffffffffffffffffffffffffffff021916908373ffffffffffffffffffffffffffffffffffffffff1602179055507fb532073b38c83145e3e5135377a08bf9aab55bc0fd7c1179cd4fb995d2a5159c3382604051808373ffffffffffffffffffffffffffffffffffffffff1673ffffffffffffffffffffffffffffffffffffffff1681526020018273ffffffffffffffffffffffffffffffffffffffff1673ffffffffffffffffffffffffffffffffffffffff1681526020019250505060405180910390a150565b600080600960008573ffffffffffffffffffffffffffffffffffffffff1673ffffffffffffffffffffffffffffffffffffffff1681526020019081526020016000209050600091505b808054905082101561516d57826040518082805190602001908083835b60208310151561509c5780518252602082019150602081019050602083039250615077565b6001836020036101000a03801982511681845116808217855250505050505090500191505060405180910390206000191681838154811015156150db57fe5b906000526020600020900160405180828054600181600116156101000203166002900480156151415780601f1061511f576101008083540402835291820191615141565b820191906000526020600020905b81548152906001019060200180831161512d575b505091505060405180910390206000191614156151605781915061517b565b818060010192505061505a565b6000151561517a57600080fd5b5b5092915050565b61518a6156db565b6008826040518082805190602001908083835b6020831015156151c2578051825260208201915060208101905060208303925061519d565b6001836020036101000a03801982511681845116808217855250505050505090500191505090815260200160405180910390206008018054600181600116156101000203166002900480601f01602080910402602001604051908101604052809291908181526020018280546001816001161561010002031660029004801561528c5780601f106152615761010080835404028352916020019161528c565b820191906000526020600020905b81548152906001019060200180831161526f57829003601f168201915b50505050509050919050565b6152a06156db565b6152a86156db565b6152b06156db565b6000808573ffffffffffffffffffffffffffffffffffffffff1673ffffffffffffffffffffffffffffffffffffffff1681526020019081526020016000206000018054600181600116156101000203166002900480601f0160208091040260200160405190810160405280929190818152602001828054600181600116156101000203166002900480156153855780601f1061535a57610100808354040283529160200191615385565b820191906000526020600020905b81548152906001019060200180831161536857829003601f168201915b505050505092506000808573ffffffffffffffffffffffffffffffffffffffff1673ffffffffffffffffffffffffffffffffffffffff1681526020019081526020016000206001018054600181600116156101000203166002900480601f0160208091040260200160405190810160405280929190818152602001828054600181600116156101000203166002900480156154615780601f1061543657610100808354040283529160200191615461565b820191906000526020600020905b81548152906001019060200180831161544457829003601f168201915b505050505091506000808573ffffffffffffffffffffffffffffffffffffffff1673ffffffffffffffffffffffffffffffffffffffff1681526020019081526020016000206002018054600181600116156101000203166002900480601f01602080910402602001604051908101604052809291908181526020018280546001816001161561010002031660029004801561553d5780601f106155125761010080835404028352916020019161553d565b820191906000526020600020905b81548152906001019060200180831161552057829003601f168201915b505050505090509193909250565b813373ffffffffffffffffffffffffffffffffffffffff166008826040518082805190602001908083835b60208310151561559b5780518252602082019150602081019050602083039250615576565b6001836020036101000a038019825116818451168082178552505050505050905001915050908152602001604051809103902060000160009054906101000a900473ffffffffffffffffffffffffffffffffffffffff1673ffffffffffffffffffffffffffffffffffffffff1614151561561457600080fd5b816008846040518082805190602001908083835b60208310151561564d5780518252602082019150602081019050602083039250615628565b6001836020036101000a0380198251168184511680821785525050505050509050019150509081526020016040518091039020600801908051906020019061569692919061571b565b50505050565b6007818154811015156156ab57fe5b90600052602060002090016000915054906101000a900473ffffffffffffffffffffffffffffffffffffffff1681565b602060405190810160405280600081525090565b815481835581811511615716578183600052602060002091820191016157159190615896565b5b505050565b828054600181600116156101000203166002900490600052602060002090601f016020900481019282601f1061575c57805160ff191683800117855561578a565b8280016001018555821561578a579182015b8281111561578957825182559160200191906001019061576e565b5b50905061579791906158c2565b5090565b828054600181600116156101000203166002900490600052602060002090601f016020900481019282601f106157d45780548555615811565b8280016001018555821561581157600052602060002091601f016020900482015b828111156158105782548255916001019190600101906157f5565b5b50905061581e91906158c2565b5090565b50805460018160011615610100020316600290046000825580601f106158485750615867565b601f01602090049060005260206000209081019061586691906158c2565b5b50565b8154818355818115116158915781836000526020600020918201910161589091906158c2565b5b505050565b6158bf91905b808211156158bb57600081816158b29190615822565b5060010161589c565b5090565b90565b6158e491905b808211156158e05760008160009055506001016158c8565b5090565b905600a165627a7a72305820cb3acf8a07dd85b11bc0073fe3408019d11dd4426362ccb82dccafc5f8b7c69b0029",
  "source": "pragma solidity ^0.4.18;\n\ncontract Contacts{\n\n    struct ContactDetails{\n        string name;\n        string email;\n        string phone;\n    }\n\n    mapping(address => ContactDetails) contactList; // Owner details\n\n    event ContactDetailsAdded(address owner, string name, string email, string phone);\n\n    function addContactDetails(string _name, string _email, string _phone) public{\n        contactList[msg.sender].name = _name;\n        contactList[msg.sender].email = _email;\n        contactList[msg.sender].phone = _phone;\n        ContactDetailsAdded(msg.sender, _name, _email, _phone);\n    }\n}\n\ncontract BikeChain is Contacts{\n\n    string contractName;\n    string contractSymbol;\n    uint256 supplyNum;\n    uint256 donated;\n\n    struct Bike{\n        address owner;\n        string make;\n        string model;\n        uint16 year;\n        uint8 size;\n        string colour;\n        string features;\n        string details;\n        bool stolen;\n        bool found;\n        string infoUrl;\n    }\n\n    // Switch to turn company admin off or on\n    bool adminSwitch;\n\n    // Price to register Bike in Wei\n    uint registrationPrice;\n\n    address[] public company;\n    mapping(string => Bike) register; // Maps frame number to bike\n    mapping(address => string[]) ownerList; // Maps address to frame numbers\n    // mapping(address => uint256) balance; Maps address to number of bikes owned\n    mapping(string => address) approvedAddress; // Maps frame number to address which is approved to take ownership\n\n    modifier onlyAdmin(uint _cID){\n        if(adminSwitch) require(msg.sender == company[_cID]);\n        _;\n    }\n\n    modifier onlyAdminOrOwner(uint _cID, string _frameNumber){\n        bool test = false;\n        if(adminSwitch){\n            if(msg.sender == company[_cID]){\n                test = true;\n            }\n        }\n        if(register[_frameNumber].owner == msg.sender){\n            test = true;\n        }\n        require(test);\n        _;\n    }\n\n    modifier onlyCompany(uint _cID){\n        require(msg.sender == company[_cID]);\n        _;\n    }\n\n    modifier onlyCompanyOrOwner(uint _cID, string _frameNumber){\n        bool test = false;\n        if(msg.sender == company[_cID]){\n            test = true;\n        }\n        if(register[_frameNumber].owner == msg.sender){\n            test = true;\n        }\n        require(test);\n        _;\n    }\n\n    modifier onlyContractCreator(){\n        require(msg.sender == company[0]);\n        _;\n    }\n\n    modifier bikeOwner(string _frameNumber){\n        require(register[_frameNumber].owner == msg.sender);\n        _;\n    }\n\n    modifier hasApproval(string _frameNumber){\n        require(approvedAddress[_frameNumber] == msg.sender);\n        _;\n    }\n\n    modifier costs(uint _price) {\n        require(msg.value >= _price);\n            _;\n    }\n\n    event Approval(address owner, address to, string frameNumber);\n    event BikeCreated(string frameNumber);\n    event BikeRemoved(address company, address owner, string frameNumber);\n    event BikeTransfered(address from, address to, string frameNumber);\n    event BikeStolen(string frameNumber, string details);\n    event BikeFound(address finder, string frameNumber);\n    event BikeNotFound(address finder, string frameNumber);\n    event BikeReturned(address owner, string frameNumber);\n    event CompanyAdded(address admin, address company, uint cID);\n    event CompanyRemoved(address admin, address company, uint cID);\n    event OwnerChanged(address from, address to);\n    event EtherWithdrawn(address from, address to, uint value);\n    event AdminSwitchChanged(bool status);\n\n    function BikeChain() public{\n        company.length++;\n        company[0] = msg.sender;\n        registrationPrice = 10000000000000000;\n        adminSwitch = false;\n        contractName = \"Bike-Token\";\n        contractSymbol = \"\";\n        supplyNum = 0;\n    }\n\n    // Begin Temporary functions\n\n    function getSender() constant public returns(address){\n      return msg.sender;\n    }\n\n    // End Temporary functions\n\n    // Begin ERC-721 Standard Functions\n\n    function name() constant public returns (string){\n      return contractName;\n    }\n\n    function symbol() constant public returns (string){\n      return contractSymbol;\n    }\n\n    function totalSupply() constant public returns (uint256){\n      return supplyNum;\n    }\n\n    function balanceOf(address _owner) constant public returns (uint256){\n      return ownerList[_owner].length;\n    }\n\n    function ownerOf(string _frameNumber) constant public returns (address){\n      require(register[_frameNumber].owner != 0);\n      return register[_frameNumber].owner;\n    }\n\n    function approve(address _to, string _frameNumber) bikeOwner(_frameNumber) public{\n      approvedAddress[_frameNumber] = _to;\n      Approval(msg.sender, _to, _frameNumber);\n    }\n\n    function takeOwnership(string _frameNumber) hasApproval(_frameNumber) public{\n      address oldOwner = register[_frameNumber].owner;\n      ownerList[msg.sender].push(_frameNumber);\n      register[_frameNumber].owner = msg.sender;\n      string[] storage fn = ownerList[oldOwner];\n      uint index = getFrameIndex(oldOwner, _frameNumber);\n      for (uint i = index; i < fn.length-1; i++){\n        fn[i] = fn[i+1];\n      }\n      delete fn[fn.length-1];\n      fn.length--;\n\n      BikeTransfered(oldOwner, msg.sender, _frameNumber);\n    }\n\n    function transfer(address _to, string _frameNumber) bikeOwner(_frameNumber) public{\n      require(_to != 0);\n      ownerList[_to].push(_frameNumber);\n      register[_frameNumber].owner = _to;\n      string[] storage fn = ownerList[msg.sender];\n      uint index = getFrameIndex(msg.sender, _frameNumber);\n      for (uint i = index; i < fn.length-1; i++){\n        fn[i] = fn[i+1];\n      }\n      delete fn[fn.length-1];\n      fn.length--;\n\n      BikeTransfered(msg.sender, _to, _frameNumber);\n    }\n\n    function tokenOfOwnerByIndex(address _owner, uint256 _index) constant public returns (string frameNumber){\n      require(_index < balanceOf(_owner));\n      require(_index >= 0);\n      frameNumber = ownerList[_owner][_index];\n    }\n\n    function tokenMetadata(string _frameNumber) constant public returns (string){\n      return register[_frameNumber].infoUrl;\n    }\n\n    function updateTokenMetadata(string _frameNumber, string _infoUrl) bikeOwner(_frameNumber) public{\n      register[_frameNumber].infoUrl = _infoUrl;\n    }\n\n    // End ERC-721 Standard Functions\n\n    function () payable public{\n      donated = donated + msg.value;\n    }\n\n    function withdrawEther(address _to, uint _value) onlyContractCreator() public{\n        //require(this.balance > _value);\n        _to.transfer(_value);\n        EtherWithdrawn(msg.sender, _to, _value);\n    }\n\n    function addBike(string _frameNumber, string _make, string _model, uint16 _year, uint8 _size, string _colour, string _features, string _infoUrl, uint _cID)\n    payable onlyAdmin(_cID) costs(registrationPrice) public{\n        require(register[_frameNumber].owner == 0); // Check bike isn't owned\n\n        Bike storage b = register[_frameNumber];\n        b.owner = msg.sender;\n        b.make = _make;\n        b.model = _model;\n        b.year = _year;\n        b.size = _size;\n        b.colour = _colour;\n        b.features = _features;\n        b.stolen = false;\n        b.found = false;\n        b.infoUrl = _infoUrl;\n        supplyNum++;\n        donated = donated + msg.value;\n        BikeCreated(_frameNumber);\n\n        ownerList[msg.sender].push(_frameNumber);\n    }\n\n    function addCompany(address _newCompany) onlyContractCreator() public returns(uint newcID){\n        newcID = company.length++;\n        company[newcID] = _newCompany;\n        CompanyAdded(company[0], _newCompany, newcID);\n    }\n\n    function reportStolen(string _frameNumber, string _details) bikeOwner(_frameNumber) public{\n        Bike storage b = register[_frameNumber];\n        b.stolen = true;\n        BikeStolen(_frameNumber, _details);\n    }\n\n    function reportFound(string _frameNumber) public{\n        require(register[_frameNumber].stolen);\n        register[_frameNumber].found = true;\n        BikeFound(msg.sender, _frameNumber);\n    }\n\n    function reportNotFound(string _frameNumber) bikeOwner(_frameNumber) public{\n        register[_frameNumber].found = false;\n        BikeNotFound(msg.sender, _frameNumber);\n    }\n\n    function reportReturned(string _frameNumber) bikeOwner(_frameNumber) public{\n        require(register[_frameNumber].stolen);\n        require(register[_frameNumber].found);\n        Bike storage b = register[_frameNumber];\n        b.stolen = false;\n        b.found = false;\n        BikeReturned(msg.sender, _frameNumber);\n    }\n\n    function transferOwner(string _frameNumber, address _newOwner, uint _cID) onlyAdminOrOwner(_cID, _frameNumber) public{\n        require(_newOwner != 0);\n        ownerList[_newOwner].push(_frameNumber);\n        register[_frameNumber].owner = _newOwner;\n        string[] storage fn = ownerList[msg.sender];\n        uint index = getFrameIndex(msg.sender, _frameNumber);\n        for (uint i = index; i < fn.length-1; i++){\n          fn[i] = fn[i+1];\n        }\n        delete fn[fn.length-1];\n        fn.length--;\n\n        BikeTransfered(msg.sender, _newOwner, _frameNumber);\n    }\n\n    function removeBike(string _frameNumber, uint _cID) onlyAdminOrOwner(_cID, _frameNumber) public{\n        address owner = register[_frameNumber].owner;\n        delete register[_frameNumber];\n        string[] storage fn = ownerList[owner];\n        uint index = getFrameIndex(owner, _frameNumber);\n        for (uint i = index; i < fn.length-1; i++){\n          fn[i] = fn[i+1];\n        }\n        delete fn[fn.length-1];\n        fn.length--;\n        supplyNum--;\n\n        BikeRemoved(msg.sender, owner, _frameNumber);\n    }\n\n    // Only contract creator can remove companies\n    function removeCompany(uint _cID) onlyContractCreator() public{\n        require(_cID != 0); // Cant remove contract creator\n        require(_cID < company.length);\n        address companyAddress = company[_cID];\n        for (uint i = _cID; i < company.length-1; i++){\n          company[i] = company[i+1];\n        }\n        delete company[company.length-1];\n        company.length--;\n\n        CompanyRemoved(msg.sender, companyAddress, _cID);\n    }\n\n    function changeOwner(address _newOwner) onlyContractCreator() public{\n        company[0] = _newOwner;\n        OwnerChanged(msg.sender, _newOwner);\n    }\n\n    function changeAdminSwitch(bool _status) public returns(bool){\n        require(msg.sender == company[0]);\n        adminSwitch = _status;\n        AdminSwitchChanged(_status);\n        return adminSwitch;\n    }\n\n    // Get functions\n    function getBike(string _frameNumber) constant public\n    returns(address owner, string make, string model, uint16 year, uint8 size, string colour, string features, string details, bool stolen, bool found){\n\n    Bike storage b = register[_frameNumber];\n    owner = b.owner;\n    make = b.make;\n    model = b.model;\n    year = b.year;\n    size = b.size;\n    colour = b.colour;\n    features = b.features;\n    details = b.details;\n    stolen = b.stolen;\n    found = b.found;\n    }\n\n    function getFrameIndex(address _owner, string _frameNumber) constant public returns(uint i){\n        string[] storage fn = ownerList[_owner];\n        for(i = 0; i < fn.length; i++){\n            if(keccak256(fn[i]) == keccak256(_frameNumber)) return i;\n        }\n        require(false); // Fail if not found\n    }\n\n    function getFrameNumber(address _owner, uint _index) constant public returns(string frameNumber){\n        require(_index < ownerList[_owner].length);\n        frameNumber = ownerList[_owner][_index];\n    }\n\n    function getCompany(uint _cID) constant public returns(address co){\n        require(_cID < company.length);\n        co = company[_cID];\n    }\n\n    function getCompanyID() constant public returns(uint id){\n        for(id = 0; id < company.length; id++){\n            if(company[id] == msg.sender) return;\n        }\n        require(false); // Fail if not found\n    }\n\n    function getCompanyLength() constant public returns(uint len){\n        len = company.length;\n    }\n\n    function getContactDetails(address _owner) constant public\n    returns(string contactName, string email, string phone){\n        contactName = contactList[_owner].name;\n        email = contactList[_owner].email;\n        phone = contactList[_owner].phone;\n    }\n\n    function getOwner(string _frameNumber) constant public returns(address owner){\n        owner = register[_frameNumber].owner;\n    }\n\n    function getEthBalance() constant public returns (uint) { return this.balance; }\n\n    function getEthDonated() constant public returns (uint) { return donated; }\n\n    function getAdminSwitch() constant public returns(bool) { return adminSwitch; }\n\n    function getRegistrationPrice() constant public returns(uint)\n    { return registrationPrice; }\n}\n",
  "sourcePath": "/home/safid1/Ethereum/bikechain/contracts/BikeChain.sol",
  "compiler": {
    "name": "solc",
    "version": "0.4.18+commit.9cf6e910.Emscripten.clang"
  },
  "schemaVersion": "1.0.1",
  "updatedAt": "2018-01-05T16:46:30.743Z"
}