{
  "contractName": "BikeChain",
  "abi": [
    {
      "constant": true,
      "inputs": [],
      "name": "name",
      "outputs": [
        {
          "name": "",
          "type": "string"
        }
      ],
      "payable": false,
      "stateMutability": "view",
      "type": "function"
    },
    {
      "constant": false,
      "inputs": [
        {
          "name": "_to",
          "type": "address"
        },
        {
          "name": "_frameNumber",
          "type": "string"
        }
      ],
      "name": "transfer",
      "outputs": [],
      "payable": false,
      "stateMutability": "nonpayable",
      "type": "function"
    },
    {
      "constant": true,
      "inputs": [],
      "name": "getEthDonated",
      "outputs": [
        {
          "name": "",
          "type": "uint256"
        }
      ],
      "payable": false,
      "stateMutability": "view",
      "type": "function"
    },
    {
      "constant": true,
      "inputs": [],
      "name": "totalSupply",
      "outputs": [
        {
          "name": "",
          "type": "uint256"
        }
      ],
      "payable": false,
      "stateMutability": "view",
      "type": "function"
    },
    {
      "constant": false,
      "inputs": [
        {
          "name": "_frameNumber",
          "type": "string"
        },
        {
          "name": "_newOwner",
          "type": "address"
        },
        {
          "name": "_cID",
          "type": "uint256"
        }
      ],
      "name": "transferOwner",
      "outputs": [],
      "payable": false,
      "stateMutability": "nonpayable",
      "type": "function"
    },
    {
      "constant": false,
      "inputs": [
        {
          "name": "_to",
          "type": "address"
        },
        {
          "name": "_frameNumber",
          "type": "string"
        }
      ],
      "name": "approve",
      "outputs": [],
      "payable": false,
      "stateMutability": "nonpayable",
      "type": "function"
    },
    {
      "constant": true,
      "inputs": [
        {
          "name": "_owner",
          "type": "address"
        },
        {
          "name": "_index",
          "type": "uint256"
        }
      ],
      "name": "getFrameNumber",
      "outputs": [
        {
          "name": "frameNumber",
          "type": "string"
        }
      ],
      "payable": false,
      "stateMutability": "view",
      "type": "function"
    },
    {
      "constant": true,
      "inputs": [
        {
          "name": "_owner",
          "type": "address"
        },
        {
          "name": "_index",
          "type": "uint256"
        }
      ],
      "name": "tokenOfOwnerByIndex",
      "outputs": [
        {
          "name": "frameNumber",
          "type": "string"
        }
      ],
      "payable": false,
      "stateMutability": "view",
      "type": "function"
    },
    {
      "constant": true,
      "inputs": [],
      "name": "getCompanyLength",
      "outputs": [
        {
          "name": "len",
          "type": "uint256"
        }
      ],
      "payable": false,
      "stateMutability": "view",
      "type": "function"
    },
    {
      "constant": false,
      "inputs": [
        {
          "name": "_cID",
          "type": "uint256"
        }
      ],
      "name": "removeCompany",
      "outputs": [],
      "payable": false,
      "stateMutability": "nonpayable",
      "type": "function"
    },
    {
      "constant": true,
      "inputs": [],
      "name": "getAdminSwitch",
      "outputs": [
        {
          "name": "",
          "type": "bool"
        }
      ],
      "payable": false,
      "stateMutability": "view",
      "type": "function"
    },
    {
      "constant": false,
      "inputs": [
        {
          "name": "_status",
          "type": "bool"
        }
      ],
      "name": "changeAdminSwitch",
      "outputs": [
        {
          "name": "",
          "type": "bool"
        }
      ],
      "payable": false,
      "stateMutability": "nonpayable",
      "type": "function"
    },
    {
      "constant": true,
      "inputs": [
        {
          "name": "_frameNumber",
          "type": "string"
        }
      ],
      "name": "getOwner",
      "outputs": [
        {
          "name": "owner",
          "type": "address"
        }
      ],
      "payable": false,
      "stateMutability": "view",
      "type": "function"
    },
    {
      "constant": false,
      "inputs": [
        {
          "name": "_to",
          "type": "address"
        },
        {
          "name": "_value",
          "type": "uint256"
        }
      ],
      "name": "withdrawEther",
      "outputs": [],
      "payable": false,
      "stateMutability": "nonpayable",
      "type": "function"
    },
    {
      "constant": true,
      "inputs": [
        {
          "name": "_cID",
          "type": "uint256"
        }
      ],
      "name": "getCompany",
      "outputs": [
        {
          "name": "co",
          "type": "address"
        }
      ],
      "payable": false,
      "stateMutability": "view",
      "type": "function"
    },
    {
      "constant": false,
      "inputs": [
        {
          "name": "_frameNumber",
          "type": "string"
        },
        {
          "name": "_details",
          "type": "string"
        }
      ],
      "name": "reportFound",
      "outputs": [],
      "payable": false,
      "stateMutability": "nonpayable",
      "type": "function"
    },
    {
      "constant": true,
      "inputs": [],
      "name": "getSender",
      "outputs": [
        {
          "name": "",
          "type": "address"
        }
      ],
      "payable": false,
      "stateMutability": "view",
      "type": "function"
    },
    {
      "constant": true,
      "inputs": [],
      "name": "getRegistrationPrice",
      "outputs": [
        {
          "name": "",
          "type": "uint256"
        }
      ],
      "payable": false,
      "stateMutability": "view",
      "type": "function"
    },
    {
      "constant": false,
      "inputs": [
        {
          "name": "_newCompany",
          "type": "address"
        }
      ],
      "name": "addCompany",
      "outputs": [
        {
          "name": "newcID",
          "type": "uint256"
        }
      ],
      "payable": false,
      "stateMutability": "nonpayable",
      "type": "function"
    },
    {
      "constant": true,
      "inputs": [
        {
          "name": "_frameNumber",
          "type": "string"
        }
      ],
      "name": "getBike",
      "outputs": [
        {
          "name": "owner",
          "type": "address"
        },
        {
          "name": "make",
          "type": "string"
        },
        {
          "name": "model",
          "type": "string"
        },
        {
          "name": "year",
          "type": "uint16"
        },
        {
          "name": "size",
          "type": "uint8"
        },
        {
          "name": "colour",
          "type": "string"
        },
        {
          "name": "features",
          "type": "string"
        },
        {
          "name": "details",
          "type": "string"
        },
        {
          "name": "stolen",
          "type": "bool"
        },
        {
          "name": "found",
          "type": "bool"
        }
      ],
      "payable": false,
      "stateMutability": "view",
      "type": "function"
    },
    {
      "constant": true,
      "inputs": [
        {
          "name": "_owner",
          "type": "address"
        }
      ],
      "name": "balanceOf",
      "outputs": [
        {
          "name": "",
          "type": "uint256"
        }
      ],
      "payable": false,
      "stateMutability": "view",
      "type": "function"
    },
    {
      "constant": true,
      "inputs": [],
      "name": "getEthBalance",
      "outputs": [
        {
          "name": "",
          "type": "uint256"
        }
      ],
      "payable": false,
      "stateMutability": "view",
      "type": "function"
    },
    {
      "constant": false,
      "inputs": [
        {
          "name": "_frameNumber",
          "type": "string"
        }
      ],
      "name": "reportNotFound",
      "outputs": [],
      "payable": false,
      "stateMutability": "nonpayable",
      "type": "function"
    },
    {
      "constant": true,
      "inputs": [],
      "name": "getCompanyID",
      "outputs": [
        {
          "name": "id",
          "type": "uint256"
        }
      ],
      "payable": false,
      "stateMutability": "view",
      "type": "function"
    },
    {
      "constant": false,
      "inputs": [
        {
          "name": "_frameNumber",
          "type": "string"
        }
      ],
      "name": "reportReturned",
      "outputs": [],
      "payable": false,
      "stateMutability": "nonpayable",
      "type": "function"
    },
    {
      "constant": false,
      "inputs": [
        {
          "name": "_frameNumber",
          "type": "string"
        }
      ],
      "name": "takeOwnership",
      "outputs": [],
      "payable": false,
      "stateMutability": "nonpayable",
      "type": "function"
    },
    {
      "constant": false,
      "inputs": [
        {
          "name": "_name",
          "type": "string"
        },
        {
          "name": "_email",
          "type": "string"
        },
        {
          "name": "_phone",
          "type": "string"
        }
      ],
      "name": "addContactDetails",
      "outputs": [],
      "payable": false,
      "stateMutability": "nonpayable",
      "type": "function"
    },
    {
      "constant": false,
      "inputs": [
        {
          "name": "_frameNumber",
          "type": "string"
        },
        {
          "name": "_details",
          "type": "string"
        }
      ],
      "name": "reportStolen",
      "outputs": [],
      "payable": false,
      "stateMutability": "nonpayable",
      "type": "function"
    },
    {
      "constant": true,
      "inputs": [
        {
          "name": "_frameNumber",
          "type": "string"
        }
      ],
      "name": "ownerOf",
      "outputs": [
        {
          "name": "",
          "type": "address"
        }
      ],
      "payable": false,
      "stateMutability": "view",
      "type": "function"
    },
    {
      "constant": true,
      "inputs": [],
      "name": "symbol",
      "outputs": [
        {
          "name": "",
          "type": "string"
        }
      ],
      "payable": false,
      "stateMutability": "view",
      "type": "function"
    },
    {
      "constant": false,
      "inputs": [
        {
          "name": "_frameNumber",
          "type": "string"
        },
        {
          "name": "_cID",
          "type": "uint256"
        }
      ],
      "name": "removeBike",
      "outputs": [],
      "payable": false,
      "stateMutability": "nonpayable",
      "type": "function"
    },
    {
      "constant": false,
      "inputs": [
        {
          "name": "_frameNumber",
          "type": "string"
        },
        {
          "name": "_make",
          "type": "string"
        },
        {
          "name": "_model",
          "type": "string"
        },
        {
          "name": "_year",
          "type": "uint16"
        },
        {
          "name": "_size",
          "type": "uint8"
        },
        {
          "name": "_colour",
          "type": "string"
        },
        {
          "name": "_features",
          "type": "string"
        },
        {
          "name": "_infoUrl",
          "type": "string"
        },
        {
          "name": "_cID",
          "type": "uint256"
        }
      ],
      "name": "addBike",
      "outputs": [],
      "payable": true,
      "stateMutability": "payable",
      "type": "function"
    },
    {
      "constant": false,
      "inputs": [
        {
          "name": "_newOwner",
          "type": "address"
        }
      ],
      "name": "changeOwner",
      "outputs": [],
      "payable": false,
      "stateMutability": "nonpayable",
      "type": "function"
    },
    {
      "constant": true,
      "inputs": [
        {
          "name": "_owner",
          "type": "address"
        },
        {
          "name": "_frameNumber",
          "type": "string"
        }
      ],
      "name": "getFrameIndex",
      "outputs": [
        {
          "name": "i",
          "type": "uint256"
        }
      ],
      "payable": false,
      "stateMutability": "view",
      "type": "function"
    },
    {
      "constant": true,
      "inputs": [
        {
          "name": "_frameNumber",
          "type": "string"
        }
      ],
      "name": "tokenMetadata",
      "outputs": [
        {
          "name": "",
          "type": "string"
        }
      ],
      "payable": false,
      "stateMutability": "view",
      "type": "function"
    },
    {
      "constant": true,
      "inputs": [
        {
          "name": "_owner",
          "type": "address"
        }
      ],
      "name": "getContactDetails",
      "outputs": [
        {
          "name": "contactName",
          "type": "string"
        },
        {
          "name": "email",
          "type": "string"
        },
        {
          "name": "phone",
          "type": "string"
        }
      ],
      "payable": false,
      "stateMutability": "view",
      "type": "function"
    },
    {
      "constant": false,
      "inputs": [
        {
          "name": "_frameNumber",
          "type": "string"
        },
        {
          "name": "_infoUrl",
          "type": "string"
        }
      ],
      "name": "updateTokenMetadata",
      "outputs": [],
      "payable": false,
      "stateMutability": "nonpayable",
      "type": "function"
    },
    {
      "constant": true,
      "inputs": [
        {
          "name": "",
          "type": "uint256"
        }
      ],
      "name": "company",
      "outputs": [
        {
          "name": "",
          "type": "address"
        }
      ],
      "payable": false,
      "stateMutability": "view",
      "type": "function"
    },
    {
      "inputs": [],
      "payable": false,
      "stateMutability": "nonpayable",
      "type": "constructor"
    },
    {
      "payable": true,
      "stateMutability": "payable",
      "type": "fallback"
    },
    {
      "anonymous": false,
      "inputs": [
        {
          "indexed": false,
          "name": "owner",
          "type": "address"
        },
        {
          "indexed": false,
          "name": "to",
          "type": "address"
        },
        {
          "indexed": false,
          "name": "frameNumber",
          "type": "string"
        }
      ],
      "name": "Approval",
      "type": "event"
    },
    {
      "anonymous": false,
      "inputs": [
        {
          "indexed": false,
          "name": "frameNumber",
          "type": "string"
        }
      ],
      "name": "BikeCreated",
      "type": "event"
    },
    {
      "anonymous": false,
      "inputs": [
        {
          "indexed": false,
          "name": "company",
          "type": "address"
        },
        {
          "indexed": false,
          "name": "owner",
          "type": "address"
        },
        {
          "indexed": false,
          "name": "frameNumber",
          "type": "string"
        }
      ],
      "name": "BikeRemoved",
      "type": "event"
    },
    {
      "anonymous": false,
      "inputs": [
        {
          "indexed": false,
          "name": "from",
          "type": "address"
        },
        {
          "indexed": false,
          "name": "to",
          "type": "address"
        },
        {
          "indexed": false,
          "name": "frameNumber",
          "type": "string"
        }
      ],
      "name": "BikeTransfered",
      "type": "event"
    },
    {
      "anonymous": false,
      "inputs": [
        {
          "indexed": false,
          "name": "frameNumber",
          "type": "string"
        },
        {
          "indexed": false,
          "name": "details",
          "type": "string"
        }
      ],
      "name": "BikeStolen",
      "type": "event"
    },
    {
      "anonymous": false,
      "inputs": [
        {
          "indexed": false,
          "name": "finder",
          "type": "address"
        },
        {
          "indexed": false,
          "name": "frameNumber",
          "type": "string"
        }
      ],
      "name": "BikeFound",
      "type": "event"
    },
    {
      "anonymous": false,
      "inputs": [
        {
          "indexed": false,
          "name": "finder",
          "type": "address"
        },
        {
          "indexed": false,
          "name": "frameNumber",
          "type": "string"
        }
      ],
      "name": "BikeNotFound",
      "type": "event"
    },
    {
      "anonymous": false,
      "inputs": [
        {
          "indexed": false,
          "name": "owner",
          "type": "address"
        },
        {
          "indexed": false,
          "name": "frameNumber",
          "type": "string"
        }
      ],
      "name": "BikeReturned",
      "type": "event"
    },
    {
      "anonymous": false,
      "inputs": [
        {
          "indexed": false,
          "name": "admin",
          "type": "address"
        },
        {
          "indexed": false,
          "name": "company",
          "type": "address"
        },
        {
          "indexed": false,
          "name": "cID",
          "type": "uint256"
        }
      ],
      "name": "CompanyAdded",
      "type": "event"
    },
    {
      "anonymous": false,
      "inputs": [
        {
          "indexed": false,
          "name": "admin",
          "type": "address"
        },
        {
          "indexed": false,
          "name": "company",
          "type": "address"
        },
        {
          "indexed": false,
          "name": "cID",
          "type": "uint256"
        }
      ],
      "name": "CompanyRemoved",
      "type": "event"
    },
    {
      "anonymous": false,
      "inputs": [
        {
          "indexed": false,
          "name": "from",
          "type": "address"
        },
        {
          "indexed": false,
          "name": "to",
          "type": "address"
        }
      ],
      "name": "OwnerChanged",
      "type": "event"
    },
    {
      "anonymous": false,
      "inputs": [
        {
          "indexed": false,
          "name": "from",
          "type": "address"
        },
        {
          "indexed": false,
          "name": "to",
          "type": "address"
        },
        {
          "indexed": false,
          "name": "value",
          "type": "uint256"
        }
      ],
      "name": "EtherWithdrawn",
      "type": "event"
    },
    {
      "anonymous": false,
      "inputs": [
        {
          "indexed": false,
          "name": "status",
          "type": "bool"
        }
      ],
      "name": "AdminSwitchChanged",
      "type": "event"
    },
    {
      "anonymous": false,
      "inputs": [
        {
          "indexed": false,
          "name": "owner",
          "type": "address"
        },
        {
          "indexed": false,
          "name": "name",
          "type": "string"
        },
        {
          "indexed": false,
          "name": "email",
          "type": "string"
        },
        {
          "indexed": false,
          "name": "phone",
          "type": "string"
        }
      ],
      "name": "ContactDetailsAdded",
      "type": "event"
    }
  ],
  "bytecode": "0x606060405234156200001057600080fd5b6007805480919060010162000026919062000155565b5033600760008154811015156200003957fe5b906000526020600020900160006101000a81548173ffffffffffffffffffffffffffffffffffffffff021916908373ffffffffffffffffffffffffffffffffffffffff160217905550662386f26fc100006006819055506000600560006101000a81548160ff0219169083151502179055506040805190810160405280600a81526020017f42696b652d546f6b656e0000000000000000000000000000000000000000000081525060019080519060200190620000f892919062000184565b506040805190810160405280600481526020017ff09f9ab200000000000000000000000000000000000000000000000000000000815250600290805190602001906200014692919062000184565b50600060038190555062000233565b8154818355818115116200017f578183600052602060002091820191016200017e91906200020b565b5b505050565b828054600181600116156101000203166002900490600052602060002090601f016020900481019282601f10620001c757805160ff1916838001178555620001f8565b82800160010185558215620001f8579182015b82811115620001f7578251825591602001919060010190620001da565b5b5090506200020791906200020b565b5090565b6200023091905b808211156200022c57600081600090555060010162000212565b5090565b90565b61599f80620002436000396000f3006060604052600436106101d8576000357c0100000000000000000000000000000000000000000000000000000000900463ffffffff16806306fdde03146101e557806309886649146102735780630e02b72a146102ef57806318160ddd14610318578063197950aa1461034157806329cd00f7146103c65780632a394a97146104425780632f745c59146104fd57806334aac07d146105b85780633f21d44c146105e1578063444ff68b1461060457806348471dbb146106315780634aaf4a121461066e578063522f68151461070b57806357d139171461074d57806357e6eff6146107b05780635e01eb5a1461085057806362e59b2b146108a5578063634513ca146108ce57806364c9f3881461091b57806370a0823114610c0657806370ed0ada14610c5357806373d27bb514610c7c57806375adf9d414610cd957806382beeb3b14610d025780638945b1fc14610d5f5780638c98234914610dbc57806391904ff814610e9f578063920ffa2614610f3f57806395d89b4114610fdc5780639f6d56971461106a578063a0160455146110d0578063a6f9dae114611293578063a70c53bd146112cc578063b1e1ff3a1461135c578063cf3dcea614611432578063e5442026146115bc578063eacebba31461165c575b3460045401600481905550005b34156101f057600080fd5b6101f86116bf565b6040518080602001828103825283818151815260200191508051906020019080838360005b8381101561023857808201518184015260208101905061021d565b50505050905090810190601f1680156102655780820380516001836020036101000a031916815260200191505b509250505060405180910390f35b341561027e57600080fd5b6102ed600480803573ffffffffffffffffffffffffffffffffffffffff1690602001909190803590602001908201803590602001908080601f01602080910402602001604051908101604052809392919081815260200183838082843782019150505050505091905050611767565b005b34156102fa57600080fd5b610302611b90565b6040518082815260200191505060405180910390f35b341561032357600080fd5b61032b611b9a565b6040518082815260200191505060405180910390f35b341561034c57600080fd5b6103c4600480803590602001908201803590602001908080601f0160208091040260200160405190810160405280939291908181526020018383808284378201915050505050509190803573ffffffffffffffffffffffffffffffffffffffff16906020019091908035906020019091905050611ba4565b005b34156103d157600080fd5b610440600480803573ffffffffffffffffffffffffffffffffffffffff1690602001909190803590602001908201803590602001908080601f0160208091040260200160405190810160405280939291908181526020018383808284378201915050505050509190505061206a565b005b341561044d57600080fd5b610482600480803573ffffffffffffffffffffffffffffffffffffffff169060200190919080359060200190919050506122e6565b6040518080602001828103825283818151815260200191508051906020019080838360005b838110156104c25780820151818401526020810190506104a7565b50505050905090810190601f1680156104ef5780820380516001836020036101000a031916815260200191505b509250505060405180910390f35b341561050857600080fd5b61053d600480803573ffffffffffffffffffffffffffffffffffffffff16906020019091908035906020019091905050612436565b6040518080602001828103825283818151815260200191508051906020019080838360005b8381101561057d578082015181840152602081019050610562565b50505050905090810190601f1680156105aa5780820380516001836020036101000a031916815260200191505b509250505060405180910390f35b34156105c357600080fd5b6105cb61255c565b6040518082815260200191505060405180910390f35b34156105ec57600080fd5b6106026004808035906020019091905050612569565b005b341561060f57600080fd5b6106176127f7565b604051808215151515815260200191505060405180910390f35b341561063c57600080fd5b6106546004808035151590602001909190505061280e565b604051808215151515815260200191505060405180910390f35b341561067957600080fd5b6106c9600480803590602001908201803590602001908080601f016020809104026020016040519081016040528093929190818152602001838380828437820191505050505050919050506128f1565b604051808273ffffffffffffffffffffffffffffffffffffffff1673ffffffffffffffffffffffffffffffffffffffff16815260200191505060405180910390f35b341561071657600080fd5b61074b600480803573ffffffffffffffffffffffffffffffffffffffff16906020019091908035906020019091905050612989565b005b341561075857600080fd5b61076e6004808035906020019091905050612ae1565b604051808273ffffffffffffffffffffffffffffffffffffffff1673ffffffffffffffffffffffffffffffffffffffff16815260200191505060405180910390f35b34156107bb57600080fd5b61084e600480803590602001908201803590602001908080601f0160208091040260200160405190810160405280939291908181526020018383808284378201915050505050509190803590602001908201803590602001908080601f01602080910402602001604051908101604052809392919081815260200183838082843782019150505050505091905050612b38565b005b341561085b57600080fd5b610863612d39565b604051808273ffffffffffffffffffffffffffffffffffffffff1673ffffffffffffffffffffffffffffffffffffffff16815260200191505060405180910390f35b34156108b057600080fd5b6108b8612d41565b6040518082815260200191505060405180910390f35b34156108d957600080fd5b610905600480803573ffffffffffffffffffffffffffffffffffffffff16906020019091905050612d4b565b6040518082815260200191505060405180910390f35b341561092657600080fd5b610976600480803590602001908201803590602001908080601f01602080910402602001604051908101604052809392919081815260200183838082843782019150505050505091905050612f10565b604051808b73ffffffffffffffffffffffffffffffffffffffff1673ffffffffffffffffffffffffffffffffffffffff16815260200180602001806020018a61ffff1661ffff1681526020018960ff1660ff168152602001806020018060200180602001881515151581526020018715151515815260200186810386528f818151815260200191508051906020019080838360005b83811015610a26578082015181840152602081019050610a0b565b50505050905090810190601f168015610a535780820380516001836020036101000a031916815260200191505b5086810385528e818151815260200191508051906020019080838360005b83811015610a8c578082015181840152602081019050610a71565b50505050905090810190601f168015610ab95780820380516001836020036101000a031916815260200191505b5086810384528b818151815260200191508051906020019080838360005b83811015610af2578082015181840152602081019050610ad7565b50505050905090810190601f168015610b1f5780820380516001836020036101000a031916815260200191505b5086810383528a818151815260200191508051906020019080838360005b83811015610b58578082015181840152602081019050610b3d565b50505050905090810190601f168015610b855780820380516001836020036101000a031916815260200191505b50868103825289818151815260200191508051906020019080838360005b83811015610bbe578082015181840152602081019050610ba3565b50505050905090810190601f168015610beb5780820380516001836020036101000a031916815260200191505b509f5050505050505050505050505050505060405180910390f35b3415610c1157600080fd5b610c3d600480803573ffffffffffffffffffffffffffffffffffffffff16906020019091905050613350565b6040518082815260200191505060405180910390f35b3415610c5e57600080fd5b610c6661339c565b6040518082815260200191505060405180910390f35b3415610c8757600080fd5b610cd7600480803590602001908201803590602001908080601f016020809104026020016040519081016040528093929190818152602001838380828437820191505050505050919050506133bb565b005b3415610ce457600080fd5b610cec6135df565b6040518082815260200191505060405180910390f35b3415610d0d57600080fd5b610d5d600480803590602001908201803590602001908080601f01602080910402602001604051908101604052809392919081815260200183838082843782019150505050505091905050613683565b005b3415610d6a57600080fd5b610dba600480803590602001908201803590602001908080601f016020809104026020016040519081016040528093929190818152602001838380828437820191505050505050919050506139d8565b005b3415610dc757600080fd5b610e9d600480803590602001908201803590602001908080601f0160208091040260200160405190810160405280939291908181526020018383808284378201915050505050509190803590602001908201803590602001908080601f0160208091040260200160405190810160405280939291908181526020018383808284378201915050505050509190803590602001908201803590602001908080601f01602080910402602001604051908101604052809392919081815260200183838082843782019150505050505091905050613e6a565b005b3415610eaa57600080fd5b610f3d600480803590602001908201803590602001908080601f0160208091040260200160405190810160405280939291908181526020018383808284378201915050505050509190803590602001908201803590602001908080601f0160208091040260200160405190810160405280939291908181526020018383808284378201915050505050509190505061411b565b005b3415610f4a57600080fd5b610f9a600480803590602001908201803590602001908080601f01602080910402602001604051908101604052809392919081815260200183838082843782019150505050505091905050614398565b604051808273ffffffffffffffffffffffffffffffffffffffff1673ffffffffffffffffffffffffffffffffffffffff16815260200191505060405180910390f35b3415610fe757600080fd5b610fef6144e3565b6040518080602001828103825283818151815260200191508051906020019080838360005b8381101561102f578082015181840152602081019050611014565b50505050905090810190601f16801561105c5780820380516001836020036101000a031916815260200191505b509250505060405180910390f35b341561107557600080fd5b6110ce600480803590602001908201803590602001908080601f0160208091040260200160405190810160405280939291908181526020018383808284378201915050505050509190803590602001909190505061458b565b005b611291600480803590602001908201803590602001908080601f0160208091040260200160405190810160405280939291908181526020018383808284378201915050505050509190803590602001908201803590602001908080601f0160208091040260200160405190810160405280939291908181526020018383808284378201915050505050509190803590602001908201803590602001908080601f0160208091040260200160405190810160405280939291908181526020018383808284378201915050505050509190803561ffff1690602001909190803560ff1690602001909190803590602001908201803590602001908080601f0160208091040260200160405190810160405280939291908181526020018383808284378201915050505050509190803590602001908201803590602001908080601f0160208091040260200160405190810160405280939291908181526020018383808284378201915050505050509190803590602001908201803590602001908080601f01602080910402602001604051908101604052809392919081815260200183838082843782019150505050505091908035906020019091905050614aff565b005b341561129e57600080fd5b6112ca600480803573ffffffffffffffffffffffffffffffffffffffff16906020019091905050614f34565b005b34156112d757600080fd5b611346600480803573ffffffffffffffffffffffffffffffffffffffff1690602001909190803590602001908201803590602001908080601f0160208091040260200160405190810160405280939291908181526020018383808284378201915050505050509190505061509d565b6040518082815260200191505060405180910390f35b341561136757600080fd5b6113b7600480803590602001908201803590602001908080601f0160208091040260200160405190810160405280939291908181526020018383808284378201915050505050509190505061520e565b6040518080602001828103825283818151815260200191508051906020019080838360005b838110156113f75780820151818401526020810190506113dc565b50505050905090810190601f1680156114245780820380516001836020036101000a031916815260200191505b509250505060405180910390f35b341561143d57600080fd5b611469600480803573ffffffffffffffffffffffffffffffffffffffff16906020019091905050615324565b60405180806020018060200180602001848103845287818151815260200191508051906020019080838360005b838110156114b1578082015181840152602081019050611496565b50505050905090810190601f1680156114de5780820380516001836020036101000a031916815260200191505b50848103835286818151815260200191508051906020019080838360005b838110156115175780820151818401526020810190506114fc565b50505050905090810190601f1680156115445780820380516001836020036101000a031916815260200191505b50848103825285818151815260200191508051906020019080838360005b8381101561157d578082015181840152602081019050611562565b50505050905090810190601f1680156115aa5780820380516001836020036101000a031916815260200191505b50965050505050505060405180910390f35b34156115c757600080fd5b61165a600480803590602001908201803590602001908080601f0160208091040260200160405190810160405280939291908181526020018383808284378201915050505050509190803590602001908201803590602001908080601f016020809104026020016040519081016040528093929190818152602001838380828437820191505050505050919050506155d7565b005b341561166757600080fd5b61167d6004808035906020019091905050615728565b604051808273ffffffffffffffffffffffffffffffffffffffff1673ffffffffffffffffffffffffffffffffffffffff16815260200191505060405180910390f35b6116c7615767565b60018054600181600116156101000203166002900480601f01602080910402602001604051908101604052809291908181526020018280546001816001161561010002031660029004801561175d5780601f106117325761010080835404028352916020019161175d565b820191906000526020600020905b81548152906001019060200180831161174057829003601f168201915b5050505050905090565b6000806000833373ffffffffffffffffffffffffffffffffffffffff166008826040518082805190602001908083835b6020831015156117bc5780518252602082019150602081019050602083039250611797565b6001836020036101000a038019825116818451168082178552505050505050905001915050908152602001604051809103902060000160009054906101000a900473ffffffffffffffffffffffffffffffffffffffff1673ffffffffffffffffffffffffffffffffffffffff1614151561183557600080fd5b60008673ffffffffffffffffffffffffffffffffffffffff161415151561185b57600080fd5b600960008773ffffffffffffffffffffffffffffffffffffffff1673ffffffffffffffffffffffffffffffffffffffff16815260200190815260200160002080548060010182816118ac919061577b565b9160005260206000209001600087909190915090805190602001906118d29291906157a7565b5050856008866040518082805190602001908083835b60208310151561190d57805182526020820191506020810190506020830392506118e8565b6001836020036101000a038019825116818451168082178552505050505050905001915050908152602001604051809103902060000160006101000a81548173ffffffffffffffffffffffffffffffffffffffff021916908373ffffffffffffffffffffffffffffffffffffffff160217905550600960003373ffffffffffffffffffffffffffffffffffffffff1673ffffffffffffffffffffffffffffffffffffffff16815260200190815260200160002093506119cc338661509d565b92508291505b6001848054905003821015611a435783600183018154811015156119f257fe5b90600052602060002090018483815481101515611a0b57fe5b90600052602060002090019080546001816001161561010002031660029004611a35929190615827565b5081806001019250506119d2565b836001858054905003815481101515611a5857fe5b90600052602060002090016000611a6f91906158ae565b83805480919060019003611a83919061577b565b507f716758ace00c258050b51a9a3cf0b6c3141dd6b0808840b4a82a9f1aea7d2179338787604051808473ffffffffffffffffffffffffffffffffffffffff1673ffffffffffffffffffffffffffffffffffffffff1681526020018373ffffffffffffffffffffffffffffffffffffffff1673ffffffffffffffffffffffffffffffffffffffff16815260200180602001828103825283818151815260200191508051906020019080838360005b83811015611b4c578082015181840152602081019050611b31565b50505050905090810190601f168015611b795780820380516001836020036101000a031916815260200191505b5094505050505060405180910390a1505050505050565b6000600454905090565b6000600354905090565b600080600083866000809050600560009054906101000a900460ff1615611c3957600783815481101515611bd457fe5b906000526020600020900160009054906101000a900473ffffffffffffffffffffffffffffffffffffffff1673ffffffffffffffffffffffffffffffffffffffff163373ffffffffffffffffffffffffffffffffffffffff161415611c3857600190505b5b3373ffffffffffffffffffffffffffffffffffffffff166008836040518082805190602001908083835b602083101515611c885780518252602082019150602081019050602083039250611c63565b6001836020036101000a038019825116818451168082178552505050505050905001915050908152602001604051809103902060000160009054906101000a900473ffffffffffffffffffffffffffffffffffffffff1673ffffffffffffffffffffffffffffffffffffffff161415611d0057600190505b801515611d0c57600080fd5b60008873ffffffffffffffffffffffffffffffffffffffff1614151515611d3257600080fd5b600960008973ffffffffffffffffffffffffffffffffffffffff1673ffffffffffffffffffffffffffffffffffffffff1681526020019081526020016000208054806001018281611d83919061577b565b916000526020600020900160008b90919091509080519060200190611da99291906157a7565b50508760088a6040518082805190602001908083835b602083101515611de45780518252602082019150602081019050602083039250611dbf565b6001836020036101000a038019825116818451168082178552505050505050905001915050908152602001604051809103902060000160006101000a81548173ffffffffffffffffffffffffffffffffffffffff021916908373ffffffffffffffffffffffffffffffffffffffff160217905550600960003373ffffffffffffffffffffffffffffffffffffffff1673ffffffffffffffffffffffffffffffffffffffff1681526020019081526020016000209550611ea3338a61509d565b94508493505b6001868054905003841015611f1a578560018501815481101515611ec957fe5b90600052602060002090018685815481101515611ee257fe5b90600052602060002090019080546001816001161561010002031660029004611f0c929190615827565b508380600101945050611ea9565b856001878054905003815481101515611f2f57fe5b90600052602060002090016000611f4691906158ae565b85805480919060019003611f5a919061577b565b507f716758ace00c258050b51a9a3cf0b6c3141dd6b0808840b4a82a9f1aea7d217933898b604051808473ffffffffffffffffffffffffffffffffffffffff1673ffffffffffffffffffffffffffffffffffffffff1681526020018373ffffffffffffffffffffffffffffffffffffffff1673ffffffffffffffffffffffffffffffffffffffff16815260200180602001828103825283818151815260200191508051906020019080838360005b83811015612023578082015181840152602081019050612008565b50505050905090810190601f1680156120505780820380516001836020036101000a031916815260200191505b5094505050505060405180910390a1505050505050505050565b803373ffffffffffffffffffffffffffffffffffffffff166008826040518082805190602001908083835b6020831015156120ba5780518252602082019150602081019050602083039250612095565b6001836020036101000a038019825116818451168082178552505050505050905001915050908152602001604051809103902060000160009054906101000a900473ffffffffffffffffffffffffffffffffffffffff1673ffffffffffffffffffffffffffffffffffffffff1614151561213357600080fd5b82600a836040518082805190602001908083835b60208310151561216c5780518252602082019150602081019050602083039250612147565b6001836020036101000a038019825116818451168082178552505050505050905001915050908152602001604051809103902060006101000a81548173ffffffffffffffffffffffffffffffffffffffff021916908373ffffffffffffffffffffffffffffffffffffffff1602179055507f1f84ad2a44b444ff59c84b14c29a0515df82fffbd26a5a923e601d8302872c91338484604051808473ffffffffffffffffffffffffffffffffffffffff1673ffffffffffffffffffffffffffffffffffffffff1681526020018373ffffffffffffffffffffffffffffffffffffffff1673ffffffffffffffffffffffffffffffffffffffff16815260200180602001828103825283818151815260200191508051906020019080838360005b838110156122a557808201518184015260208101905061228a565b50505050905090810190601f1680156122d25780820380516001836020036101000a031916815260200191505b5094505050505060405180910390a1505050565b6122ee615767565b600960008473ffffffffffffffffffffffffffffffffffffffff1673ffffffffffffffffffffffffffffffffffffffff168152602001908152602001600020805490508210151561233e57600080fd5b600960008473ffffffffffffffffffffffffffffffffffffffff1673ffffffffffffffffffffffffffffffffffffffff1681526020019081526020016000208281548110151561238a57fe5b90600052602060002090018054600181600116156101000203166002900480601f0160208091040260200160405190810160405280929190818152602001828054600181600116156101000203166002900480156124295780601f106123fe57610100808354040283529160200191612429565b820191906000526020600020905b81548152906001019060200180831161240c57829003601f168201915b5050505050905092915050565b61243e615767565b61244783613350565b8210151561245457600080fd5b6000821015151561246457600080fd5b600960008473ffffffffffffffffffffffffffffffffffffffff1673ffffffffffffffffffffffffffffffffffffffff168152602001908152602001600020828154811015156124b057fe5b90600052602060002090018054600181600116156101000203166002900480601f01602080910402602001604051908101604052809291908181526020018280546001816001161561010002031660029004801561254f5780601f106125245761010080835404028352916020019161254f565b820191906000526020600020905b81548152906001019060200180831161253257829003601f168201915b5050505050905092915050565b6000600780549050905090565b6000806007600081548110151561257c57fe5b906000526020600020900160009054906101000a900473ffffffffffffffffffffffffffffffffffffffff1673ffffffffffffffffffffffffffffffffffffffff163373ffffffffffffffffffffffffffffffffffffffff161415156125e157600080fd5b600083141515156125f157600080fd5b6007805490508310151561260457600080fd5b60078381548110151561261357fe5b906000526020600020900160009054906101000a900473ffffffffffffffffffffffffffffffffffffffff1691508290505b6001600780549050038110156126f85760076001820181548110151561266757fe5b906000526020600020900160009054906101000a900473ffffffffffffffffffffffffffffffffffffffff166007828154811015156126a257fe5b906000526020600020900160006101000a81548173ffffffffffffffffffffffffffffffffffffffff021916908373ffffffffffffffffffffffffffffffffffffffff1602179055508080600101915050612645565b600760016007805490500381548110151561270f57fe5b906000526020600020900160006101000a81549073ffffffffffffffffffffffffffffffffffffffff0219169055600780548091906001900361275291906158f6565b507f1a29bff2c9a646862adbe72e92424ef5fa20a24f885a26faa7f7d2a9b71fa85e338385604051808473ffffffffffffffffffffffffffffffffffffffff1673ffffffffffffffffffffffffffffffffffffffff1681526020018373ffffffffffffffffffffffffffffffffffffffff1673ffffffffffffffffffffffffffffffffffffffff168152602001828152602001935050505060405180910390a1505050565b6000600560009054906101000a900460ff16905090565b60006007600081548110151561282057fe5b906000526020600020900160009054906101000a900473ffffffffffffffffffffffffffffffffffffffff1673ffffffffffffffffffffffffffffffffffffffff163373ffffffffffffffffffffffffffffffffffffffff1614151561288557600080fd5b81600560006101000a81548160ff0219169083151502179055507fb15835f532553a7dcdf4cbc59c564c64117be3bc8d5326de801b7ae7b32596fe82604051808215151515815260200191505060405180910390a1600560009054906101000a900460ff169050919050565b60006008826040518082805190602001908083835b60208310151561292b5780518252602082019150602081019050602083039250612906565b6001836020036101000a038019825116818451168082178552505050505050905001915050908152602001604051809103902060000160009054906101000a900473ffffffffffffffffffffffffffffffffffffffff169050919050565b6007600081548110151561299957fe5b906000526020600020900160009054906101000a900473ffffffffffffffffffffffffffffffffffffffff1673ffffffffffffffffffffffffffffffffffffffff163373ffffffffffffffffffffffffffffffffffffffff161415156129fe57600080fd5b8173ffffffffffffffffffffffffffffffffffffffff166108fc829081150290604051600060405180830381858888f193505050501515612a3e57600080fd5b7fb6f5e376ce04408a9cc850b6a02cd39fecd40e07a27f2d0fef9bfee119dd5ee6338383604051808473ffffffffffffffffffffffffffffffffffffffff1673ffffffffffffffffffffffffffffffffffffffff1681526020018373ffffffffffffffffffffffffffffffffffffffff1673ffffffffffffffffffffffffffffffffffffffff168152602001828152602001935050505060405180910390a15050565b600060078054905082101515612af657600080fd5b600782815481101515612b0557fe5b906000526020600020900160009054906101000a900473ffffffffffffffffffffffffffffffffffffffff169050919050565b60006008836040518082805190602001908083835b602083101515612b725780518252602082019150602081019050602083039250612b4d565b6001836020036101000a038019825116818451168082178552505050505050905001915050908152602001604051809103902060070160009054906101000a900460ff161515612bc157600080fd5b6008836040518082805190602001908083835b602083101515612bf95780518252602082019150602081019050602083039250612bd4565b6001836020036101000a0380198251168184511680821785525050505050509050019150509081526020016040518091039020905060018160070160016101000a81548160ff02191690831515021790555081816008019080519060200190612c639291906157a7565b507fa3d914572a080b0a1e7fd9adea5dd68a4094164d8005d2e23402395627e7563e3384604051808373ffffffffffffffffffffffffffffffffffffffff1673ffffffffffffffffffffffffffffffffffffffff16815260200180602001828103825283818151815260200191508051906020019080838360005b83811015612cf9578082015181840152602081019050612cde565b50505050905090810190601f168015612d265780820380516001836020036101000a031916815260200191505b50935050505060405180910390a1505050565b600033905090565b6000600654905090565b600060076000815481101515612d5d57fe5b906000526020600020900160009054906101000a900473ffffffffffffffffffffffffffffffffffffffff1673ffffffffffffffffffffffffffffffffffffffff163373ffffffffffffffffffffffffffffffffffffffff16141515612dc257600080fd5b60078054809190600101612dd691906158f6565b905081600782815481101515612de857fe5b906000526020600020900160006101000a81548173ffffffffffffffffffffffffffffffffffffffff021916908373ffffffffffffffffffffffffffffffffffffffff1602179055507f413ee8b65d6bd98b0447a27e052163c1fb407a22fca5d3a14eb6009f4b033c4760076000815481101515612e6257fe5b906000526020600020900160009054906101000a900473ffffffffffffffffffffffffffffffffffffffff168383604051808473ffffffffffffffffffffffffffffffffffffffff1673ffffffffffffffffffffffffffffffffffffffff1681526020018373ffffffffffffffffffffffffffffffffffffffff1673ffffffffffffffffffffffffffffffffffffffff168152602001828152602001935050505060405180910390a1919050565b6000612f1a615767565b612f22615767565b600080612f2d615767565b612f35615767565b612f3d615767565b600080600060088c6040518082805190602001908083835b602083101515612f7a5780518252602082019150602081019050602083039250612f55565b6001836020036101000a038019825116818451168082178552505050505050905001915050908152602001604051809103902090508060000160009054906101000a900473ffffffffffffffffffffffffffffffffffffffff169a50806001018054600181600116156101000203166002900480601f01602080910402602001604051908101604052809291908181526020018280546001816001161561010002031660029004801561306e5780601f106130435761010080835404028352916020019161306e565b820191906000526020600020905b81548152906001019060200180831161305157829003601f168201915b50505050509950806002018054600181600116156101000203166002900480601f01602080910402602001604051908101604052809291908181526020018280546001816001161561010002031660029004801561310d5780601f106130e25761010080835404028352916020019161310d565b820191906000526020600020905b8154815290600101906020018083116130f057829003601f168201915b505050505098508060030160009054906101000a900461ffff1697508060030160029054906101000a900460ff169650806004018054600181600116156101000203166002900480601f0160208091040260200160405190810160405280929190818152602001828054600181600116156101000203166002900480156131d55780601f106131aa576101008083540402835291602001916131d5565b820191906000526020600020905b8154815290600101906020018083116131b857829003601f168201915b50505050509550806005018054600181600116156101000203166002900480601f0160208091040260200160405190810160405280929190818152602001828054600181600116156101000203166002900480156132745780601f1061324957610100808354040283529160200191613274565b820191906000526020600020905b81548152906001019060200180831161325757829003601f168201915b50505050509450806006018054600181600116156101000203166002900480601f0160208091040260200160405190810160405280929190818152602001828054600181600116156101000203166002900480156133135780601f106132e857610100808354040283529160200191613313565b820191906000526020600020905b8154815290600101906020018083116132f657829003601f168201915b505050505093508060070160009054906101000a900460ff1692508060070160019054906101000a900460ff169150509193959799509193959799565b6000600960008373ffffffffffffffffffffffffffffffffffffffff1673ffffffffffffffffffffffffffffffffffffffff168152602001908152602001600020805490509050919050565b60003073ffffffffffffffffffffffffffffffffffffffff1631905090565b803373ffffffffffffffffffffffffffffffffffffffff166008826040518082805190602001908083835b60208310151561340b57805182526020820191506020810190506020830392506133e6565b6001836020036101000a038019825116818451168082178552505050505050905001915050908152602001604051809103902060000160009054906101000a900473ffffffffffffffffffffffffffffffffffffffff1673ffffffffffffffffffffffffffffffffffffffff1614151561348457600080fd5b60006008836040518082805190602001908083835b6020831015156134be5780518252602082019150602081019050602083039250613499565b6001836020036101000a038019825116818451168082178552505050505050905001915050908152602001604051809103902060070160016101000a81548160ff0219169083151502179055507f4202624b0812e0998324706fa3926f9812c748aa0b2fb382d02b14a899e1b4633383604051808373ffffffffffffffffffffffffffffffffffffffff1673ffffffffffffffffffffffffffffffffffffffff16815260200180602001828103825283818151815260200191508051906020019080838360005b838110156135a0578082015181840152602081019050613585565b50505050905090810190601f1680156135cd5780820380516001836020036101000a031916815260200191505b50935050505060405180910390a15050565b60008090505b600780549050811015613672573373ffffffffffffffffffffffffffffffffffffffff1660078281548110151561361857fe5b906000526020600020900160009054906101000a900473ffffffffffffffffffffffffffffffffffffffff1673ffffffffffffffffffffffffffffffffffffffff16141561366557613680565b80806001019150506135e5565b6000151561367f57600080fd5b5b90565b6000813373ffffffffffffffffffffffffffffffffffffffff166008826040518082805190602001908083835b6020831015156136d557805182526020820191506020810190506020830392506136b0565b6001836020036101000a038019825116818451168082178552505050505050905001915050908152602001604051809103902060000160009054906101000a900473ffffffffffffffffffffffffffffffffffffffff1673ffffffffffffffffffffffffffffffffffffffff1614151561374e57600080fd5b6008836040518082805190602001908083835b6020831015156137865780518252602082019150602081019050602083039250613761565b6001836020036101000a038019825116818451168082178552505050505050905001915050908152602001604051809103902060070160009054906101000a900460ff1615156137d557600080fd5b6008836040518082805190602001908083835b60208310151561380d57805182526020820191506020810190506020830392506137e8565b6001836020036101000a038019825116818451168082178552505050505050905001915050908152602001604051809103902060070160019054906101000a900460ff16151561385c57600080fd5b6008836040518082805190602001908083835b602083101515613894578051825260208201915060208101905060208303925061386f565b6001836020036101000a0380198251168184511680821785525050505050509050019150509081526020016040518091039020915060008260070160006101000a81548160ff02191690831515021790555060008260070160016101000a81548160ff0219169083151502179055507f051b1d043fe0d8b7227ff37b4e92416cd52eba3b0b32b10168795ce1d77d74253384604051808373ffffffffffffffffffffffffffffffffffffffff1673ffffffffffffffffffffffffffffffffffffffff16815260200180602001828103825283818151815260200191508051906020019080838360005b8381101561399857808201518184015260208101905061397d565b50505050905090810190601f1680156139c55780820380516001836020036101000a031916815260200191505b50935050505060405180910390a1505050565b600080600080843373ffffffffffffffffffffffffffffffffffffffff16600a826040518082805190602001908083835b602083101515613a2e5780518252602082019150602081019050602083039250613a09565b6001836020036101000a038019825116818451168082178552505050505050905001915050908152602001604051809103902060009054906101000a900473ffffffffffffffffffffffffffffffffffffffff1673ffffffffffffffffffffffffffffffffffffffff16141515613aa457600080fd5b6008866040518082805190602001908083835b602083101515613adc5780518252602082019150602081019050602083039250613ab7565b6001836020036101000a038019825116818451168082178552505050505050905001915050908152602001604051809103902060000160009054906101000a900473ffffffffffffffffffffffffffffffffffffffff169450600960003373ffffffffffffffffffffffffffffffffffffffff1673ffffffffffffffffffffffffffffffffffffffff1681526020019081526020016000208054806001018281613b86919061577b565b916000526020600020900160008890919091509080519060200190613bac9291906157a7565b5050336008876040518082805190602001908083835b602083101515613be75780518252602082019150602081019050602083039250613bc2565b6001836020036101000a038019825116818451168082178552505050505050905001915050908152602001604051809103902060000160006101000a81548173ffffffffffffffffffffffffffffffffffffffff021916908373ffffffffffffffffffffffffffffffffffffffff160217905550600960008673ffffffffffffffffffffffffffffffffffffffff1673ffffffffffffffffffffffffffffffffffffffff1681526020019081526020016000209350613ca6858761509d565b92508291505b6001848054905003821015613d1d578360018301815481101515613ccc57fe5b90600052602060002090018483815481101515613ce557fe5b90600052602060002090019080546001816001161561010002031660029004613d0f929190615827565b508180600101925050613cac565b836001858054905003815481101515613d3257fe5b90600052602060002090016000613d4991906158ae565b83805480919060019003613d5d919061577b565b507f716758ace00c258050b51a9a3cf0b6c3141dd6b0808840b4a82a9f1aea7d2179853388604051808473ffffffffffffffffffffffffffffffffffffffff1673ffffffffffffffffffffffffffffffffffffffff1681526020018373ffffffffffffffffffffffffffffffffffffffff1673ffffffffffffffffffffffffffffffffffffffff16815260200180602001828103825283818151815260200191508051906020019080838360005b83811015613e26578082015181840152602081019050613e0b565b50505050905090810190601f168015613e535780820380516001836020036101000a031916815260200191505b5094505050505060405180910390a1505050505050565b826000803373ffffffffffffffffffffffffffffffffffffffff1673ffffffffffffffffffffffffffffffffffffffff1681526020019081526020016000206000019080519060200190613ebf9291906157a7565b50816000803373ffffffffffffffffffffffffffffffffffffffff1673ffffffffffffffffffffffffffffffffffffffff1681526020019081526020016000206001019080519060200190613f159291906157a7565b50806000803373ffffffffffffffffffffffffffffffffffffffff1673ffffffffffffffffffffffffffffffffffffffff1681526020019081526020016000206002019080519060200190613f6b9291906157a7565b507faa12444512445290b181c1cce08d320b5c4e97519242b6775fbe677ca0bd22c933848484604051808573ffffffffffffffffffffffffffffffffffffffff1673ffffffffffffffffffffffffffffffffffffffff168152602001806020018060200180602001848103845287818151815260200191508051906020019080838360005b8381101561400b578082015181840152602081019050613ff0565b50505050905090810190601f1680156140385780820380516001836020036101000a031916815260200191505b50848103835286818151815260200191508051906020019080838360005b83811015614071578082015181840152602081019050614056565b50505050905090810190601f16801561409e5780820380516001836020036101000a031916815260200191505b50848103825285818151815260200191508051906020019080838360005b838110156140d75780820151818401526020810190506140bc565b50505050905090810190601f1680156141045780820380516001836020036101000a031916815260200191505b5097505050505050505060405180910390a1505050565b6000823373ffffffffffffffffffffffffffffffffffffffff166008826040518082805190602001908083835b60208310151561416d5780518252602082019150602081019050602083039250614148565b6001836020036101000a038019825116818451168082178552505050505050905001915050908152602001604051809103902060000160009054906101000a900473ffffffffffffffffffffffffffffffffffffffff1673ffffffffffffffffffffffffffffffffffffffff161415156141e657600080fd5b6008846040518082805190602001908083835b60208310151561421e57805182526020820191506020810190506020830392506141f9565b6001836020036101000a0380198251168184511680821785525050505050509050019150509081526020016040518091039020915060018260070160006101000a81548160ff021916908315150217905550828260060190805190602001906142889291906157a7565b507fcf8c2bdfdea21b19585214891a7e55ae5272881ddfaa3a4fa6f8f3a71027de768484604051808060200180602001838103835285818151815260200191508051906020019080838360005b838110156142f05780820151818401526020810190506142d5565b50505050905090810190601f16801561431d5780820380516001836020036101000a031916815260200191505b50838103825284818151815260200191508051906020019080838360005b8381101561435657808201518184015260208101905061433b565b50505050905090810190601f1680156143835780820380516001836020036101000a031916815260200191505b5094505050505060405180910390a150505050565b6000806008836040518082805190602001908083835b6020831015156143d357805182526020820191506020810190506020830392506143ae565b6001836020036101000a038019825116818451168082178552505050505050905001915050908152602001604051809103902060000160009054906101000a900473ffffffffffffffffffffffffffffffffffffffff1673ffffffffffffffffffffffffffffffffffffffff161415151561444d57600080fd5b6008826040518082805190602001908083835b6020831015156144855780518252602082019150602081019050602083039250614460565b6001836020036101000a038019825116818451168082178552505050505050905001915050908152602001604051809103902060000160009054906101000a900473ffffffffffffffffffffffffffffffffffffffff169050919050565b6144eb615767565b60028054600181600116156101000203166002900480601f0160208091040260200160405190810160405280929190818152602001828054600181600116156101000203166002900480156145815780601f1061455657610100808354040283529160200191614581565b820191906000526020600020905b81548152906001019060200180831161456457829003601f168201915b5050505050905090565b60008060008084866000809050600560009054906101000a900460ff1615614621576007838154811015156145bc57fe5b906000526020600020900160009054906101000a900473ffffffffffffffffffffffffffffffffffffffff1673ffffffffffffffffffffffffffffffffffffffff163373ffffffffffffffffffffffffffffffffffffffff16141561462057600190505b5b3373ffffffffffffffffffffffffffffffffffffffff166008836040518082805190602001908083835b602083101515614670578051825260208201915060208101905060208303925061464b565b6001836020036101000a038019825116818451168082178552505050505050905001915050908152602001604051809103902060000160009054906101000a900473ffffffffffffffffffffffffffffffffffffffff1673ffffffffffffffffffffffffffffffffffffffff1614156146e857600190505b8015156146f457600080fd5b6008896040518082805190602001908083835b60208310151561472c5780518252602082019150602081019050602083039250614707565b6001836020036101000a038019825116818451168082178552505050505050905001915050908152602001604051809103902060000160009054906101000a900473ffffffffffffffffffffffffffffffffffffffff1696506008896040518082805190602001908083835b6020831015156147bd5780518252602082019150602081019050602083039250614798565b6001836020036101000a0380198251168184511680821785525050505050509050019150509081526020016040518091039020600080820160006101000a81549073ffffffffffffffffffffffffffffffffffffffff021916905560018201600061482891906158ae565b60028201600061483891906158ae565b6003820160006101000a81549061ffff02191690556003820160026101000a81549060ff021916905560048201600061487191906158ae565b60058201600061488191906158ae565b60068201600061489191906158ae565b6007820160006101000a81549060ff02191690556007820160016101000a81549060ff02191690556008820160006148c991906158ae565b6009820160006148d991906158ae565b5050600960008873ffffffffffffffffffffffffffffffffffffffff1673ffffffffffffffffffffffffffffffffffffffff1681526020019081526020016000209550614926878a61509d565b94508493505b600186805490500384101561499d57856001850181548110151561494c57fe5b9060005260206000209001868581548110151561496557fe5b9060005260206000209001908054600181600116156101000203166002900461498f929190615827565b50838060010194505061492c565b8560018780549050038154811015156149b257fe5b906000526020600020900160006149c991906158ae565b858054809190600190036149dd919061577b565b50600360008154809291906001900391905055507eeb05fa16ba446d38b8c543c982b1ba244b8ffac0f16d90b6802d0b3a0485d033888b604051808473ffffffffffffffffffffffffffffffffffffffff1673ffffffffffffffffffffffffffffffffffffffff1681526020018373ffffffffffffffffffffffffffffffffffffffff1673ffffffffffffffffffffffffffffffffffffffff16815260200180602001828103825283818151815260200191508051906020019080838360005b83811015614ab8578082015181840152602081019050614a9d565b50505050905090810190601f168015614ae55780820380516001836020036101000a031916815260200191505b5094505050505060405180910390a1505050505050505050565b600081600560009054906101000a900460ff1615614b8c57600781815481101515614b2657fe5b906000526020600020900160009054906101000a900473ffffffffffffffffffffffffffffffffffffffff1673ffffffffffffffffffffffffffffffffffffffff163373ffffffffffffffffffffffffffffffffffffffff16141515614b8b57600080fd5b5b600654803410151515614b9e57600080fd5b600060088d6040518082805190602001908083835b602083101515614bd85780518252602082019150602081019050602083039250614bb3565b6001836020036101000a038019825116818451168082178552505050505050905001915050908152602001604051809103902060000160009054906101000a900473ffffffffffffffffffffffffffffffffffffffff1673ffffffffffffffffffffffffffffffffffffffff16141515614c5157600080fd5b60088c6040518082805190602001908083835b602083101515614c895780518252602082019150602081019050602083039250614c64565b6001836020036101000a03801982511681845116808217855250505050505090500191505090815260200160405180910390209250338360000160006101000a81548173ffffffffffffffffffffffffffffffffffffffff021916908373ffffffffffffffffffffffffffffffffffffffff1602179055508a836001019080519060200190614d199291906157a7565b5089836002019080519060200190614d329291906157a7565b50888360030160006101000a81548161ffff021916908361ffff160217905550878360030160026101000a81548160ff021916908360ff16021790555086836004019080519060200190614d879291906157a7565b5085836005019080519060200190614da09291906157a7565b5060008360070160006101000a81548160ff02191690831515021790555060008360070160016101000a81548160ff02191690831515021790555084836009019080519060200190614df39291906157a7565b5060036000815480929190600101919050555034600454016004819055507f5056c1ff30bed0cd453800b553b7ae9a4fbc6096c8799c04173598c3a79160318c6040518080602001828103825283818151815260200191508051906020019080838360005b83811015614e73578082015181840152602081019050614e58565b50505050905090810190601f168015614ea05780820380516001836020036101000a031916815260200191505b509250505060405180910390a1600960003373ffffffffffffffffffffffffffffffffffffffff1673ffffffffffffffffffffffffffffffffffffffff1681526020019081526020016000208054806001018281614efe919061577b565b916000526020600020900160008e90919091509080519060200190614f249291906157a7565b5050505050505050505050505050565b60076000815481101515614f4457fe5b906000526020600020900160009054906101000a900473ffffffffffffffffffffffffffffffffffffffff1673ffffffffffffffffffffffffffffffffffffffff163373ffffffffffffffffffffffffffffffffffffffff16141515614fa957600080fd5b8060076000815481101515614fba57fe5b906000526020600020900160006101000a81548173ffffffffffffffffffffffffffffffffffffffff021916908373ffffffffffffffffffffffffffffffffffffffff1602179055507fb532073b38c83145e3e5135377a08bf9aab55bc0fd7c1179cd4fb995d2a5159c3382604051808373ffffffffffffffffffffffffffffffffffffffff1673ffffffffffffffffffffffffffffffffffffffff1681526020018273ffffffffffffffffffffffffffffffffffffffff1673ffffffffffffffffffffffffffffffffffffffff1681526020019250505060405180910390a150565b600080600960008573ffffffffffffffffffffffffffffffffffffffff1673ffffffffffffffffffffffffffffffffffffffff1681526020019081526020016000209050600091505b80805490508210156151f957826040518082805190602001908083835b6020831015156151285780518252602082019150602081019050602083039250615103565b6001836020036101000a038019825116818451168082178552505050505050905001915050604051809103902060001916818381548110151561516757fe5b906000526020600020900160405180828054600181600116156101000203166002900480156151cd5780601f106151ab5761010080835404028352918201916151cd565b820191906000526020600020905b8154815290600101906020018083116151b9575b505091505060405180910390206000191614156151ec57819150615207565b81806001019250506150e6565b6000151561520657600080fd5b5b5092915050565b615216615767565b6008826040518082805190602001908083835b60208310151561524e5780518252602082019150602081019050602083039250615229565b6001836020036101000a03801982511681845116808217855250505050505090500191505090815260200160405180910390206009018054600181600116156101000203166002900480601f0160208091040260200160405190810160405280929190818152602001828054600181600116156101000203166002900480156153185780601f106152ed57610100808354040283529160200191615318565b820191906000526020600020905b8154815290600101906020018083116152fb57829003601f168201915b50505050509050919050565b61532c615767565b615334615767565b61533c615767565b6000808573ffffffffffffffffffffffffffffffffffffffff1673ffffffffffffffffffffffffffffffffffffffff1681526020019081526020016000206000018054600181600116156101000203166002900480601f0160208091040260200160405190810160405280929190818152602001828054600181600116156101000203166002900480156154115780601f106153e657610100808354040283529160200191615411565b820191906000526020600020905b8154815290600101906020018083116153f457829003601f168201915b505050505092506000808573ffffffffffffffffffffffffffffffffffffffff1673ffffffffffffffffffffffffffffffffffffffff1681526020019081526020016000206001018054600181600116156101000203166002900480601f0160208091040260200160405190810160405280929190818152602001828054600181600116156101000203166002900480156154ed5780601f106154c2576101008083540402835291602001916154ed565b820191906000526020600020905b8154815290600101906020018083116154d057829003601f168201915b505050505091506000808573ffffffffffffffffffffffffffffffffffffffff1673ffffffffffffffffffffffffffffffffffffffff1681526020019081526020016000206002018054600181600116156101000203166002900480601f0160208091040260200160405190810160405280929190818152602001828054600181600116156101000203166002900480156155c95780601f1061559e576101008083540402835291602001916155c9565b820191906000526020600020905b8154815290600101906020018083116155ac57829003601f168201915b505050505090509193909250565b813373ffffffffffffffffffffffffffffffffffffffff166008826040518082805190602001908083835b6020831015156156275780518252602082019150602081019050602083039250615602565b6001836020036101000a038019825116818451168082178552505050505050905001915050908152602001604051809103902060000160009054906101000a900473ffffffffffffffffffffffffffffffffffffffff1673ffffffffffffffffffffffffffffffffffffffff161415156156a057600080fd5b816008846040518082805190602001908083835b6020831015156156d957805182526020820191506020810190506020830392506156b4565b6001836020036101000a038019825116818451168082178552505050505050905001915050908152602001604051809103902060090190805190602001906157229291906157a7565b50505050565b60078181548110151561573757fe5b90600052602060002090016000915054906101000a900473ffffffffffffffffffffffffffffffffffffffff1681565b602060405190810160405280600081525090565b8154818355818115116157a2578183600052602060002091820191016157a19190615922565b5b505050565b828054600181600116156101000203166002900490600052602060002090601f016020900481019282601f106157e857805160ff1916838001178555615816565b82800160010185558215615816579182015b828111156158155782518255916020019190600101906157fa565b5b509050615823919061594e565b5090565b828054600181600116156101000203166002900490600052602060002090601f016020900481019282601f10615860578054855561589d565b8280016001018555821561589d57600052602060002091601f016020900482015b8281111561589c578254825591600101919060010190615881565b5b5090506158aa919061594e565b5090565b50805460018160011615610100020316600290046000825580601f106158d457506158f3565b601f0160209004906000526020600020908101906158f2919061594e565b5b50565b81548183558181151161591d5781836000526020600020918201910161591c919061594e565b5b505050565b61594b91905b80821115615947576000818161593e91906158ae565b50600101615928565b5090565b90565b61597091905b8082111561596c576000816000905550600101615954565b5090565b905600a165627a7a723058201613bbd4a7cb65d1051cdf970fc512669baa12aaadf0c05423f3ebb443cd8c5e0029",
  "source": "pragma solidity ^0.4.18;\n\ncontract Contacts{\n\n    struct ContactDetails{\n        string name;\n        string email;\n        string phone;\n    }\n\n    mapping(address => ContactDetails) contactList; // Owner details\n\n    event ContactDetailsAdded(address owner, string name, string email, string phone);\n\n    function addContactDetails(string _name, string _email, string _phone) public{\n        contactList[msg.sender].name = _name;\n        contactList[msg.sender].email = _email;\n        contactList[msg.sender].phone = _phone;\n        ContactDetailsAdded(msg.sender, _name, _email, _phone);\n    }\n}\n\ncontract BikeChain is Contacts{\n\n    string contractName;\n    string contractSymbol;\n    uint256 supplyNum;\n    uint256 donated;\n\n    struct Bike{\n        address owner;\n        string make;\n        string model;\n        uint16 year;\n        uint8 size;\n        string colour;\n        string features;\n        string details;\n        bool stolen;\n        bool found;\n        string founddetails;\n        string infoUrl;\n    }\n\n    // Switch to turn company admin off or on\n    bool adminSwitch;\n\n    // Price to register Bike in Wei\n    uint registrationPrice;\n\n    address[] public company;\n    mapping(string => Bike) register; // Maps frame number to bike\n    mapping(address => string[]) ownerList; // Maps address to frame numbers\n    // mapping(address => uint256) balance; Maps address to number of bikes owned\n    mapping(string => address) approvedAddress; // Maps frame number to address which is approved to take ownership\n\n    modifier onlyAdmin(uint _cID){\n        if(adminSwitch) require(msg.sender == company[_cID]);\n        _;\n    }\n\n    modifier onlyAdminOrOwner(uint _cID, string _frameNumber){\n        bool test = false;\n        if(adminSwitch){\n            if(msg.sender == company[_cID]){\n                test = true;\n            }\n        }\n        if(register[_frameNumber].owner == msg.sender){\n            test = true;\n        }\n        require(test);\n        _;\n    }\n\n    modifier onlyCompany(uint _cID){\n        require(msg.sender == company[_cID]);\n        _;\n    }\n\n    modifier onlyCompanyOrOwner(uint _cID, string _frameNumber){\n        bool test = false;\n        if(msg.sender == company[_cID]){\n            test = true;\n        }\n        if(register[_frameNumber].owner == msg.sender){\n            test = true;\n        }\n        require(test);\n        _;\n    }\n\n    modifier onlyContractCreator(){\n        require(msg.sender == company[0]);\n        _;\n    }\n\n    modifier bikeOwner(string _frameNumber){\n        require(register[_frameNumber].owner == msg.sender);\n        _;\n    }\n\n    modifier hasApproval(string _frameNumber){\n        require(approvedAddress[_frameNumber] == msg.sender);\n        _;\n    }\n\n    modifier costs(uint _price) {\n        require(msg.value >= _price);\n            _;\n    }\n\n    event Approval(address owner, address to, string frameNumber);\n    event BikeCreated(string frameNumber);\n    event BikeRemoved(address company, address owner, string frameNumber);\n    event BikeTransfered(address from, address to, string frameNumber);\n    event BikeStolen(string frameNumber, string details);\n    event BikeFound(address finder, string frameNumber);\n    event BikeNotFound(address finder, string frameNumber);\n    event BikeReturned(address owner, string frameNumber);\n    event CompanyAdded(address admin, address company, uint cID);\n    event CompanyRemoved(address admin, address company, uint cID);\n    event OwnerChanged(address from, address to);\n    event EtherWithdrawn(address from, address to, uint value);\n    event AdminSwitchChanged(bool status);\n\n    function BikeChain() public{\n        company.length++;\n        company[0] = msg.sender;\n        registrationPrice = 10000000000000000;\n        adminSwitch = false;\n        contractName = \"Bike-Token\";\n        contractSymbol = \"\";\n        supplyNum = 0;\n    }\n\n    // Begin Temporary functions\n\n    function getSender() constant public returns(address){\n      return msg.sender;\n    }\n\n    // End Temporary functions\n\n    // Begin ERC-721 Standard Functions\n\n    function name() constant public returns (string){\n      return contractName;\n    }\n\n    function symbol() constant public returns (string){\n      return contractSymbol;\n    }\n\n    function totalSupply() constant public returns (uint256){\n      return supplyNum;\n    }\n\n    function balanceOf(address _owner) constant public returns (uint256){\n      return ownerList[_owner].length;\n    }\n\n    function ownerOf(string _frameNumber) constant public returns (address){\n      require(register[_frameNumber].owner != 0);\n      return register[_frameNumber].owner;\n    }\n\n    function approve(address _to, string _frameNumber) bikeOwner(_frameNumber) public{\n      approvedAddress[_frameNumber] = _to;\n      Approval(msg.sender, _to, _frameNumber);\n    }\n\n    function takeOwnership(string _frameNumber) hasApproval(_frameNumber) public{\n      address oldOwner = register[_frameNumber].owner;\n      ownerList[msg.sender].push(_frameNumber);\n      register[_frameNumber].owner = msg.sender;\n      string[] storage fn = ownerList[oldOwner];\n      uint index = getFrameIndex(oldOwner, _frameNumber);\n      for (uint i = index; i < fn.length-1; i++){\n        fn[i] = fn[i+1];\n      }\n      delete fn[fn.length-1];\n      fn.length--;\n\n      BikeTransfered(oldOwner, msg.sender, _frameNumber);\n    }\n\n    function transfer(address _to, string _frameNumber) bikeOwner(_frameNumber) public{\n      require(_to != 0);\n      ownerList[_to].push(_frameNumber);\n      register[_frameNumber].owner = _to;\n      string[] storage fn = ownerList[msg.sender];\n      uint index = getFrameIndex(msg.sender, _frameNumber);\n      for (uint i = index; i < fn.length-1; i++){\n        fn[i] = fn[i+1];\n      }\n      delete fn[fn.length-1];\n      fn.length--;\n\n      BikeTransfered(msg.sender, _to, _frameNumber);\n    }\n\n    function tokenOfOwnerByIndex(address _owner, uint256 _index) constant public returns (string frameNumber){\n      require(_index < balanceOf(_owner));\n      require(_index >= 0);\n      frameNumber = ownerList[_owner][_index];\n    }\n\n    function tokenMetadata(string _frameNumber) constant public returns (string){\n      return register[_frameNumber].infoUrl;\n    }\n\n    function updateTokenMetadata(string _frameNumber, string _infoUrl) bikeOwner(_frameNumber) public{\n      register[_frameNumber].infoUrl = _infoUrl;\n    }\n\n    // End ERC-721 Standard Functions\n\n    function () payable public{\n      donated = donated + msg.value;\n    }\n\n    function withdrawEther(address _to, uint _value) onlyContractCreator() public{\n        //require(this.balance > _value);\n        _to.transfer(_value);\n        EtherWithdrawn(msg.sender, _to, _value);\n    }\n\n    function addBike(string _frameNumber, string _make, string _model, uint16 _year, uint8 _size, string _colour, string _features, string _infoUrl, uint _cID)\n    payable onlyAdmin(_cID) costs(registrationPrice) public{\n        require(register[_frameNumber].owner == 0); // Check bike isn't owned\n\n        Bike storage b = register[_frameNumber];\n        b.owner = msg.sender;\n        b.make = _make;\n        b.model = _model;\n        b.year = _year;\n        b.size = _size;\n        b.colour = _colour;\n        b.features = _features;\n        b.stolen = false;\n        b.found = false;\n        b.infoUrl = _infoUrl;\n        supplyNum++;\n        donated = donated + msg.value;\n        BikeCreated(_frameNumber);\n\n        ownerList[msg.sender].push(_frameNumber);\n    }\n\n    function addCompany(address _newCompany) onlyContractCreator() public returns(uint newcID){\n        newcID = company.length++;\n        company[newcID] = _newCompany;\n        CompanyAdded(company[0], _newCompany, newcID);\n    }\n\n    function reportStolen(string _frameNumber, string _details) bikeOwner(_frameNumber) public{\n        Bike storage b = register[_frameNumber];\n        b.stolen = true;\n        b.details = _details;\n        BikeStolen(_frameNumber, _details);\n    }\n\n    function reportFound(string _frameNumber, string _details) public{\n        require(register[_frameNumber].stolen);\n        Bike storage b = register[_frameNumber];\n        b.found = true;\n        b.founddetails = _details;\n        BikeFound(msg.sender, _frameNumber);\n    }\n\n    function reportNotFound(string _frameNumber) bikeOwner(_frameNumber) public{\n        register[_frameNumber].found = false;\n        BikeNotFound(msg.sender, _frameNumber);\n    }\n\n    function reportReturned(string _frameNumber) bikeOwner(_frameNumber) public{\n        require(register[_frameNumber].stolen);\n        require(register[_frameNumber].found);\n        Bike storage b = register[_frameNumber];\n        b.stolen = false;\n        b.found = false;\n        BikeReturned(msg.sender, _frameNumber);\n    }\n\n    function transferOwner(string _frameNumber, address _newOwner, uint _cID) onlyAdminOrOwner(_cID, _frameNumber) public{\n        require(_newOwner != 0);\n        ownerList[_newOwner].push(_frameNumber);\n        register[_frameNumber].owner = _newOwner;\n        string[] storage fn = ownerList[msg.sender];\n        uint index = getFrameIndex(msg.sender, _frameNumber);\n        for (uint i = index; i < fn.length-1; i++){\n          fn[i] = fn[i+1];\n        }\n        delete fn[fn.length-1];\n        fn.length--;\n\n        BikeTransfered(msg.sender, _newOwner, _frameNumber);\n    }\n\n    function removeBike(string _frameNumber, uint _cID) onlyAdminOrOwner(_cID, _frameNumber) public{\n        address owner = register[_frameNumber].owner;\n        delete register[_frameNumber];\n        string[] storage fn = ownerList[owner];\n        uint index = getFrameIndex(owner, _frameNumber);\n        for (uint i = index; i < fn.length-1; i++){\n          fn[i] = fn[i+1];\n        }\n        delete fn[fn.length-1];\n        fn.length--;\n        supplyNum--;\n\n        BikeRemoved(msg.sender, owner, _frameNumber);\n    }\n\n    // Only contract creator can remove companies\n    function removeCompany(uint _cID) onlyContractCreator() public{\n        require(_cID != 0); // Cant remove contract creator\n        require(_cID < company.length);\n        address companyAddress = company[_cID];\n        for (uint i = _cID; i < company.length-1; i++){\n          company[i] = company[i+1];\n        }\n        delete company[company.length-1];\n        company.length--;\n\n        CompanyRemoved(msg.sender, companyAddress, _cID);\n    }\n\n    function changeOwner(address _newOwner) onlyContractCreator() public{\n        company[0] = _newOwner;\n        OwnerChanged(msg.sender, _newOwner);\n    }\n\n    function changeAdminSwitch(bool _status) public returns(bool){\n        require(msg.sender == company[0]);\n        adminSwitch = _status;\n        AdminSwitchChanged(_status);\n        return adminSwitch;\n    }\n\n    // Get functions\n    function getBike(string _frameNumber) constant public\n    returns(address owner, string make, string model, uint16 year, uint8 size, string colour, string features, string details, bool stolen, bool found){\n\n    Bike storage b = register[_frameNumber];\n    owner = b.owner;\n    make = b.make;\n    model = b.model;\n    year = b.year;\n    size = b.size;\n    colour = b.colour;\n    features = b.features;\n    details = b.details;\n    stolen = b.stolen;\n    found = b.found;\n    }\n\n    function getFrameIndex(address _owner, string _frameNumber) constant public returns(uint i){\n        string[] storage fn = ownerList[_owner];\n        for(i = 0; i < fn.length; i++){\n            if(keccak256(fn[i]) == keccak256(_frameNumber)) return i;\n        }\n        require(false); // Fail if not found\n    }\n\n    function getFrameNumber(address _owner, uint _index) constant public returns(string frameNumber){\n        require(_index < ownerList[_owner].length);\n        frameNumber = ownerList[_owner][_index];\n    }\n\n    function getCompany(uint _cID) constant public returns(address co){\n        require(_cID < company.length);\n        co = company[_cID];\n    }\n\n    function getCompanyID() constant public returns(uint id){\n        for(id = 0; id < company.length; id++){\n            if(company[id] == msg.sender) return;\n        }\n        require(false); // Fail if not found\n    }\n\n    function getCompanyLength() constant public returns(uint len){\n        len = company.length;\n    }\n\n    function getContactDetails(address _owner) constant public\n    returns(string contactName, string email, string phone){\n        contactName = contactList[_owner].name;\n        email = contactList[_owner].email;\n        phone = contactList[_owner].phone;\n    }\n\n    function getOwner(string _frameNumber) constant public returns(address owner){\n        owner = register[_frameNumber].owner;\n    }\n\n    function getEthBalance() constant public returns (uint) { return this.balance; }\n\n    function getEthDonated() constant public returns (uint) { return donated; }\n\n    function getAdminSwitch() constant public returns(bool) { return adminSwitch; }\n\n    function getRegistrationPrice() constant public returns(uint)\n    { return registrationPrice; }\n}\n",
  "sourcePath": "/home/safid1/Ethereum/bikechain/contracts/BikeChain.sol",
  "compiler": {
    "name": "solc",
    "version": "0.4.18+commit.9cf6e910.Emscripten.clang"
  },
  "schemaVersion": "1.0.1",
  "updatedAt": "2018-01-07T00:40:05.756Z"
}