{
  "contractName": "BikeChain",
  "abi": [
    {
      "constant": false,
      "inputs": [
        {
          "name": "_frameNumber",
          "type": "string"
        },
        {
          "name": "_make",
          "type": "string"
        },
        {
          "name": "_model",
          "type": "string"
        },
        {
          "name": "_year",
          "type": "uint16"
        },
        {
          "name": "_size",
          "type": "uint8"
        },
        {
          "name": "_colour",
          "type": "string"
        },
        {
          "name": "_features",
          "type": "string"
        },
        {
          "name": "cID",
          "type": "uint256"
        }
      ],
      "name": "addBike",
      "outputs": [],
      "payable": false,
      "stateMutability": "nonpayable",
      "type": "function"
    },
    {
      "constant": false,
      "inputs": [
        {
          "name": "_frameNumber",
          "type": "string"
        },
        {
          "name": "newOwner",
          "type": "address"
        }
      ],
      "name": "transferOwner",
      "outputs": [],
      "payable": false,
      "stateMutability": "nonpayable",
      "type": "function"
    },
    {
      "constant": true,
      "inputs": [
        {
          "name": "_frameNumber",
          "type": "string"
        }
      ],
      "name": "getOwner",
      "outputs": [
        {
          "name": "owner",
          "type": "address"
        }
      ],
      "payable": false,
      "stateMutability": "view",
      "type": "function"
    },
    {
      "constant": true,
      "inputs": [
        {
          "name": "cID",
          "type": "uint256"
        }
      ],
      "name": "getCompany",
      "outputs": [
        {
          "name": "co",
          "type": "address"
        }
      ],
      "payable": false,
      "stateMutability": "view",
      "type": "function"
    },
    {
      "constant": false,
      "inputs": [
        {
          "name": "_frameNumber",
          "type": "string"
        },
        {
          "name": "details",
          "type": "string"
        }
      ],
      "name": "reportFound",
      "outputs": [],
      "payable": false,
      "stateMutability": "nonpayable",
      "type": "function"
    },
    {
      "constant": true,
      "inputs": [
        {
          "name": "_frameNumber",
          "type": "string"
        }
      ],
      "name": "getBike",
      "outputs": [
        {
          "name": "make",
          "type": "string"
        },
        {
          "name": "model",
          "type": "string"
        },
        {
          "name": "year",
          "type": "uint16"
        },
        {
          "name": "size",
          "type": "uint8"
        },
        {
          "name": "colour",
          "type": "string"
        },
        {
          "name": "features",
          "type": "string"
        },
        {
          "name": "stolen",
          "type": "bool"
        }
      ],
      "payable": false,
      "stateMutability": "view",
      "type": "function"
    },
    {
      "constant": false,
      "inputs": [
        {
          "name": "_frameNumber",
          "type": "string"
        },
        {
          "name": "details",
          "type": "string"
        }
      ],
      "name": "reportStolen",
      "outputs": [],
      "payable": false,
      "stateMutability": "nonpayable",
      "type": "function"
    },
    {
      "constant": false,
      "inputs": [
        {
          "name": "cID",
          "type": "uint256"
        },
        {
          "name": "newCompany",
          "type": "address"
        }
      ],
      "name": "addCompany",
      "outputs": [
        {
          "name": "newcID",
          "type": "uint256"
        }
      ],
      "payable": false,
      "stateMutability": "nonpayable",
      "type": "function"
    },
    {
      "constant": true,
      "inputs": [
        {
          "name": "",
          "type": "uint256"
        }
      ],
      "name": "company",
      "outputs": [
        {
          "name": "",
          "type": "address"
        }
      ],
      "payable": false,
      "stateMutability": "view",
      "type": "function"
    },
    {
      "inputs": [],
      "payable": false,
      "stateMutability": "nonpayable",
      "type": "constructor"
    },
    {
      "anonymous": false,
      "inputs": [
        {
          "indexed": false,
          "name": "frameNumber",
          "type": "string"
        }
      ],
      "name": "BikeCreated",
      "type": "event"
    },
    {
      "anonymous": false,
      "inputs": [
        {
          "indexed": false,
          "name": "from",
          "type": "address"
        },
        {
          "indexed": false,
          "name": "to",
          "type": "address"
        },
        {
          "indexed": false,
          "name": "frameNumber",
          "type": "string"
        }
      ],
      "name": "BikeTransfered",
      "type": "event"
    },
    {
      "anonymous": false,
      "inputs": [
        {
          "indexed": false,
          "name": "frameNumber",
          "type": "string"
        },
        {
          "indexed": false,
          "name": "details",
          "type": "string"
        }
      ],
      "name": "BikeStolen",
      "type": "event"
    },
    {
      "anonymous": false,
      "inputs": [
        {
          "indexed": false,
          "name": "finder",
          "type": "address"
        },
        {
          "indexed": false,
          "name": "frameNumber",
          "type": "string"
        },
        {
          "indexed": false,
          "name": "details",
          "type": "string"
        }
      ],
      "name": "BikeFound",
      "type": "event"
    }
  ],
  "bytecode": "0x606060405234156200001057600080fd5b6000805480919060010162000026919062000087565b50336000808154811015156200003857fe5b906000526020600020900160006101000a81548173ffffffffffffffffffffffffffffffffffffffff021916908373ffffffffffffffffffffffffffffffffffffffff160217905550620000de565b815481835581811511620000b157818360005260206000209182019101620000b09190620000b6565b5b505050565b620000db91905b80821115620000d7576000816000905550600101620000bd565b5090565b90565b6119dd80620000ee6000396000f300606060405260043610610099576000357c0100000000000000000000000000000000000000000000000000000000900463ffffffff1680630243067a1461009e57806305b2d258146102295780634aaf4a12146102a557806357d139171461034257806357e6eff6146103a557806364c9f3881461044557806391904ff8146106865780639455fb3314610726578063eacebba31461077c575b600080fd5b34156100a957600080fd5b610227600480803590602001908201803590602001908080601f0160208091040260200160405190810160405280939291908181526020018383808284378201915050505050509190803590602001908201803590602001908080601f0160208091040260200160405190810160405280939291908181526020018383808284378201915050505050509190803590602001908201803590602001908080601f0160208091040260200160405190810160405280939291908181526020018383808284378201915050505050509190803561ffff1690602001909190803560ff1690602001909190803590602001908201803590602001908080601f0160208091040260200160405190810160405280939291908181526020018383808284378201915050505050509190803590602001908201803590602001908080601f016020809104026020016040519081016040528093929190818152602001838380828437820191505050505050919080359060200190919050506107df565b005b341561023457600080fd5b6102a3600480803590602001908201803590602001908080601f0160208091040260200160405190810160405280939291908181526020018383808284378201915050505050509190803573ffffffffffffffffffffffffffffffffffffffff16906020019091905050610ca4565b005b34156102b057600080fd5b610300600480803590602001908201803590602001908080601f01602080910402602001604051908101604052809392919081815260200183838082843782019150505050505091905050610f1d565b604051808273ffffffffffffffffffffffffffffffffffffffff1673ffffffffffffffffffffffffffffffffffffffff16815260200191505060405180910390f35b341561034d57600080fd5b6103636004808035906020019091905050610fb2565b604051808273ffffffffffffffffffffffffffffffffffffffff1673ffffffffffffffffffffffffffffffffffffffff16815260200191505060405180910390f35b34156103b057600080fd5b610443600480803590602001908201803590602001908080601f0160208091040260200160405190810160405280939291908181526020018383808284378201915050505050509190803590602001908201803590602001908080601f01602080910402602001604051908101604052809392919081815260200183838082843782019150505050505091905050611008565b005b341561045057600080fd5b6104a0600480803590602001908201803590602001908080601f016020809104026020016040519081016040528093929190818152602001838380828437820191505050505050919050506111d0565b6040518080602001806020018861ffff1661ffff1681526020018760ff1660ff16815260200180602001806020018615151515815260200185810385528c818151815260200191508051906020019080838360005b838110156105105780820151818401526020810190506104f5565b50505050905090810190601f16801561053d5780820380516001836020036101000a031916815260200191505b5085810384528b818151815260200191508051906020019080838360005b8381101561057657808201518184015260208101905061055b565b50505050905090810190601f1680156105a35780820380516001836020036101000a031916815260200191505b50858103835288818151815260200191508051906020019080838360005b838110156105dc5780820151818401526020810190506105c1565b50505050905090810190601f1680156106095780820380516001836020036101000a031916815260200191505b50858103825287818151815260200191508051906020019080838360005b83811015610642578082015181840152602081019050610627565b50505050905090810190601f16801561066f5780820380516001836020036101000a031916815260200191505b509b50505050505050505050505060405180910390f35b341561069157600080fd5b610724600480803590602001908201803590602001908080601f0160208091040260200160405190810160405280939291908181526020018383808284378201915050505050509190803590602001908201803590602001908080601f01602080910402602001604051908101604052809392919081815260200183838082843782019150505050505091905050611528565b005b341561073157600080fd5b610766600480803590602001909190803573ffffffffffffffffffffffffffffffffffffffff16906020019091905050611789565b6040518082815260200191505060405180910390f35b341561078757600080fd5b61079d6004808035906020019091905050611879565b604051808273ffffffffffffffffffffffffffffffffffffffff1673ffffffffffffffffffffffffffffffffffffffff16815260200191505060405180910390f35b6107e76118b8565b6000826000818154811015156107f957fe5b906000526020600020900160009054906101000a900473ffffffffffffffffffffffffffffffffffffffff1673ffffffffffffffffffffffffffffffffffffffff163373ffffffffffffffffffffffffffffffffffffffff1614151561085e57600080fd5b600060028c6040518082805190602001908083835b6020831015156108985780518252602082019150602081019050602083039250610873565b6001836020036101000a038019825116818451168082178552505050505050905001915050908152602001604051809103902060009054906101000a900473ffffffffffffffffffffffffffffffffffffffff1673ffffffffffffffffffffffffffffffffffffffff1614151561090e57600080fd5b60018b6040518082805190602001908083835b6020831015156109465780518252602082019150602081019050602083039250610921565b6001836020036101000a03801982511681845116808217855250505050505090500191505090815260200160405180910390206000018054600181600116156101000203166002900480601f016020809104026020016040519081016040528092919081815260200182805460018160011615610100020316600290048015610a105780601f106109e557610100808354040283529160200191610a10565b820191906000526020600020905b8154815290600101906020018083116109f357829003601f168201915b5050505050925060008351141515610a2757600080fd5b60018b6040518082805190602001908083835b602083101515610a5f5780518252602082019150602081019050602083039250610a3a565b6001836020036101000a0380198251168184511680821785525050505050509050019150509081526020016040518091039020915089826000019080519060200190610aac9291906118cc565b5088826001019080519060200190610ac59291906118cc565b50878260020160006101000a81548161ffff021916908361ffff160217905550868260020160026101000a81548160ff021916908360ff16021790555085826003019080519060200190610b1a9291906118cc565b5084826004019080519060200190610b339291906118cc565b5060008260050160006101000a81548160ff0219169083151502179055507f5056c1ff30bed0cd453800b553b7ae9a4fbc6096c8799c04173598c3a79160318b6040518080602001828103825283818151815260200191508051906020019080838360005b83811015610bb3578082015181840152602081019050610b98565b50505050905090810190601f168015610be05780820380516001836020036101000a031916815260200191505b509250505060405180910390a13360028c6040518082805190602001908083835b602083101515610c265780518252602082019150602081019050602083039250610c01565b6001836020036101000a038019825116818451168082178552505050505050905001915050908152602001604051809103902060006101000a81548173ffffffffffffffffffffffffffffffffffffffff021916908373ffffffffffffffffffffffffffffffffffffffff1602179055505050505050505050505050565b816002816040518082805190602001908083835b602083101515610cdd5780518252602082019150602081019050602083039250610cb8565b6001836020036101000a038019825116818451168082178552505050505050905001915050908152602001604051809103902060009054906101000a900473ffffffffffffffffffffffffffffffffffffffff1673ffffffffffffffffffffffffffffffffffffffff163373ffffffffffffffffffffffffffffffffffffffff16141515610d6a57600080fd5b816002846040518082805190602001908083835b602083101515610da35780518252602082019150602081019050602083039250610d7e565b6001836020036101000a038019825116818451168082178552505050505050905001915050908152602001604051809103902060006101000a81548173ffffffffffffffffffffffffffffffffffffffff021916908373ffffffffffffffffffffffffffffffffffffffff1602179055507f716758ace00c258050b51a9a3cf0b6c3141dd6b0808840b4a82a9f1aea7d2179338385604051808473ffffffffffffffffffffffffffffffffffffffff1673ffffffffffffffffffffffffffffffffffffffff1681526020018373ffffffffffffffffffffffffffffffffffffffff1673ffffffffffffffffffffffffffffffffffffffff16815260200180602001828103825283818151815260200191508051906020019080838360005b83811015610edc578082015181840152602081019050610ec1565b50505050905090810190601f168015610f095780820380516001836020036101000a031916815260200191505b5094505050505060405180910390a1505050565b60006002826040518082805190602001908083835b602083101515610f575780518252602082019150602081019050602083039250610f32565b6001836020036101000a038019825116818451168082178552505050505050905001915050908152602001604051809103902060009054906101000a900473ffffffffffffffffffffffffffffffffffffffff169050919050565b6000808054905082101515610fc657600080fd5b600082815481101515610fd557fe5b906000526020600020900160009054906101000a900473ffffffffffffffffffffffffffffffffffffffff169050919050565b6001826040518082805190602001908083835b602083101515611040578051825260208201915060208101905060208303925061101b565b6001836020036101000a038019825116818451168082178552505050505050905001915050908152602001604051809103902060050160009054906101000a900460ff16151561108f57600080fd5b7ff7e917dbec11f923a2fcce39d4b5d5e8d1a19f85253f89469253d119f4ee48ab338383604051808473ffffffffffffffffffffffffffffffffffffffff1673ffffffffffffffffffffffffffffffffffffffff1681526020018060200180602001838103835285818151815260200191508051906020019080838360005b8381101561112957808201518184015260208101905061110e565b50505050905090810190601f1680156111565780820380516001836020036101000a031916815260200191505b50838103825284818151815260200191508051906020019080838360005b8381101561118f578082015181840152602081019050611174565b50505050905090810190601f1680156111bc5780820380516001836020036101000a031916815260200191505b509550505050505060405180910390a15050565b6111d861194c565b6111e061194c565b6000806111eb61194c565b6111f361194c565b6000806001896040518082805190602001908083835b60208310151561122e5780518252602082019150602081019050602083039250611209565b6001836020036101000a03801982511681845116808217855250505050505090500191505090815260200160405180910390209050806000018054600181600116156101000203166002900480601f0160208091040260200160405190810160405280929190818152602001828054600181600116156101000203166002900480156112fb5780601f106112d0576101008083540402835291602001916112fb565b820191906000526020600020905b8154815290600101906020018083116112de57829003601f168201915b50505050509750806001018054600181600116156101000203166002900480601f01602080910402602001604051908101604052809291908181526020018280546001816001161561010002031660029004801561139a5780601f1061136f5761010080835404028352916020019161139a565b820191906000526020600020905b81548152906001019060200180831161137d57829003601f168201915b505050505096508060020160009054906101000a900461ffff1695508060020160029054906101000a900460ff169450806003018054600181600116156101000203166002900480601f0160208091040260200160405190810160405280929190818152602001828054600181600116156101000203166002900480156114625780601f1061143757610100808354040283529160200191611462565b820191906000526020600020905b81548152906001019060200180831161144557829003601f168201915b50505050509350806004018054600181600116156101000203166002900480601f0160208091040260200160405190810160405280929190818152602001828054600181600116156101000203166002900480156115015780601f106114d657610100808354040283529160200191611501565b820191906000526020600020905b8154815290600101906020018083116114e457829003601f168201915b505050505092508060050160009054906101000a900460ff16915050919395979092949650565b6000826002816040518082805190602001908083835b602083101515611563578051825260208201915060208101905060208303925061153e565b6001836020036101000a038019825116818451168082178552505050505050905001915050908152602001604051809103902060009054906101000a900473ffffffffffffffffffffffffffffffffffffffff1673ffffffffffffffffffffffffffffffffffffffff163373ffffffffffffffffffffffffffffffffffffffff161415156115f057600080fd5b6001846040518082805190602001908083835b6020831015156116285780518252602082019150602081019050602083039250611603565b6001836020036101000a0380198251168184511680821785525050505050509050019150509081526020016040518091039020915060018260050160006101000a81548160ff0219169083151502179055507fcf8c2bdfdea21b19585214891a7e55ae5272881ddfaa3a4fa6f8f3a71027de768484604051808060200180602001838103835285818151815260200191508051906020019080838360005b838110156116e15780820151818401526020810190506116c6565b50505050905090810190601f16801561170e5780820380516001836020036101000a031916815260200191505b50838103825284818151815260200191508051906020019080838360005b8381101561174757808201518184015260208101905061172c565b50505050905090810190601f1680156117745780820380516001836020036101000a031916815260200191505b5094505050505060405180910390a150505050565b60008260008181548110151561179b57fe5b906000526020600020900160009054906101000a900473ffffffffffffffffffffffffffffffffffffffff1673ffffffffffffffffffffffffffffffffffffffff163373ffffffffffffffffffffffffffffffffffffffff1614151561180057600080fd5b600080548091906001016118149190611960565b91508260008381548110151561182657fe5b906000526020600020900160006101000a81548173ffffffffffffffffffffffffffffffffffffffff021916908373ffffffffffffffffffffffffffffffffffffffff1602179055508191505092915050565b60008181548110151561188857fe5b90600052602060002090016000915054906101000a900473ffffffffffffffffffffffffffffffffffffffff1681565b602060405190810160405280600081525090565b828054600181600116156101000203166002900490600052602060002090601f016020900481019282601f1061190d57805160ff191683800117855561193b565b8280016001018555821561193b579182015b8281111561193a57825182559160200191906001019061191f565b5b509050611948919061198c565b5090565b602060405190810160405280600081525090565b81548183558181151161198757818360005260206000209182019101611986919061198c565b5b505050565b6119ae91905b808211156119aa576000816000905550600101611992565b5090565b905600a165627a7a7230582065dbb617a5409744318f9fbe25d41a14c9b0902ab3a695ef952fbcb35e4f15d00029",
  "source": "pragma solidity ^0.4.18;\n\ncontract BikeChain{\n\n    struct Bike{\n        string make;\n        string model;\n        uint16 year;\n        uint8 size;\n        string colour;\n        string features;\n        bool stolen;\n    }\n\n    address[] public company;\n    mapping(string => Bike) register; // Maps frame number to bike\n    mapping(string => address) ownerList; // Maps frame number to owner\n\n    modifier onlyCompany(uint cID){\n        require(msg.sender == company[cID]);\n        _;\n    }\n\n    modifier bikeOwner(string _frameNumber){\n        require(msg.sender == ownerList[_frameNumber]);\n            _;\n    }\n\n    event BikeCreated(string frameNumber);\n    event BikeTransfered(address from, address to, string frameNumber);\n    event BikeStolen(string frameNumber, string details);\n    event BikeFound(address finder, string frameNumber, string details);\n\n    function BikeChain() public{\n        company.length++;\n        company[0] = msg.sender;\n    }\n\n    function addCompany(uint cID, address newCompany) onlyCompany(cID) public returns(uint newcID){\n        newcID = company.length++;\n        company[newcID] = newCompany;\n        return newcID;\n    }\n\n    function addBike(string _frameNumber, string _make, string _model, uint16 _year, uint8 _size, string _colour, string _features, uint cID) onlyCompany(cID) public{\n        require(ownerList[_frameNumber] == 0); // Check bike isn't owned\n        bytes memory tempEmptyStringTest = bytes(register[_frameNumber].make);\n        require(tempEmptyStringTest.length == 0); // Make sure bike isn't in register\n\n        Bike storage b = register[_frameNumber];\n        b.make = _make;\n        b.model = _model;\n        b.year = _year;\n        b.size = _size;\n        b.colour = _colour;\n        b.features = _features;\n        b.stolen = false;\n        BikeCreated(_frameNumber);\n\n        ownerList[_frameNumber] = msg.sender;\n    }\n\n    function reportStolen(string _frameNumber, string details) bikeOwner(_frameNumber) public{\n        Bike storage b = register[_frameNumber];\n        b.stolen = true;\n        BikeStolen(_frameNumber, details);\n    }\n\n    function transferOwner(string _frameNumber, address newOwner) bikeOwner(_frameNumber) public{\n        ownerList[_frameNumber] = newOwner;\n        BikeTransfered(msg.sender, newOwner, _frameNumber);\n    }\n\n    function reportFound(string _frameNumber, string details) public{\n        require(register[_frameNumber].stolen);\n        BikeFound(msg.sender, _frameNumber, details);\n    }\n\n    // Get functions\n\n    function getBike(string _frameNumber) constant public\n    returns(string make, string model, uint16 year, uint8 size, string colour, string features, bool stolen){\n\n    Bike storage b = register[_frameNumber];\n    make = b.make;\n    model = b.model;\n    year = b.year;\n    size = b.size;\n    colour = b.colour;\n    features = b.features;\n    stolen = b.stolen;\n    }\n\n    function getCompany(uint cID) constant public returns(address co){\n        require(cID < company.length);\n        co = company[cID];\n    }\n\n    function getOwner(string _frameNumber) constant public returns(address owner){\n        owner = ownerList[_frameNumber];\n    }\n\n}\n",
  "sourcePath": "/home/safid1/Ethereum/bikechain/contracts/BikeChain.sol",
  "compiler": {
    "name": "solc",
    "version": "0.4.18+commit.9cf6e910.Emscripten.clang"
  },
  "schemaVersion": "1.0.1",
  "updatedAt": "2017-11-28T15:10:40.509Z"
}