{
  "contractName": "BikeChain",
  "abi": [
    {
      "constant": false,
      "inputs": [
        {
          "name": "_frameNumber",
          "type": "string"
        },
        {
          "name": "_make",
          "type": "string"
        },
        {
          "name": "_model",
          "type": "string"
        },
        {
          "name": "_year",
          "type": "uint16"
        },
        {
          "name": "_size",
          "type": "uint8"
        },
        {
          "name": "_colour",
          "type": "string"
        },
        {
          "name": "_features",
          "type": "string"
        },
        {
          "name": "cID",
          "type": "uint256"
        }
      ],
      "name": "addBike",
      "outputs": [
        {
          "name": "",
          "type": "bool"
        }
      ],
      "payable": false,
      "stateMutability": "nonpayable",
      "type": "function"
    },
    {
      "constant": false,
      "inputs": [
        {
          "name": "_frameNumber",
          "type": "string"
        },
        {
          "name": "newOwner",
          "type": "address"
        }
      ],
      "name": "transferOwner",
      "outputs": [],
      "payable": false,
      "stateMutability": "nonpayable",
      "type": "function"
    },
    {
      "constant": false,
      "inputs": [
        {
          "name": "cID",
          "type": "uint256"
        }
      ],
      "name": "removeCompany",
      "outputs": [],
      "payable": false,
      "stateMutability": "nonpayable",
      "type": "function"
    },
    {
      "constant": false,
      "inputs": [
        {
          "name": "status",
          "type": "bool"
        }
      ],
      "name": "changeAdminSwitch",
      "outputs": [],
      "payable": false,
      "stateMutability": "nonpayable",
      "type": "function"
    },
    {
      "constant": true,
      "inputs": [
        {
          "name": "_frameNumber",
          "type": "string"
        }
      ],
      "name": "getOwner",
      "outputs": [
        {
          "name": "owner",
          "type": "address"
        }
      ],
      "payable": false,
      "stateMutability": "view",
      "type": "function"
    },
    {
      "constant": true,
      "inputs": [
        {
          "name": "cID",
          "type": "uint256"
        }
      ],
      "name": "getCompany",
      "outputs": [
        {
          "name": "co",
          "type": "address"
        }
      ],
      "payable": false,
      "stateMutability": "view",
      "type": "function"
    },
    {
      "constant": false,
      "inputs": [
        {
          "name": "_frameNumber",
          "type": "string"
        },
        {
          "name": "details",
          "type": "string"
        }
      ],
      "name": "reportFound",
      "outputs": [],
      "payable": false,
      "stateMutability": "nonpayable",
      "type": "function"
    },
    {
      "constant": true,
      "inputs": [
        {
          "name": "_frameNumber",
          "type": "string"
        }
      ],
      "name": "getBike",
      "outputs": [
        {
          "name": "make",
          "type": "string"
        },
        {
          "name": "model",
          "type": "string"
        },
        {
          "name": "year",
          "type": "uint16"
        },
        {
          "name": "size",
          "type": "uint8"
        },
        {
          "name": "colour",
          "type": "string"
        },
        {
          "name": "features",
          "type": "string"
        },
        {
          "name": "stolen",
          "type": "bool"
        }
      ],
      "payable": false,
      "stateMutability": "view",
      "type": "function"
    },
    {
      "constant": false,
      "inputs": [
        {
          "name": "_frameNumber",
          "type": "string"
        },
        {
          "name": "details",
          "type": "string"
        }
      ],
      "name": "reportStolen",
      "outputs": [],
      "payable": false,
      "stateMutability": "nonpayable",
      "type": "function"
    },
    {
      "constant": false,
      "inputs": [
        {
          "name": "cID",
          "type": "uint256"
        },
        {
          "name": "newCompany",
          "type": "address"
        }
      ],
      "name": "addCompany",
      "outputs": [
        {
          "name": "newcID",
          "type": "uint256"
        }
      ],
      "payable": false,
      "stateMutability": "nonpayable",
      "type": "function"
    },
    {
      "constant": true,
      "inputs": [
        {
          "name": "",
          "type": "uint256"
        }
      ],
      "name": "company",
      "outputs": [
        {
          "name": "",
          "type": "address"
        }
      ],
      "payable": false,
      "stateMutability": "view",
      "type": "function"
    },
    {
      "inputs": [],
      "payable": false,
      "stateMutability": "nonpayable",
      "type": "constructor"
    },
    {
      "anonymous": false,
      "inputs": [
        {
          "indexed": false,
          "name": "frameNumber",
          "type": "string"
        }
      ],
      "name": "BikeCreated",
      "type": "event"
    },
    {
      "anonymous": false,
      "inputs": [
        {
          "indexed": false,
          "name": "from",
          "type": "address"
        },
        {
          "indexed": false,
          "name": "to",
          "type": "address"
        },
        {
          "indexed": false,
          "name": "frameNumber",
          "type": "string"
        }
      ],
      "name": "BikeTransfered",
      "type": "event"
    },
    {
      "anonymous": false,
      "inputs": [
        {
          "indexed": false,
          "name": "frameNumber",
          "type": "string"
        },
        {
          "indexed": false,
          "name": "details",
          "type": "string"
        }
      ],
      "name": "BikeStolen",
      "type": "event"
    },
    {
      "anonymous": false,
      "inputs": [
        {
          "indexed": false,
          "name": "finder",
          "type": "address"
        },
        {
          "indexed": false,
          "name": "frameNumber",
          "type": "string"
        },
        {
          "indexed": false,
          "name": "details",
          "type": "string"
        }
      ],
      "name": "BikeFound",
      "type": "event"
    }
  ],
  "bytecode": "0x606060405260008060006101000a81548160ff02191690831515021790555034156200002a57600080fd5b60018054809190600101620000409190620000a2565b5033600160008154811015156200005357fe5b906000526020600020900160006101000a81548173ffffffffffffffffffffffffffffffffffffffff021916908373ffffffffffffffffffffffffffffffffffffffff160217905550620000f9565b815481835581811511620000cc57818360005260206000209182019101620000cb9190620000d1565b5b505050565b620000f691905b80821115620000f2576000816000905550600101620000d8565b5090565b90565b611cd480620001096000396000f3006060604052600436106100af576000357c0100000000000000000000000000000000000000000000000000000000900463ffffffff1680630243067a146100b457806305b2d258146102575780633f21d44c146102d357806348471dbb146102f65780634aaf4a121461031b57806357d13917146103b857806357e6eff61461041b57806364c9f388146104bb57806391904ff8146106fc5780639455fb331461079c578063eacebba3146107f2575b600080fd5b34156100bf57600080fd5b61023d600480803590602001908201803590602001908080601f0160208091040260200160405190810160405280939291908181526020018383808284378201915050505050509190803590602001908201803590602001908080601f0160208091040260200160405190810160405280939291908181526020018383808284378201915050505050509190803590602001908201803590602001908080601f0160208091040260200160405190810160405280939291908181526020018383808284378201915050505050509190803561ffff1690602001909190803560ff1690602001909190803590602001908201803590602001908080601f0160208091040260200160405190810160405280939291908181526020018383808284378201915050505050509190803590602001908201803590602001908080601f01602080910402602001604051908101604052809392919081815260200183838082843782019150505050505091908035906020019091905050610855565b604051808215151515815260200191505060405180910390f35b341561026257600080fd5b6102d1600480803590602001908201803590602001908080601f0160208091040260200160405190810160405280939291908181526020018383808284378201915050505050509190803573ffffffffffffffffffffffffffffffffffffffff16906020019091905050610d37565b005b34156102de57600080fd5b6102f46004808035906020019091905050610fb0565b005b341561030157600080fd5b610319600480803515159060200190919050506110e6565b005b341561032657600080fd5b610376600480803590602001908201803590602001908080601f01602080910402602001604051908101604052809392919081815260200183838082843782019150505050505091905050611177565b604051808273ffffffffffffffffffffffffffffffffffffffff1673ffffffffffffffffffffffffffffffffffffffff16815260200191505060405180910390f35b34156103c357600080fd5b6103d9600480803590602001909190505061120c565b604051808273ffffffffffffffffffffffffffffffffffffffff1673ffffffffffffffffffffffffffffffffffffffff16815260200191505060405180910390f35b341561042657600080fd5b6104b9600480803590602001908201803590602001908080601f0160208091040260200160405190810160405280939291908181526020018383808284378201915050505050509190803590602001908201803590602001908080601f01602080910402602001604051908101604052809392919081815260200183838082843782019150505050505091905050611263565b005b34156104c657600080fd5b610516600480803590602001908201803590602001908080601f016020809104026020016040519081016040528093929190818152602001838380828437820191505050505050919050506114b2565b6040518080602001806020018861ffff1661ffff1681526020018760ff1660ff16815260200180602001806020018615151515815260200185810385528c818151815260200191508051906020019080838360005b8381101561058657808201518184015260208101905061056b565b50505050905090810190601f1680156105b35780820380516001836020036101000a031916815260200191505b5085810384528b818151815260200191508051906020019080838360005b838110156105ec5780820151818401526020810190506105d1565b50505050905090810190601f1680156106195780820380516001836020036101000a031916815260200191505b50858103835288818151815260200191508051906020019080838360005b83811015610652578082015181840152602081019050610637565b50505050905090810190601f16801561067f5780820380516001836020036101000a031916815260200191505b50858103825287818151815260200191508051906020019080838360005b838110156106b857808201518184015260208101905061069d565b50505050905090810190601f1680156106e55780820380516001836020036101000a031916815260200191505b509b50505050505050505050505060405180910390f35b341561070757600080fd5b61079a600480803590602001908201803590602001908080601f0160208091040260200160405190810160405280939291908181526020018383808284378201915050505050509190803590602001908201803590602001908080601f0160208091040260200160405190810160405280939291908181526020018383808284378201915050505050509190505061180a565b005b34156107a757600080fd5b6107dc600480803590602001909190803573ffffffffffffffffffffffffffffffffffffffff16906020019091905050611a6b565b6040518082815260200191505060405180910390f35b34156107fd57600080fd5b6108136004808035906020019091905050611b70565b604051808273ffffffffffffffffffffffffffffffffffffffff1673ffffffffffffffffffffffffffffffffffffffff16815260200191505060405180910390f35b600061085f611baf565b6000836000809054906101000a900460ff16156108eb5760018181548110151561088557fe5b906000526020600020900160009054906101000a900473ffffffffffffffffffffffffffffffffffffffff1673ffffffffffffffffffffffffffffffffffffffff163373ffffffffffffffffffffffffffffffffffffffff161415156108ea57600080fd5b5b600060038d6040518082805190602001908083835b6020831015156109255780518252602082019150602081019050602083039250610900565b6001836020036101000a038019825116818451168082178552505050505050905001915050908152602001604051809103902060009054906101000a900473ffffffffffffffffffffffffffffffffffffffff1673ffffffffffffffffffffffffffffffffffffffff1614151561099b57600080fd5b60028c6040518082805190602001908083835b6020831015156109d357805182526020820191506020810190506020830392506109ae565b6001836020036101000a03801982511681845116808217855250505050505090500191505090815260200160405180910390206000018054600181600116156101000203166002900480601f016020809104026020016040519081016040528092919081815260200182805460018160011615610100020316600290048015610a9d5780601f10610a7257610100808354040283529160200191610a9d565b820191906000526020600020905b815481529060010190602001808311610a8057829003601f168201915b5050505050925060008351141515610ab457600080fd5b60028c6040518082805190602001908083835b602083101515610aec5780518252602082019150602081019050602083039250610ac7565b6001836020036101000a038019825116818451168082178552505050505050905001915050908152602001604051809103902091508a826000019080519060200190610b39929190611bc3565b5089826001019080519060200190610b52929190611bc3565b50888260020160006101000a81548161ffff021916908361ffff160217905550878260020160026101000a81548160ff021916908360ff16021790555086826003019080519060200190610ba7929190611bc3565b5085826004019080519060200190610bc0929190611bc3565b5060008260050160006101000a81548160ff0219169083151502179055507f5056c1ff30bed0cd453800b553b7ae9a4fbc6096c8799c04173598c3a79160318c6040518080602001828103825283818151815260200191508051906020019080838360005b83811015610c40578082015181840152602081019050610c25565b50505050905090810190601f168015610c6d5780820380516001836020036101000a031916815260200191505b509250505060405180910390a13360038d6040518082805190602001908083835b602083101515610cb35780518252602082019150602081019050602083039250610c8e565b6001836020036101000a038019825116818451168082178552505050505050905001915050908152602001604051809103902060006101000a81548173ffffffffffffffffffffffffffffffffffffffff021916908373ffffffffffffffffffffffffffffffffffffffff1602179055506001935050505098975050505050505050565b816003816040518082805190602001908083835b602083101515610d705780518252602082019150602081019050602083039250610d4b565b6001836020036101000a038019825116818451168082178552505050505050905001915050908152602001604051809103902060009054906101000a900473ffffffffffffffffffffffffffffffffffffffff1673ffffffffffffffffffffffffffffffffffffffff163373ffffffffffffffffffffffffffffffffffffffff16141515610dfd57600080fd5b816003846040518082805190602001908083835b602083101515610e365780518252602082019150602081019050602083039250610e11565b6001836020036101000a038019825116818451168082178552505050505050905001915050908152602001604051809103902060006101000a81548173ffffffffffffffffffffffffffffffffffffffff021916908373ffffffffffffffffffffffffffffffffffffffff1602179055507f716758ace00c258050b51a9a3cf0b6c3141dd6b0808840b4a82a9f1aea7d2179338385604051808473ffffffffffffffffffffffffffffffffffffffff1673ffffffffffffffffffffffffffffffffffffffff1681526020018373ffffffffffffffffffffffffffffffffffffffff1673ffffffffffffffffffffffffffffffffffffffff16815260200180602001828103825283818151815260200191508051906020019080838360005b83811015610f6f578082015181840152602081019050610f54565b50505050905090810190601f168015610f9c5780820380516001836020036101000a031916815260200191505b5094505050505060405180910390a1505050565b6000808214151515610fc157600080fd5b60018054905082101515610fd457600080fd5b8190505b6001808054905003811015611089576001808201815481101515610ff857fe5b906000526020600020900160009054906101000a900473ffffffffffffffffffffffffffffffffffffffff1660018281548110151561103357fe5b906000526020600020900160006101000a81548173ffffffffffffffffffffffffffffffffffffffff021916908373ffffffffffffffffffffffffffffffffffffffff1602179055508080600101915050610fd8565b60018080805490500381548110151561109e57fe5b906000526020600020900160006101000a81549073ffffffffffffffffffffffffffffffffffffffff021916905560018054809190600190036110e19190611c43565b505050565b600160008154811015156110f657fe5b906000526020600020900160009054906101000a900473ffffffffffffffffffffffffffffffffffffffff1673ffffffffffffffffffffffffffffffffffffffff163373ffffffffffffffffffffffffffffffffffffffff1614151561115b57600080fd5b806000806101000a81548160ff02191690831515021790555050565b60006003826040518082805190602001908083835b6020831015156111b1578051825260208201915060208101905060208303925061118c565b6001836020036101000a038019825116818451168082178552505050505050905001915050908152602001604051809103902060009054906101000a900473ffffffffffffffffffffffffffffffffffffffff169050919050565b60006001805490508210151561122157600080fd5b60018281548110151561123057fe5b906000526020600020900160009054906101000a900473ffffffffffffffffffffffffffffffffffffffff169050919050565b6002826040518082805190602001908083835b60208310151561129b5780518252602082019150602081019050602083039250611276565b6001836020036101000a038019825116818451168082178552505050505050905001915050908152602001604051809103902060050160009054906101000a900460ff1615156112ea57600080fd5b60006002836040518082805190602001908083835b60208310151561132457805182526020820191506020810190506020830392506112ff565b6001836020036101000a038019825116818451168082178552505050505050905001915050908152602001604051809103902060050160006101000a81548160ff0219169083151502179055507ff7e917dbec11f923a2fcce39d4b5d5e8d1a19f85253f89469253d119f4ee48ab338383604051808473ffffffffffffffffffffffffffffffffffffffff1673ffffffffffffffffffffffffffffffffffffffff1681526020018060200180602001838103835285818151815260200191508051906020019080838360005b8381101561140b5780820151818401526020810190506113f0565b50505050905090810190601f1680156114385780820380516001836020036101000a031916815260200191505b50838103825284818151815260200191508051906020019080838360005b83811015611471578082015181840152602081019050611456565b50505050905090810190601f16801561149e5780820380516001836020036101000a031916815260200191505b509550505050505060405180910390a15050565b6114ba611c6f565b6114c2611c6f565b6000806114cd611c6f565b6114d5611c6f565b6000806002896040518082805190602001908083835b60208310151561151057805182526020820191506020810190506020830392506114eb565b6001836020036101000a03801982511681845116808217855250505050505090500191505090815260200160405180910390209050806000018054600181600116156101000203166002900480601f0160208091040260200160405190810160405280929190818152602001828054600181600116156101000203166002900480156115dd5780601f106115b2576101008083540402835291602001916115dd565b820191906000526020600020905b8154815290600101906020018083116115c057829003601f168201915b50505050509750806001018054600181600116156101000203166002900480601f01602080910402602001604051908101604052809291908181526020018280546001816001161561010002031660029004801561167c5780601f106116515761010080835404028352916020019161167c565b820191906000526020600020905b81548152906001019060200180831161165f57829003601f168201915b505050505096508060020160009054906101000a900461ffff1695508060020160029054906101000a900460ff169450806003018054600181600116156101000203166002900480601f0160208091040260200160405190810160405280929190818152602001828054600181600116156101000203166002900480156117445780601f1061171957610100808354040283529160200191611744565b820191906000526020600020905b81548152906001019060200180831161172757829003601f168201915b50505050509350806004018054600181600116156101000203166002900480601f0160208091040260200160405190810160405280929190818152602001828054600181600116156101000203166002900480156117e35780601f106117b8576101008083540402835291602001916117e3565b820191906000526020600020905b8154815290600101906020018083116117c657829003601f168201915b505050505092508060050160009054906101000a900460ff16915050919395979092949650565b6000826003816040518082805190602001908083835b6020831015156118455780518252602082019150602081019050602083039250611820565b6001836020036101000a038019825116818451168082178552505050505050905001915050908152602001604051809103902060009054906101000a900473ffffffffffffffffffffffffffffffffffffffff1673ffffffffffffffffffffffffffffffffffffffff163373ffffffffffffffffffffffffffffffffffffffff161415156118d257600080fd5b6002846040518082805190602001908083835b60208310151561190a57805182526020820191506020810190506020830392506118e5565b6001836020036101000a0380198251168184511680821785525050505050509050019150509081526020016040518091039020915060018260050160006101000a81548160ff0219169083151502179055507fcf8c2bdfdea21b19585214891a7e55ae5272881ddfaa3a4fa6f8f3a71027de768484604051808060200180602001838103835285818151815260200191508051906020019080838360005b838110156119c35780820151818401526020810190506119a8565b50505050905090810190601f1680156119f05780820380516001836020036101000a031916815260200191505b50838103825284818151815260200191508051906020019080838360005b83811015611a29578082015181840152602081019050611a0e565b50505050905090810190601f168015611a565780820380516001836020036101000a031916815260200191505b5094505050505060405180910390a150505050565b6000826000809054906101000a900460ff1615611af757600181815481101515611a9157fe5b906000526020600020900160009054906101000a900473ffffffffffffffffffffffffffffffffffffffff1673ffffffffffffffffffffffffffffffffffffffff163373ffffffffffffffffffffffffffffffffffffffff16141515611af657600080fd5b5b60018054809190600101611b0b9190611c43565b915082600183815481101515611b1d57fe5b906000526020600020900160006101000a81548173ffffffffffffffffffffffffffffffffffffffff021916908373ffffffffffffffffffffffffffffffffffffffff1602179055508191505092915050565b600181815481101515611b7f57fe5b90600052602060002090016000915054906101000a900473ffffffffffffffffffffffffffffffffffffffff1681565b602060405190810160405280600081525090565b828054600181600116156101000203166002900490600052602060002090601f016020900481019282601f10611c0457805160ff1916838001178555611c32565b82800160010185558215611c32579182015b82811115611c31578251825591602001919060010190611c16565b5b509050611c3f9190611c83565b5090565b815481835581811511611c6a57818360005260206000209182019101611c699190611c83565b5b505050565b602060405190810160405280600081525090565b611ca591905b80821115611ca1576000816000905550600101611c89565b5090565b905600a165627a7a7230582025fac41aaee2b57c849d1e57335fac89e8e0819e1a1286a5b1ce1917c17f38a80029",
  "source": "pragma solidity ^0.4.18;\n\ncontract BikeChain{\n\n    struct Bike{\n        string make;\n        string model;\n        uint16 year;\n        uint8 size;\n        string colour;\n        string features;\n        bool stolen;\n    }\n\n    // Currently unused\n    struct Owner{\n        address owner;\n        string email;\n    }\n\n    // Switch to turn admin off or on\n    bool admin_switch = false;\n\n    address[] public company;\n    mapping(string => Bike) register; // Maps frame number to bike\n    mapping(string => address) ownerList; // Maps frame number to owner\n\n    modifier onlyCompany(uint cID){\n        if(admin_switch) require(msg.sender == company[cID]);\n        _;\n    }\n\n    modifier bikeOwner(string _frameNumber){\n        require(msg.sender == ownerList[_frameNumber]);\n            _;\n    }\n\n    event BikeCreated(string frameNumber);\n    event BikeTransfered(address from, address to, string frameNumber);\n    event BikeStolen(string frameNumber, string details);\n    event BikeFound(address finder, string frameNumber, string details);\n\n    function BikeChain() public{\n        company.length++;\n        company[0] = msg.sender;\n    }\n\n    function addCompany(uint cID, address newCompany) onlyCompany(cID) public returns(uint newcID){\n        newcID = company.length++;\n        company[newcID] = newCompany;\n        return newcID;\n    }\n\n    function addBike(string _frameNumber, string _make, string _model, uint16 _year, uint8 _size, string _colour, string _features, uint cID)\n    onlyCompany(cID) public returns(bool){\n        require(ownerList[_frameNumber] == 0); // Check bike isn't owned\n        bytes memory tempEmptyStringTest = bytes(register[_frameNumber].make);\n        require(tempEmptyStringTest.length == 0); // Make sure bike isn't in register\n\n        Bike storage b = register[_frameNumber];\n        b.make = _make;\n        b.model = _model;\n        b.year = _year;\n        b.size = _size;\n        b.colour = _colour;\n        b.features = _features;\n        b.stolen = false;\n        BikeCreated(_frameNumber);\n\n        ownerList[_frameNumber] = msg.sender;\n\n        return true;\n    }\n\n    function reportStolen(string _frameNumber, string details) bikeOwner(_frameNumber) public{\n        Bike storage b = register[_frameNumber];\n        b.stolen = true;\n        BikeStolen(_frameNumber, details);\n    }\n\n    function transferOwner(string _frameNumber, address newOwner) bikeOwner(_frameNumber) public{\n        ownerList[_frameNumber] = newOwner;\n        BikeTransfered(msg.sender, newOwner, _frameNumber);\n    }\n\n    function reportFound(string _frameNumber, string details) public{\n        require(register[_frameNumber].stolen);\n        register[_frameNumber].stolen = false;\n        BikeFound(msg.sender, _frameNumber, details);\n    }\n\n    function removeCompany(uint cID) public{\n        require(cID != 0);\n        require(cID < company.length);\n\n        for (uint i = cID; i < company.length-1; i++){\n          company[i] = company[i+1];\n        }\n        delete company[company.length-1];\n        company.length--;\n    }\n\n    function changeAdminSwitch(bool status) public{\n        require(msg.sender == company[0]);\n        admin_switch = status;\n    }\n\n    // Get functions\n\n    function getBike(string _frameNumber) constant public\n    returns(string make, string model, uint16 year, uint8 size, string colour, string features, bool stolen){\n\n    Bike storage b = register[_frameNumber];\n    make = b.make;\n    model = b.model;\n    year = b.year;\n    size = b.size;\n    colour = b.colour;\n    features = b.features;\n    stolen = b.stolen;\n    }\n\n    function getCompany(uint cID) constant public returns(address co){\n        require(cID < company.length);\n        co = company[cID];\n    }\n\n    function getOwner(string _frameNumber) constant public returns(address owner){\n        owner = ownerList[_frameNumber];\n    }\n}\n",
  "sourcePath": "/home/safid1/Ethereum/bikechain/contracts/BikeChain.sol",
  "compiler": {
    "name": "solc",
    "version": "0.4.18+commit.9cf6e910.Emscripten.clang"
  },
  "schemaVersion": "1.0.1",
  "updatedAt": "2017-12-04T00:19:21.878Z"
}