{
  "contractName": "Contacts",
  "abi": [
    {
      "constant": false,
      "inputs": [
        {
          "name": "_name",
          "type": "string"
        },
        {
          "name": "_email",
          "type": "string"
        },
        {
          "name": "_phone",
          "type": "string"
        }
      ],
      "name": "addContactDetails",
      "outputs": [],
      "payable": false,
      "stateMutability": "nonpayable",
      "type": "function"
    },
    {
      "constant": false,
      "inputs": [],
      "name": "removeContactDetails",
      "outputs": [],
      "payable": false,
      "stateMutability": "nonpayable",
      "type": "function"
    },
    {
      "constant": true,
      "inputs": [
        {
          "name": "_owner",
          "type": "address"
        }
      ],
      "name": "getContactDetails",
      "outputs": [
        {
          "name": "contactName",
          "type": "string"
        },
        {
          "name": "email",
          "type": "string"
        },
        {
          "name": "phone",
          "type": "string"
        }
      ],
      "payable": false,
      "stateMutability": "view",
      "type": "function"
    },
    {
      "anonymous": false,
      "inputs": [
        {
          "indexed": false,
          "name": "owner",
          "type": "address"
        },
        {
          "indexed": false,
          "name": "name",
          "type": "string"
        },
        {
          "indexed": false,
          "name": "email",
          "type": "string"
        },
        {
          "indexed": false,
          "name": "phone",
          "type": "string"
        }
      ],
      "name": "ContactDetailsAdded",
      "type": "event"
    }
  ],
  "bytecode": "0x6060604052341561000f57600080fd5b6109e28061001e6000396000f300606060405260043610610057576000357c0100000000000000000000000000000000000000000000000000000000900463ffffffff1680638c9823491461005c578063cab910cf1461013f578063cf3dcea614610154575b600080fd5b341561006757600080fd5b61013d600480803590602001908201803590602001908080601f0160208091040260200160405190810160405280939291908181526020018383808284378201915050505050509190803590602001908201803590602001908080601f0160208091040260200160405190810160405280939291908181526020018383808284378201915050505050509190803590602001908201803590602001908080601f016020809104026020016040519081016040528093929190818152602001838380828437820191505050505050919050506102de565b005b341561014a57600080fd5b61015261058f565b005b341561015f57600080fd5b61018b600480803573ffffffffffffffffffffffffffffffffffffffff16906020019091905050610602565b60405180806020018060200180602001848103845287818151815260200191508051906020019080838360005b838110156101d35780820151818401526020810190506101b8565b50505050905090810190601f1680156102005780820380516001836020036101000a031916815260200191505b50848103835286818151815260200191508051906020019080838360005b8381101561023957808201518184015260208101905061021e565b50505050905090810190601f1680156102665780820380516001836020036101000a031916815260200191505b50848103825285818151815260200191508051906020019080838360005b8381101561029f578082015181840152602081019050610284565b50505050905090810190601f1680156102cc5780820380516001836020036101000a031916815260200191505b50965050505050505060405180910390f35b826000803373ffffffffffffffffffffffffffffffffffffffff1673ffffffffffffffffffffffffffffffffffffffff16815260200190815260200160002060000190805190602001906103339291906108b5565b50816000803373ffffffffffffffffffffffffffffffffffffffff1673ffffffffffffffffffffffffffffffffffffffff16815260200190815260200160002060010190805190602001906103899291906108b5565b50806000803373ffffffffffffffffffffffffffffffffffffffff1673ffffffffffffffffffffffffffffffffffffffff16815260200190815260200160002060020190805190602001906103df9291906108b5565b507faa12444512445290b181c1cce08d320b5c4e97519242b6775fbe677ca0bd22c933848484604051808573ffffffffffffffffffffffffffffffffffffffff1673ffffffffffffffffffffffffffffffffffffffff168152602001806020018060200180602001848103845287818151815260200191508051906020019080838360005b8381101561047f578082015181840152602081019050610464565b50505050905090810190601f1680156104ac5780820380516001836020036101000a031916815260200191505b50848103835286818151815260200191508051906020019080838360005b838110156104e55780820151818401526020810190506104ca565b50505050905090810190601f1680156105125780820380516001836020036101000a031916815260200191505b50848103825285818151815260200191508051906020019080838360005b8381101561054b578082015181840152602081019050610530565b50505050905090810190601f1680156105785780820380516001836020036101000a031916815260200191505b5097505050505050505060405180910390a1505050565b6000803373ffffffffffffffffffffffffffffffffffffffff1673ffffffffffffffffffffffffffffffffffffffff168152602001908152602001600020600080820160006105de9190610935565b6001820160006105ee9190610935565b6002820160006105fe9190610935565b5050565b61060a61097d565b61061261097d565b61061a61097d565b6000808573ffffffffffffffffffffffffffffffffffffffff1673ffffffffffffffffffffffffffffffffffffffff1681526020019081526020016000206000018054600181600116156101000203166002900480601f0160208091040260200160405190810160405280929190818152602001828054600181600116156101000203166002900480156106ef5780601f106106c4576101008083540402835291602001916106ef565b820191906000526020600020905b8154815290600101906020018083116106d257829003601f168201915b505050505092506000808573ffffffffffffffffffffffffffffffffffffffff1673ffffffffffffffffffffffffffffffffffffffff1681526020019081526020016000206001018054600181600116156101000203166002900480601f0160208091040260200160405190810160405280929190818152602001828054600181600116156101000203166002900480156107cb5780601f106107a0576101008083540402835291602001916107cb565b820191906000526020600020905b8154815290600101906020018083116107ae57829003601f168201915b505050505091506000808573ffffffffffffffffffffffffffffffffffffffff1673ffffffffffffffffffffffffffffffffffffffff1681526020019081526020016000206002018054600181600116156101000203166002900480601f0160208091040260200160405190810160405280929190818152602001828054600181600116156101000203166002900480156108a75780601f1061087c576101008083540402835291602001916108a7565b820191906000526020600020905b81548152906001019060200180831161088a57829003601f168201915b505050505090509193909250565b828054600181600116156101000203166002900490600052602060002090601f016020900481019282601f106108f657805160ff1916838001178555610924565b82800160010185558215610924579182015b82811115610923578251825591602001919060010190610908565b5b5090506109319190610991565b5090565b50805460018160011615610100020316600290046000825580601f1061095b575061097a565b601f0160209004906000526020600020908101906109799190610991565b5b50565b602060405190810160405280600081525090565b6109b391905b808211156109af576000816000905550600101610997565b5090565b905600a165627a7a72305820cf9678b970d637909b04b8a83200b43813cd2b5829ec8eab7148f386d6cc8a020029",
  "source": "pragma solidity ^0.4.18;\n\ncontract Contacts{\n\n    struct ContactDetails{\n        string name;\n        string email;\n        string phone;\n    }\n\n    mapping(address => ContactDetails) contactList; // Owner details\n\n    event ContactDetailsAdded(address owner, string name, string email, string phone);\n\n    function addContactDetails(string _name, string _email, string _phone) public{\n        contactList[msg.sender].name = _name;\n        contactList[msg.sender].email = _email;\n        contactList[msg.sender].phone = _phone;\n        ContactDetailsAdded(msg.sender, _name, _email, _phone);\n    }\n\n    function getContactDetails(address _owner) constant public\n    returns(string contactName, string email, string phone){\n        contactName = contactList[_owner].name;\n        email = contactList[_owner].email;\n        phone = contactList[_owner].phone;\n    }\n\n    function removeContactDetails() public{\n        delete contactList[msg.sender];\n    }\n}\n\ncontract BikeChain is Contacts{\n\n  // ----- Coupon Code -----\n\n  mapping(address => bool) public coupon;\n\n  function giveCoupon(address _to) onlyCompany public{\n      coupon[_to] = true;\n  }\n\n  function takeCoupon(address _to) onlyCompany public{\n      delete coupon[_to];\n  }\n\n  function useCoupon() internal{\n      coupon[msg.sender] = false;\n  }\n\n  // ------------------------\n\n    string contractName;\n    string contractSymbol;\n    uint256 totalSupply;\n    uint256 donated;\n    address creator;\n\n    struct Bike{\n        address owner;\n        bool stolen;\n        bool found;\n        string founddetails;\n        string infoUrl;\n    }\n\n    // Switch to turn company admin off or on\n    bool adminSwitch;\n\n    // Price to register Bike in Wei\n    uint registrationPrice;\n\n    mapping(address => bool) company;\n    mapping(string => Bike) register; // Maps frame number to bike\n    mapping(address => string[]) ownerList; // Maps address to frame numbers\n    mapping(string => address) approvedAddress; // Maps frame number to address which is approved to take ownership\n\n    modifier onlyAdmin(){\n        if(adminSwitch) require(company[msg.sender]);\n        _;\n    }\n\n    modifier onlyAdminOrOwner(string _frameNumber){\n        require((adminSwitch && (company[msg.sender])) || register[_frameNumber].owner == msg.sender);\n        _;\n    }\n\n    modifier onlyCompany(){\n        require(company[msg.sender]);\n        _;\n    }\n\n    modifier onlyCompanyOrOwner(uint _cID, string _frameNumber){\n        require(company[msg.sender] || (register[_frameNumber].owner == msg.sender));\n        _;\n    }\n\n    modifier onlyContractCreator(){\n        require(msg.sender == creator);\n        _;\n    }\n\n    modifier bikeOwner(string _frameNumber){\n        require(register[_frameNumber].owner == msg.sender);\n        _;\n    }\n\n    modifier hasApproval(string _frameNumber){\n        require(approvedAddress[_frameNumber] == msg.sender);\n        _;\n    }\n\n    modifier costs(uint _price) {\n        require(msg.value >= _price);\n            _;\n    }\n\n    event Approval(address owner, address to, string frameNumber);\n    event BikeCreated(string frameNumber);\n    event BikeRemoved(address company, address owner, string frameNumber);\n    event BikeTransfered(address from, address to, string frameNumber);\n    event BikeStolen(string frameNumber, string details);\n    event BikeFound(address finder, string frameNumber);\n    event BikeNotFound(address finder, string frameNumber);\n    event BikeReturned(address owner, string frameNumber);\n    event CompanyAdded(address admin, address company);\n    event CompanyRemoved(address admin, address company);\n    event OwnerChanged(address from, address to);\n    event EtherWithdrawn(address from, address to, uint value);\n    event AdminSwitchChanged(bool status);\n\n    function BikeChain() public{\n        creator = msg.sender;\n        registrationPrice = 10000000000000000;\n        adminSwitch = false;\n        contractName = \"Bike-Token\";\n        contractSymbol = \"🚲\";\n        totalSupply = 0;\n    }\n\n    // Begin Temporary functions\n\n    function getSender() constant public returns(address){\n      return msg.sender;\n    }\n\n    function getEthBalance() constant public returns (uint) { return this.balance; }\n\n    // End Temporary functions\n\n    // Begin ERC-721 Standard Functions\n\n    function name() constant public returns (string){\n      return contractName;\n    }\n\n    function symbol() constant public returns (string){\n      return contractSymbol;\n    }\n\n    function getTotalSupply() constant public returns (uint256){\n      return totalSupply;\n    }\n\n    function balanceOf(address _owner) constant public returns (uint256){\n      return ownerList[_owner].length;\n    }\n\n    function ownerOf(string _frameNumber) constant public returns (address){\n      require(register[_frameNumber].owner != 0);\n      return register[_frameNumber].owner;\n    }\n\n    function approve(address _to, string _frameNumber) bikeOwner(_frameNumber) public{\n      approvedAddress[_frameNumber] = _to;\n      Approval(msg.sender, _to, _frameNumber);\n    }\n\n    function takeOwnership(string _frameNumber) hasApproval(_frameNumber) public{\n      address oldOwner = register[_frameNumber].owner;\n      ownerList[msg.sender].push(_frameNumber);\n      register[_frameNumber].owner = msg.sender;\n      string[] storage fn = ownerList[oldOwner];\n      uint index = getFrameIndex(oldOwner, _frameNumber);\n      for (uint i = index; i < fn.length-1; i++){\n        fn[i] = fn[i+1];\n      }\n      delete fn[fn.length-1];\n      fn.length--;\n\n      BikeTransfered(oldOwner, msg.sender, _frameNumber);\n    }\n\n    function transfer(address _to, string _frameNumber) bikeOwner(_frameNumber) public{\n      require(_to != 0);\n      ownerList[_to].push(_frameNumber);\n      register[_frameNumber].owner = _to;\n      string[] storage fn = ownerList[msg.sender];\n      uint index = getFrameIndex(msg.sender, _frameNumber);\n      for (uint i = index; i < fn.length-1; i++){\n        fn[i] = fn[i+1];\n      }\n      delete fn[fn.length-1];\n      fn.length--;\n\n      BikeTransfered(msg.sender, _to, _frameNumber);\n    }\n\n    function tokenOfOwnerByIndex(address _owner, uint256 _index) constant public returns (string frameNumber){\n      require(_index < balanceOf(_owner));\n      require(_index >= 0);\n      frameNumber = ownerList[_owner][_index];\n    }\n\n    function tokenMetadata(string _frameNumber) constant public returns (string){\n      return register[_frameNumber].infoUrl;\n    }\n\n    function updateTokenMetadata(string _frameNumber, string _infoUrl) bikeOwner(_frameNumber) public{\n      register[_frameNumber].infoUrl = _infoUrl;\n    }\n\n    // End ERC-721 Standard Functions\n\n    function () payable public{\n      donated = donated + msg.value; // Can remove this\n    }\n\n    function withdrawEther(address _to, uint _value) onlyContractCreator() public{\n        _to.transfer(_value);\n        EtherWithdrawn(msg.sender, _to, _value);\n    }\n\n    function addBike(string _frameNumber, string _infoUrl)\n    payable onlyAdmin costs(registrationPrice) public{\n        require(register[_frameNumber].owner == 0); // Check bike isn't owned\n\n        Bike storage b = register[_frameNumber];\n        b.owner = msg.sender;\n        b.stolen =false;\n        b.found = false;\n        b.founddetails = \"\";\n        b.infoUrl = _infoUrl;\n        totalSupply++;\n        donated = donated + msg.value;\n        BikeCreated(_frameNumber);\n\n        ownerList[msg.sender].push(_frameNumber);\n    }\n\n    function addCompany(address _companyAdd) onlyContractCreator public{\n        company[_companyAdd] = true;\n        CompanyAdded(creator, _companyAdd);\n    }\n\n    function reportStolen(string _frameNumber, string _infoUrl) bikeOwner(_frameNumber) public{\n        Bike storage b = register[_frameNumber];\n        b.stolen = true;\n        b.infoUrl = _infoUrl;\n        BikeStolen(_frameNumber, _infoUrl);\n    }\n\n    function reportFound(string _frameNumber, string _details) public{\n        require(register[_frameNumber].stolen);\n        Bike storage b = register[_frameNumber];\n        b.found = true;\n        b.founddetails = _details;\n        BikeFound(msg.sender, _frameNumber);\n    }\n\n    function reportNotFound(string _frameNumber) bikeOwner(_frameNumber) public{\n        register[_frameNumber].found = false;\n        register[_frameNumber].founddetails = \"\";\n        BikeNotFound(msg.sender, _frameNumber);\n    }\n\n    function reportReturned(string _frameNumber) bikeOwner(_frameNumber) public{\n        require(register[_frameNumber].stolen);\n        require(register[_frameNumber].found);\n        Bike storage b = register[_frameNumber];\n        b.stolen = false;\n        b.found = false;\n        b.founddetails = \"\";\n        BikeReturned(msg.sender, _frameNumber);\n    }\n\n    function transferOwner(string _frameNumber, address _newOwner) onlyAdminOrOwner(_frameNumber) public{\n        require(_newOwner != 0);\n        ownerList[_newOwner].push(_frameNumber);\n        register[_frameNumber].owner = _newOwner;\n        string[] storage fn = ownerList[msg.sender];\n        uint index = getFrameIndex(msg.sender, _frameNumber);\n        for (uint i = index; i < fn.length-1; i++){\n          fn[i] = fn[i+1];\n        }\n        delete fn[fn.length-1];\n        fn.length--;\n\n        BikeTransfered(msg.sender, _newOwner, _frameNumber);\n    }\n\n    function removeBike(string _frameNumber) onlyAdminOrOwner(_frameNumber) public{\n        address owner = register[_frameNumber].owner;\n        delete register[_frameNumber];\n        string[] storage fn = ownerList[owner];\n        uint index = getFrameIndex(owner, _frameNumber);\n        for (uint i = index; i < fn.length-1; i++){\n          fn[i] = fn[i+1];\n        }\n        delete fn[fn.length-1];\n        fn.length--;\n        totalSupply--;\n\n        BikeRemoved(msg.sender, owner, _frameNumber);\n    }\n\n    // Only contract creator can remove companies\n    function removeCompany(address _companyAdd) onlyContractCreator public{\n        require(company[_companyAdd]);\n        delete company[_companyAdd];\n        CompanyRemoved(msg.sender, _companyAdd);\n    }\n\n    function changeOwner(address _newOwner) onlyContractCreator public{\n        creator = _newOwner;\n        OwnerChanged(msg.sender, _newOwner);\n    }\n\n    function changeAdminSwitch(bool _status) public onlyContractCreator returns(bool){\n        adminSwitch = _status;\n        AdminSwitchChanged(_status);\n        return adminSwitch;\n    }\n\n    // Get functions\n    function getBike(string _frameNumber) constant public\n    returns(address owner, string details, bool stolen, bool found, string infoUrl){\n\n    Bike storage b = register[_frameNumber];\n    owner = b.owner;\n    details = b.founddetails;\n    stolen = b.stolen;\n    found = b.found;\n    infoUrl = b.infoUrl;\n    }\n\n    function getFrameIndex(address _owner, string _frameNumber) constant public returns(uint i){\n        string[] storage fn = ownerList[_owner];\n        for(i = 0; i < fn.length; i++){\n            if(keccak256(fn[i]) == keccak256(_frameNumber)) return i;\n        }\n        require(false); // Fail if not found\n    }\n\n    function getFrameNumber(address _owner, uint _index) constant public returns(string frameNumber){\n        require(_index < ownerList[_owner].length);\n        frameNumber = ownerList[_owner][_index];\n    }\n\n    function isCompany(address _companyAdd) constant public returns(bool){\n        return company[_companyAdd];\n    }\n\n    function getEthDonated() constant public returns (uint) { return donated; }\n\n    function getAdminSwitch() constant public returns(bool) { return adminSwitch; }\n\n    function getRegistrationPrice() constant public returns(uint)\n    { return registrationPrice; }\n}\n",
  "sourcePath": "/home/safid1/Ethereum/bikechain/contracts/BikeChain.sol",
  "compiler": {
    "name": "solc",
    "version": "0.4.18+commit.9cf6e910.Emscripten.clang"
  },
  "schemaVersion": "1.0.1",
  "updatedAt": "2018-06-14T20:39:49.165Z"
}