{
  "contractName": "Contacts",
  "abi": [
    {
      "constant": false,
      "inputs": [
        {
          "name": "_name",
          "type": "string"
        },
        {
          "name": "_email",
          "type": "string"
        },
        {
          "name": "_phone",
          "type": "string"
        }
      ],
      "name": "addContactDetails",
      "outputs": [],
      "payable": false,
      "stateMutability": "nonpayable",
      "type": "function"
    },
    {
      "anonymous": false,
      "inputs": [
        {
          "indexed": false,
          "name": "owner",
          "type": "address"
        },
        {
          "indexed": false,
          "name": "name",
          "type": "string"
        },
        {
          "indexed": false,
          "name": "email",
          "type": "string"
        },
        {
          "indexed": false,
          "name": "phone",
          "type": "string"
        }
      ],
      "name": "ContactDetailsAdded",
      "type": "event"
    }
  ],
  "bytecode": "0x6060604052341561000f57600080fd5b6104ab8061001e6000396000f300606060405260043610610041576000357c0100000000000000000000000000000000000000000000000000000000900463ffffffff1680638c98234914610046575b600080fd5b341561005157600080fd5b610127600480803590602001908201803590602001908080601f0160208091040260200160405190810160405280939291908181526020018383808284378201915050505050509190803590602001908201803590602001908080601f0160208091040260200160405190810160405280939291908181526020018383808284378201915050505050509190803590602001908201803590602001908080601f01602080910402602001604051908101604052809392919081815260200183838082843782019150505050505091905050610129565b005b826000803373ffffffffffffffffffffffffffffffffffffffff1673ffffffffffffffffffffffffffffffffffffffff168152602001908152602001600020600001908051906020019061017e9291906103da565b50816000803373ffffffffffffffffffffffffffffffffffffffff1673ffffffffffffffffffffffffffffffffffffffff16815260200190815260200160002060010190805190602001906101d49291906103da565b50806000803373ffffffffffffffffffffffffffffffffffffffff1673ffffffffffffffffffffffffffffffffffffffff168152602001908152602001600020600201908051906020019061022a9291906103da565b507faa12444512445290b181c1cce08d320b5c4e97519242b6775fbe677ca0bd22c933848484604051808573ffffffffffffffffffffffffffffffffffffffff1673ffffffffffffffffffffffffffffffffffffffff168152602001806020018060200180602001848103845287818151815260200191508051906020019080838360005b838110156102ca5780820151818401526020810190506102af565b50505050905090810190601f1680156102f75780820380516001836020036101000a031916815260200191505b50848103835286818151815260200191508051906020019080838360005b83811015610330578082015181840152602081019050610315565b50505050905090810190601f16801561035d5780820380516001836020036101000a031916815260200191505b50848103825285818151815260200191508051906020019080838360005b8381101561039657808201518184015260208101905061037b565b50505050905090810190601f1680156103c35780820380516001836020036101000a031916815260200191505b5097505050505050505060405180910390a1505050565b828054600181600116156101000203166002900490600052602060002090601f016020900481019282601f1061041b57805160ff1916838001178555610449565b82800160010185558215610449579182015b8281111561044857825182559160200191906001019061042d565b5b509050610456919061045a565b5090565b61047c91905b80821115610478576000816000905550600101610460565b5090565b905600a165627a7a72305820b6c32ce1f9b34f589ed8d861baa323526b9a2acfdbfeaee7b82f32b5ad2ed2f10029",
  "source": "pragma solidity ^0.4.18;\n\ncontract Contacts{\n\n    struct ContactDetails{\n        string name;\n        string email;\n        string phone;\n    }\n\n    mapping(address => ContactDetails) contactList; // Owner details\n\n    event ContactDetailsAdded(address owner, string name, string email, string phone);\n\n    function addContactDetails(string _name, string _email, string _phone) public{\n        contactList[msg.sender].name = _name;\n        contactList[msg.sender].email = _email;\n        contactList[msg.sender].phone = _phone;\n        ContactDetailsAdded(msg.sender, _name, _email, _phone);\n    }\n}\n\ncontract BikeChain is Contacts{\n\n    string contractName;\n    string contractSymbol;\n    uint256 supplyNum;\n\n    struct Bike{\n        address owner;\n        string make;\n        string model;\n        uint16 year;\n        uint8 size;\n        string colour;\n        string features;\n        string details;\n        bool stolen;\n        string infoUrl;\n    }\n\n    // Switch to turn company admin off or on\n    bool adminSwitch;\n\n    // Price to register Bike in Wei\n    uint registrationPrice;\n\n    address[] public company;\n    mapping(string => Bike) register; // Maps frame number to bike\n    mapping(address => string[]) ownerList; // Maps address to frame numbers\n    // mapping(address => uint256) balance; Maps address to number of bikes owned\n    mapping(string => address) approvedAddress; // Maps frame number to address which is approved to take ownership\n\n    modifier onlyAdmin(uint _cID){\n        if(adminSwitch) require(msg.sender == company[_cID]);\n        _;\n    }\n\n    modifier onlyAdminOrOwner(uint _cID, string _frameNumber){\n        bool test = false;\n        if(adminSwitch){\n            if(msg.sender == company[_cID]){\n                test = true;\n            }\n        }\n        if(register[_frameNumber].owner == msg.sender){\n            test = true;\n        }\n        require(test);\n        _;\n    }\n\n    modifier onlyCompany(uint _cID){\n        require(msg.sender == company[_cID]);\n        _;\n    }\n\n    modifier onlyCompanyOrOwner(uint _cID, string _frameNumber){\n        bool test = false;\n        if(msg.sender == company[_cID]){\n            test = true;\n        }\n        if(register[_frameNumber].owner == msg.sender){\n            test = true;\n        }\n        require(test);\n        _;\n    }\n\n    modifier onlyContractCreator(){\n        require(msg.sender == company[0]);\n        _;\n    }\n\n    modifier bikeOwner(string _frameNumber){\n        require(register[_frameNumber].owner == msg.sender);\n        _;\n    }\n\n    modifier hasApproval(string _frameNumber){\n        require(approvedAddress[_frameNumber] == msg.sender);\n        _;\n    }\n\n    modifier costs(uint _price) {\n        require(msg.value >= _price);\n            _;\n    }\n\n    event Approval(address owner, address to, string frameNumber);\n    event BikeCreated(string frameNumber);\n    event BikeRemoved(address company, address owner, string frameNumber);\n    event BikeTransfered(address from, address to, string frameNumber);\n    event BikeStolen(string frameNumber, string details);\n    event BikeFound(address finder, string frameNumber, string details);\n    event CompanyAdded(address admin, address company, uint cID);\n    event CompanyRemoved(address admin, address company, uint cID);\n    event OwnerChanged(address from, address to);\n    event EtherWithdrawn(address from, address to, uint value);\n    event AdminSwitchChanged(bool status);\n\n    function BikeChain() public{\n        company.length++;\n        company[0] = msg.sender;\n        registrationPrice = 10000000000000000;\n        adminSwitch = false;\n        contractName = \"Bike-Token\";\n        contractSymbol = \"🚲\";\n        supplyNum = 0;\n    }\n\n    // Begin ERC-721 Standard Functions\n\n    function name() constant public returns (string){\n      return contractName;\n    }\n\n    function symbol() constant public returns (string){\n      return contractSymbol;\n    }\n\n    function totalSupply() constant public returns (uint256){\n      return supplyNum;\n    }\n\n    function balanceOf(address _owner) constant public returns (uint256){\n      return ownerList[_owner].length;\n    }\n\n    function ownerOf(string _frameNumber) constant public returns (address){\n      require(register[_frameNumber].owner != 0);\n      return register[_frameNumber].owner;\n    }\n\n    function approve(address _to, string _frameNumber) bikeOwner(_frameNumber) public{\n      approvedAddress[_frameNumber] = _to;\n      Approval(msg.sender, _to, _frameNumber);\n    }\n\n    function takeOwnership(string _frameNumber) hasApproval(_frameNumber) public{\n      address oldOwner = register[_frameNumber].owner;\n      ownerList[msg.sender].push(_frameNumber);\n      register[_frameNumber].owner = msg.sender;\n      string[] storage fn = ownerList[oldOwner];\n      uint index = getFrameIndex(oldOwner, _frameNumber);\n      for (uint i = index; i < fn.length-1; i++){\n        fn[i] = fn[i+1];\n      }\n      delete fn[fn.length-1];\n      fn.length--;\n\n      BikeTransfered(oldOwner, msg.sender, _frameNumber);\n    }\n\n    function transfer(address _to, string _frameNumber) bikeOwner(_frameNumber) public{\n      require(_to != 0);\n      ownerList[_to].push(_frameNumber);\n      register[_frameNumber].owner = _to;\n      string[] storage fn = ownerList[msg.sender];\n      uint index = getFrameIndex(msg.sender, _frameNumber);\n      for (uint i = index; i < fn.length-1; i++){\n        fn[i] = fn[i+1];\n      }\n      delete fn[fn.length-1];\n      fn.length--;\n\n      BikeTransfered(msg.sender, _to, _frameNumber);\n    }\n\n    function tokenOfOwnerByIndex(address _owner, uint256 _index) constant public returns (string frameNumber){\n      require(_index < balanceOf(_owner));\n      require(_index >= 0);\n      frameNumber = ownerList[_owner][_index];\n    }\n\n    function tokenMetadata(string _frameNumber) constant public returns (string){\n      return register[_frameNumber].infoUrl;\n    }\n\n    function updateTokenMetadata(string _frameNumber, string _infoUrl) bikeOwner(_frameNumber) public{\n      register[_frameNumber].infoUrl = _infoUrl;\n    }\n\n    // End ERC-721 Standard Functions\n\n    function () payable public{}\n\n    function withdrawEther(address _to, uint _value) onlyContractCreator() public{\n        //require(this.balance > _value);\n        _to.transfer(_value);\n        EtherWithdrawn(msg.sender, _to, _value);\n    }\n\n    function addBike(string _frameNumber, string _make, string _model, uint16 _year, uint8 _size, string _colour, string _features, string _infoUrl, uint _cID)\n    payable onlyAdmin(_cID) costs(registrationPrice) public{\n        require(register[_frameNumber].owner == 0); // Check bike isn't owned\n\n        Bike storage b = register[_frameNumber];\n        b.owner = msg.sender;\n        b.make = _make;\n        b.model = _model;\n        b.year = _year;\n        b.size = _size;\n        b.colour = _colour;\n        b.features = _features;\n        b.stolen = false;\n        b.infoUrl = _infoUrl;\n        supplyNum++;\n        BikeCreated(_frameNumber);\n\n        ownerList[msg.sender].push(_frameNumber);\n    }\n\n    function addCompany(address _newCompany) onlyContractCreator() public returns(uint newcID){\n        newcID = company.length++;\n        company[newcID] = _newCompany;\n        CompanyAdded(company[0], _newCompany, newcID);\n    }\n\n    function reportStolen(string _frameNumber, string _details) bikeOwner(_frameNumber) public{\n        Bike storage b = register[_frameNumber];\n        b.stolen = true;\n        BikeStolen(_frameNumber, _details);\n    }\n\n    function reportFound(string _frameNumber, string _details) public{\n        require(register[_frameNumber].stolen);\n        register[_frameNumber].stolen = false;\n        BikeFound(msg.sender, _frameNumber, _details);\n    }\n\n    function transferOwner(string _frameNumber, address _newOwner, uint _cID) onlyAdminOrOwner(_cID, _frameNumber) public{\n        require(_newOwner != 0);\n        ownerList[_newOwner].push(_frameNumber);\n        register[_frameNumber].owner = _newOwner;\n        string[] storage fn = ownerList[msg.sender];\n        uint index = getFrameIndex(msg.sender, _frameNumber);\n        for (uint i = index; i < fn.length-1; i++){\n          fn[i] = fn[i+1];\n        }\n        delete fn[fn.length-1];\n        fn.length--;\n\n        BikeTransfered(msg.sender, _newOwner, _frameNumber);\n    }\n\n    function removeBike(string _frameNumber, uint _cID) onlyAdminOrOwner(_cID, _frameNumber) public{\n        address owner = register[_frameNumber].owner;\n        delete register[_frameNumber];\n        string[] storage fn = ownerList[owner];\n        uint index = getFrameIndex(owner, _frameNumber);\n        for (uint i = index; i < fn.length-1; i++){\n          fn[i] = fn[i+1];\n        }\n        delete fn[fn.length-1];\n        fn.length--;\n        supplyNum--;\n\n        BikeRemoved(msg.sender, owner, _frameNumber);\n    }\n\n    // Only contract creator can remove companies\n    function removeCompany(uint _cID) onlyContractCreator() public{\n        require(_cID != 0); // Cant remove contract creator\n        require(_cID < company.length);\n        address companyAddress = company[_cID];\n        for (uint i = _cID; i < company.length-1; i++){\n          company[i] = company[i+1];\n        }\n        delete company[company.length-1];\n        company.length--;\n\n        CompanyRemoved(msg.sender, companyAddress, _cID);\n    }\n\n    function changeOwner(address _newOwner) onlyContractCreator() public{\n        company[0] = _newOwner;\n        OwnerChanged(msg.sender, _newOwner);\n    }\n\n    function changeAdminSwitch(bool _status) public returns(bool){\n        require(msg.sender == company[0]);\n        adminSwitch = _status;\n        AdminSwitchChanged(_status);\n        return adminSwitch;\n    }\n\n    // Get functions\n    function getBike(string _frameNumber) constant public\n    returns(address owner, string make, string model, uint16 year, uint8 size, string colour, string features, string details, bool stolen){\n\n    Bike storage b = register[_frameNumber];\n    owner = b.owner;\n    make = b.make;\n    model = b.model;\n    year = b.year;\n    size = b.size;\n    colour = b.colour;\n    features = b.features;\n    details = b.details;\n    stolen = b.stolen;\n    }\n\n    function getFrameIndex(address _owner, string _frameNumber) constant public returns(uint i){\n        string[] storage fn = ownerList[_owner];\n        for(i = 0; i < fn.length; i++){\n            if(keccak256(fn[i]) == keccak256(_frameNumber)) return i;\n        }\n        require(false); // Fail if not found\n    }\n\n    function getFrameNumber(address _owner, uint _index) constant public returns(string frameNumber){\n        require(_index < ownerList[_owner].length);\n        frameNumber = ownerList[_owner][_index];\n    }\n\n    function getCompany(uint _cID) constant public returns(address co){\n        require(_cID < company.length);\n        co = company[_cID];\n    }\n\n    function getCompanyID() constant public returns(uint id){\n        for(id = 0; id < company.length; id++){\n            if(company[id] == msg.sender) return;\n        }\n        require(false); // Fail if not found\n    }\n\n    function getCompanyLength() constant public returns(uint len){\n        len = company.length;\n    }\n\n    function getContactDetails(address _owner) constant public\n    returns(string contactName, string email, string phone){\n        contactName = contactList[_owner].name;\n        email = contactList[_owner].email;\n        phone = contactList[_owner].phone;\n    }\n\n    function getOwner(string _frameNumber) constant public returns(address owner){\n        owner = register[_frameNumber].owner;\n    }\n\n    function getEthBalance() constant public returns (uint) { return this.balance; }\n\n    function getAdminSwitch() constant public returns(bool) { return adminSwitch; }\n\n    function getRegistrationPrice() constant public returns(uint)\n    { return registrationPrice; }\n}\n",
  "sourcePath": "/home/safid1/Ethereum/bikechain/contracts/BikeChain.sol",
  "compiler": {
    "name": "solc",
    "version": "0.4.18+commit.9cf6e910.Emscripten.clang"
  },
  "schemaVersion": "1.0.1",
  "updatedAt": "2018-01-03T20:32:25.288Z"
}